{
  "abi": [
    {
      "type": "constructor",
      "inputs": [
        {
          "name": "disable",
          "type": "bool",
          "internalType": "bool"
        }
      ],
      "stateMutability": "nonpayable"
    },
    {
      "type": "function",
      "name": "BASIS_POINTS_DENOMINATOR",
      "inputs": [],
      "outputs": [
        {
          "name": "",
          "type": "uint256",
          "internalType": "uint256"
        }
      ],
      "stateMutability": "view"
    },
    {
      "type": "function",
      "name": "MINIMUM_LIQUIDITY",
      "inputs": [],
      "outputs": [
        {
          "name": "",
          "type": "uint256",
          "internalType": "uint256"
        }
      ],
      "stateMutability": "view"
    },
    {
      "type": "function",
      "name": "TRADING_MODE_BIDIRECTIONAL",
      "inputs": [],
      "outputs": [
        {
          "name": "",
          "type": "uint256",
          "internalType": "uint256"
        }
      ],
      "stateMutability": "view"
    },
    {
      "type": "function",
      "name": "allowance",
      "inputs": [
        {
          "name": "owner",
          "type": "address",
          "internalType": "address"
        },
        {
          "name": "spender",
          "type": "address",
          "internalType": "address"
        }
      ],
      "outputs": [
        {
          "name": "",
          "type": "uint256",
          "internalType": "uint256"
        }
      ],
      "stateMutability": "view"
    },
    {
      "type": "function",
      "name": "approve",
      "inputs": [
        {
          "name": "spender",
          "type": "address",
          "internalType": "address"
        },
        {
          "name": "amount",
          "type": "uint256",
          "internalType": "uint256"
        }
      ],
      "outputs": [
        {
          "name": "",
          "type": "bool",
          "internalType": "bool"
        }
      ],
      "stateMutability": "nonpayable"
    },
    {
      "type": "function",
      "name": "balanceOf",
      "inputs": [
        {
          "name": "account",
          "type": "address",
          "internalType": "address"
        }
      ],
      "outputs": [
        {
          "name": "",
          "type": "uint256",
          "internalType": "uint256"
        }
      ],
      "stateMutability": "view"
    },
    {
      "type": "function",
      "name": "blockTimestampLast",
      "inputs": [],
      "outputs": [
        {
          "name": "",
          "type": "uint256",
          "internalType": "uint256"
        }
      ],
      "stateMutability": "view"
    },
    {
      "type": "function",
      "name": "burn",
      "inputs": [
        {
          "name": "to",
          "type": "address",
          "internalType": "address"
        }
      ],
      "outputs": [
        {
          "name": "amount0",
          "type": "uint256",
          "internalType": "uint256"
        },
        {
          "name": "amount1",
          "type": "uint256",
          "internalType": "uint256"
        }
      ],
      "stateMutability": "nonpayable"
    },
    {
      "type": "function",
      "name": "configureTradingLimit",
      "inputs": [
        {
          "name": "token",
          "type": "address",
          "internalType": "address"
        },
        {
          "name": "limit0",
          "type": "uint256",
          "internalType": "uint256"
        },
        {
          "name": "limit1",
          "type": "uint256",
          "internalType": "uint256"
        }
      ],
      "outputs": [],
      "stateMutability": "nonpayable"
    },
    {
      "type": "function",
      "name": "decimals",
      "inputs": [],
      "outputs": [
        {
          "name": "",
          "type": "uint8",
          "internalType": "uint8"
        }
      ],
      "stateMutability": "view"
    },
    {
      "type": "function",
      "name": "decimals0",
      "inputs": [],
      "outputs": [
        {
          "name": "",
          "type": "uint256",
          "internalType": "uint256"
        }
      ],
      "stateMutability": "view"
    },
    {
      "type": "function",
      "name": "decimals1",
      "inputs": [],
      "outputs": [
        {
          "name": "",
          "type": "uint256",
          "internalType": "uint256"
        }
      ],
      "stateMutability": "view"
    },
    {
      "type": "function",
      "name": "decreaseAllowance",
      "inputs": [
        {
          "name": "spender",
          "type": "address",
          "internalType": "address"
        },
        {
          "name": "subtractedValue",
          "type": "uint256",
          "internalType": "uint256"
        }
      ],
      "outputs": [
        {
          "name": "",
          "type": "bool",
          "internalType": "bool"
        }
      ],
      "stateMutability": "nonpayable"
    },
    {
      "type": "function",
      "name": "feeSetter",
      "inputs": [],
      "outputs": [
        {
          "name": "",
          "type": "address",
          "internalType": "address"
        }
      ],
      "stateMutability": "view"
    },
    {
      "type": "function",
      "name": "getAmountOut",
      "inputs": [
        {
          "name": "amountIn",
          "type": "uint256",
          "internalType": "uint256"
        },
        {
          "name": "tokenIn",
          "type": "address",
          "internalType": "address"
        }
      ],
      "outputs": [
        {
          "name": "amountOut",
          "type": "uint256",
          "internalType": "uint256"
        }
      ],
      "stateMutability": "view"
    },
    {
      "type": "function",
      "name": "getRebalancingState",
      "inputs": [],
      "outputs": [
        {
          "name": "oraclePriceNumerator",
          "type": "uint256",
          "internalType": "uint256"
        },
        {
          "name": "oraclePriceDenominator",
          "type": "uint256",
          "internalType": "uint256"
        },
        {
          "name": "reservePriceNumerator",
          "type": "uint256",
          "internalType": "uint256"
        },
        {
          "name": "reservePriceDenominator",
          "type": "uint256",
          "internalType": "uint256"
        },
        {
          "name": "reservePriceAboveOraclePrice",
          "type": "bool",
          "internalType": "bool"
        },
        {
          "name": "rebalanceThreshold",
          "type": "uint16",
          "internalType": "uint16"
        },
        {
          "name": "priceDifference",
          "type": "uint256",
          "internalType": "uint256"
        }
      ],
      "stateMutability": "view"
    },
    {
      "type": "function",
      "name": "getReserves",
      "inputs": [],
      "outputs": [
        {
          "name": "_reserve0",
          "type": "uint256",
          "internalType": "uint256"
        },
        {
          "name": "_reserve1",
          "type": "uint256",
          "internalType": "uint256"
        },
        {
          "name": "_blockTimestampLast",
          "type": "uint256",
          "internalType": "uint256"
        }
      ],
      "stateMutability": "view"
    },
    {
      "type": "function",
      "name": "getTradingLimits",
      "inputs": [
        {
          "name": "token",
          "type": "address",
          "internalType": "address"
        }
      ],
      "outputs": [
        {
          "name": "config",
          "type": "tuple",
          "internalType": "struct ITradingLimitsV2.Config",
          "components": [
            {
              "name": "limit0",
              "type": "int120",
              "internalType": "int120"
            },
            {
              "name": "limit1",
              "type": "int120",
              "internalType": "int120"
            },
            {
              "name": "decimals",
              "type": "uint8",
              "internalType": "uint8"
            }
          ]
        },
        {
          "name": "state",
          "type": "tuple",
          "internalType": "struct ITradingLimitsV2.State",
          "components": [
            {
              "name": "lastUpdated0",
              "type": "uint32",
              "internalType": "uint32"
            },
            {
              "name": "lastUpdated1",
              "type": "uint32",
              "internalType": "uint32"
            },
            {
              "name": "netflow0",
              "type": "int96",
              "internalType": "int96"
            },
            {
              "name": "netflow1",
              "type": "int96",
              "internalType": "int96"
            }
          ]
        }
      ],
      "stateMutability": "view"
    },
    {
      "type": "function",
      "name": "increaseAllowance",
      "inputs": [
        {
          "name": "spender",
          "type": "address",
          "internalType": "address"
        },
        {
          "name": "addedValue",
          "type": "uint256",
          "internalType": "uint256"
        }
      ],
      "outputs": [
        {
          "name": "",
          "type": "bool",
          "internalType": "bool"
        }
      ],
      "stateMutability": "nonpayable"
    },
    {
      "type": "function",
      "name": "initialize",
      "inputs": [
        {
          "name": "_token0",
          "type": "address",
          "internalType": "address"
        },
        {
          "name": "_token1",
          "type": "address",
          "internalType": "address"
        },
        {
          "name": "_oracleAdapter",
          "type": "address",
          "internalType": "address"
        },
        {
          "name": "_referenceRateFeedID",
          "type": "address",
          "internalType": "address"
        },
        {
          "name": "_invertRateFeed",
          "type": "bool",
          "internalType": "bool"
        },
        {
          "name": "_initialOwner",
          "type": "address",
          "internalType": "address"
        },
        {
          "name": "_params",
          "type": "tuple",
          "internalType": "struct IFPMM.FPMMParams",
          "components": [
            {
              "name": "lpFee",
              "type": "uint256",
              "internalType": "uint256"
            },
            {
              "name": "protocolFee",
              "type": "uint256",
              "internalType": "uint256"
            },
            {
              "name": "protocolFeeRecipient",
              "type": "address",
              "internalType": "address"
            },
            {
              "name": "feeSetter",
              "type": "address",
              "internalType": "address"
            },
            {
              "name": "rebalanceIncentive",
              "type": "uint256",
              "internalType": "uint256"
            },
            {
              "name": "rebalanceThresholdAbove",
              "type": "uint256",
              "internalType": "uint256"
            },
            {
              "name": "rebalanceThresholdBelow",
              "type": "uint256",
              "internalType": "uint256"
            }
          ]
        }
      ],
      "outputs": [],
      "stateMutability": "nonpayable"
    },
    {
      "type": "function",
      "name": "invertRateFeed",
      "inputs": [],
      "outputs": [
        {
          "name": "",
          "type": "bool",
          "internalType": "bool"
        }
      ],
      "stateMutability": "view"
    },
    {
      "type": "function",
      "name": "liquidityStrategy",
      "inputs": [
        {
          "name": "strategy",
          "type": "address",
          "internalType": "address"
        }
      ],
      "outputs": [
        {
          "name": "",
          "type": "bool",
          "internalType": "bool"
        }
      ],
      "stateMutability": "view"
    },
    {
      "type": "function",
      "name": "lpFee",
      "inputs": [],
      "outputs": [
        {
          "name": "",
          "type": "uint256",
          "internalType": "uint256"
        }
      ],
      "stateMutability": "view"
    },
    {
      "type": "function",
      "name": "metadata",
      "inputs": [],
      "outputs": [
        {
          "name": "dec0",
          "type": "uint256",
          "internalType": "uint256"
        },
        {
          "name": "dec1",
          "type": "uint256",
          "internalType": "uint256"
        },
        {
          "name": "r0",
          "type": "uint256",
          "internalType": "uint256"
        },
        {
          "name": "r1",
          "type": "uint256",
          "internalType": "uint256"
        },
        {
          "name": "t0",
          "type": "address",
          "internalType": "address"
        },
        {
          "name": "t1",
          "type": "address",
          "internalType": "address"
        }
      ],
      "stateMutability": "view"
    },
    {
      "type": "function",
      "name": "mint",
      "inputs": [
        {
          "name": "to",
          "type": "address",
          "internalType": "address"
        }
      ],
      "outputs": [
        {
          "name": "liquidity",
          "type": "uint256",
          "internalType": "uint256"
        }
      ],
      "stateMutability": "nonpayable"
    },
    {
      "type": "function",
      "name": "name",
      "inputs": [],
      "outputs": [
        {
          "name": "",
          "type": "string",
          "internalType": "string"
        }
      ],
      "stateMutability": "view"
    },
    {
      "type": "function",
      "name": "oracleAdapter",
      "inputs": [],
      "outputs": [
        {
          "name": "",
          "type": "address",
          "internalType": "contract IOracleAdapter"
        }
      ],
      "stateMutability": "view"
    },
    {
      "type": "function",
      "name": "owner",
      "inputs": [],
      "outputs": [
        {
          "name": "",
          "type": "address",
          "internalType": "address"
        }
      ],
      "stateMutability": "view"
    },
    {
      "type": "function",
      "name": "protocolFee",
      "inputs": [],
      "outputs": [
        {
          "name": "",
          "type": "uint256",
          "internalType": "uint256"
        }
      ],
      "stateMutability": "view"
    },
    {
      "type": "function",
      "name": "protocolFeeRecipient",
      "inputs": [],
      "outputs": [
        {
          "name": "",
          "type": "address",
          "internalType": "address"
        }
      ],
      "stateMutability": "view"
    },
    {
      "type": "function",
      "name": "rebalance",
      "inputs": [
        {
          "name": "amount0Out",
          "type": "uint256",
          "internalType": "uint256"
        },
        {
          "name": "amount1Out",
          "type": "uint256",
          "internalType": "uint256"
        },
        {
          "name": "data",
          "type": "bytes",
          "internalType": "bytes"
        }
      ],
      "outputs": [],
      "stateMutability": "nonpayable"
    },
    {
      "type": "function",
      "name": "rebalanceIncentive",
      "inputs": [],
      "outputs": [
        {
          "name": "",
          "type": "uint256",
          "internalType": "uint256"
        }
      ],
      "stateMutability": "view"
    },
    {
      "type": "function",
      "name": "rebalanceThresholdAbove",
      "inputs": [],
      "outputs": [
        {
          "name": "",
          "type": "uint256",
          "internalType": "uint256"
        }
      ],
      "stateMutability": "view"
    },
    {
      "type": "function",
      "name": "rebalanceThresholdBelow",
      "inputs": [],
      "outputs": [
        {
          "name": "",
          "type": "uint256",
          "internalType": "uint256"
        }
      ],
      "stateMutability": "view"
    },
    {
      "type": "function",
      "name": "referenceRateFeedID",
      "inputs": [],
      "outputs": [
        {
          "name": "",
          "type": "address",
          "internalType": "address"
        }
      ],
      "stateMutability": "view"
    },
    {
      "type": "function",
      "name": "renounceOwnership",
      "inputs": [],
      "outputs": [],
      "stateMutability": "nonpayable"
    },
    {
      "type": "function",
      "name": "reserve0",
      "inputs": [],
      "outputs": [
        {
          "name": "",
          "type": "uint256",
          "internalType": "uint256"
        }
      ],
      "stateMutability": "view"
    },
    {
      "type": "function",
      "name": "reserve1",
      "inputs": [],
      "outputs": [
        {
          "name": "",
          "type": "uint256",
          "internalType": "uint256"
        }
      ],
      "stateMutability": "view"
    },
    {
      "type": "function",
      "name": "setFeeSetter",
      "inputs": [
        {
          "name": "_feeSetter",
          "type": "address",
          "internalType": "address"
        }
      ],
      "outputs": [],
      "stateMutability": "nonpayable"
    },
    {
      "type": "function",
      "name": "setInvertRateFeed",
      "inputs": [
        {
          "name": "_invertRateFeed",
          "type": "bool",
          "internalType": "bool"
        }
      ],
      "outputs": [],
      "stateMutability": "nonpayable"
    },
    {
      "type": "function",
      "name": "setLPFee",
      "inputs": [
        {
          "name": "_lpFee",
          "type": "uint256",
          "internalType": "uint256"
        }
      ],
      "outputs": [],
      "stateMutability": "nonpayable"
    },
    {
      "type": "function",
      "name": "setLiquidityStrategy",
      "inputs": [
        {
          "name": "strategy",
          "type": "address",
          "internalType": "address"
        },
        {
          "name": "state",
          "type": "bool",
          "internalType": "bool"
        }
      ],
      "outputs": [],
      "stateMutability": "nonpayable"
    },
    {
      "type": "function",
      "name": "setOracleAdapter",
      "inputs": [
        {
          "name": "_oracleAdapter",
          "type": "address",
          "internalType": "address"
        }
      ],
      "outputs": [],
      "stateMutability": "nonpayable"
    },
    {
      "type": "function",
      "name": "setProtocolFee",
      "inputs": [
        {
          "name": "_protocolFee",
          "type": "uint256",
          "internalType": "uint256"
        }
      ],
      "outputs": [],
      "stateMutability": "nonpayable"
    },
    {
      "type": "function",
      "name": "setProtocolFeeRecipient",
      "inputs": [
        {
          "name": "_protocolFeeRecipient",
          "type": "address",
          "internalType": "address"
        }
      ],
      "outputs": [],
      "stateMutability": "nonpayable"
    },
    {
      "type": "function",
      "name": "setRebalanceIncentive",
      "inputs": [
        {
          "name": "_rebalanceIncentive",
          "type": "uint256",
          "internalType": "uint256"
        }
      ],
      "outputs": [],
      "stateMutability": "nonpayable"
    },
    {
      "type": "function",
      "name": "setRebalanceThresholds",
      "inputs": [
        {
          "name": "_rebalanceThresholdAbove",
          "type": "uint256",
          "internalType": "uint256"
        },
        {
          "name": "_rebalanceThresholdBelow",
          "type": "uint256",
          "internalType": "uint256"
        }
      ],
      "outputs": [],
      "stateMutability": "nonpayable"
    },
    {
      "type": "function",
      "name": "setReferenceRateFeedID",
      "inputs": [
        {
          "name": "_referenceRateFeedID",
          "type": "address",
          "internalType": "address"
        }
      ],
      "outputs": [],
      "stateMutability": "nonpayable"
    },
    {
      "type": "function",
      "name": "swap",
      "inputs": [
        {
          "name": "amount0Out",
          "type": "uint256",
          "internalType": "uint256"
        },
        {
          "name": "amount1Out",
          "type": "uint256",
          "internalType": "uint256"
        },
        {
          "name": "to",
          "type": "address",
          "internalType": "address"
        },
        {
          "name": "data",
          "type": "bytes",
          "internalType": "bytes"
        }
      ],
      "outputs": [],
      "stateMutability": "nonpayable"
    },
    {
      "type": "function",
      "name": "symbol",
      "inputs": [],
      "outputs": [
        {
          "name": "",
          "type": "string",
          "internalType": "string"
        }
      ],
      "stateMutability": "view"
    },
    {
      "type": "function",
      "name": "token0",
      "inputs": [],
      "outputs": [
        {
          "name": "",
          "type": "address",
          "internalType": "address"
        }
      ],
      "stateMutability": "view"
    },
    {
      "type": "function",
      "name": "token1",
      "inputs": [],
      "outputs": [
        {
          "name": "",
          "type": "address",
          "internalType": "address"
        }
      ],
      "stateMutability": "view"
    },
    {
      "type": "function",
      "name": "tokens",
      "inputs": [],
      "outputs": [
        {
          "name": "",
          "type": "address",
          "internalType": "address"
        },
        {
          "name": "",
          "type": "address",
          "internalType": "address"
        }
      ],
      "stateMutability": "view"
    },
    {
      "type": "function",
      "name": "totalSupply",
      "inputs": [],
      "outputs": [
        {
          "name": "",
          "type": "uint256",
          "internalType": "uint256"
        }
      ],
      "stateMutability": "view"
    },
    {
      "type": "function",
      "name": "transfer",
      "inputs": [
        {
          "name": "to",
          "type": "address",
          "internalType": "address"
        },
        {
          "name": "amount",
          "type": "uint256",
          "internalType": "uint256"
        }
      ],
      "outputs": [
        {
          "name": "",
          "type": "bool",
          "internalType": "bool"
        }
      ],
      "stateMutability": "nonpayable"
    },
    {
      "type": "function",
      "name": "transferFrom",
      "inputs": [
        {
          "name": "from",
          "type": "address",
          "internalType": "address"
        },
        {
          "name": "to",
          "type": "address",
          "internalType": "address"
        },
        {
          "name": "amount",
          "type": "uint256",
          "internalType": "uint256"
        }
      ],
      "outputs": [
        {
          "name": "",
          "type": "bool",
          "internalType": "bool"
        }
      ],
      "stateMutability": "nonpayable"
    },
    {
      "type": "function",
      "name": "transferOwnership",
      "inputs": [
        {
          "name": "newOwner",
          "type": "address",
          "internalType": "address"
        }
      ],
      "outputs": [],
      "stateMutability": "nonpayable"
    },
    {
      "type": "event",
      "name": "Approval",
      "inputs": [
        {
          "name": "owner",
          "type": "address",
          "indexed": true,
          "internalType": "address"
        },
        {
          "name": "spender",
          "type": "address",
          "indexed": true,
          "internalType": "address"
        },
        {
          "name": "value",
          "type": "uint256",
          "indexed": false,
          "internalType": "uint256"
        }
      ],
      "anonymous": false
    },
    {
      "type": "event",
      "name": "Burn",
      "inputs": [
        {
          "name": "sender",
          "type": "address",
          "indexed": true,
          "internalType": "address"
        },
        {
          "name": "amount0",
          "type": "uint256",
          "indexed": false,
          "internalType": "uint256"
        },
        {
          "name": "amount1",
          "type": "uint256",
          "indexed": false,
          "internalType": "uint256"
        },
        {
          "name": "liquidity",
          "type": "uint256",
          "indexed": false,
          "internalType": "uint256"
        },
        {
          "name": "to",
          "type": "address",
          "indexed": true,
          "internalType": "address"
        }
      ],
      "anonymous": false
    },
    {
      "type": "event",
      "name": "FeeSetterUpdated",
      "inputs": [
        {
          "name": "oldFeeSetter",
          "type": "address",
          "indexed": true,
          "internalType": "address"
        },
        {
          "name": "newFeeSetter",
          "type": "address",
          "indexed": true,
          "internalType": "address"
        }
      ],
      "anonymous": false
    },
    {
      "type": "event",
      "name": "Initialized",
      "inputs": [
        {
          "name": "version",
          "type": "uint8",
          "indexed": false,
          "internalType": "uint8"
        }
      ],
      "anonymous": false
    },
    {
      "type": "event",
      "name": "InvertRateFeedUpdated",
      "inputs": [
        {
          "name": "oldInvertRateFeed",
          "type": "bool",
          "indexed": false,
          "internalType": "bool"
        },
        {
          "name": "newInvertRateFeed",
          "type": "bool",
          "indexed": false,
          "internalType": "bool"
        }
      ],
      "anonymous": false
    },
    {
      "type": "event",
      "name": "LPFeeUpdated",
      "inputs": [
        {
          "name": "oldFee",
          "type": "uint256",
          "indexed": false,
          "internalType": "uint256"
        },
        {
          "name": "newFee",
          "type": "uint256",
          "indexed": false,
          "internalType": "uint256"
        }
      ],
      "anonymous": false
    },
    {
      "type": "event",
      "name": "LiquidityStrategyUpdated",
      "inputs": [
        {
          "name": "strategy",
          "type": "address",
          "indexed": true,
          "internalType": "address"
        },
        {
          "name": "status",
          "type": "bool",
          "indexed": false,
          "internalType": "bool"
        }
      ],
      "anonymous": false
    },
    {
      "type": "event",
      "name": "Mint",
      "inputs": [
        {
          "name": "sender",
          "type": "address",
          "indexed": true,
          "internalType": "address"
        },
        {
          "name": "amount0",
          "type": "uint256",
          "indexed": false,
          "internalType": "uint256"
        },
        {
          "name": "amount1",
          "type": "uint256",
          "indexed": false,
          "internalType": "uint256"
        },
        {
          "name": "liquidity",
          "type": "uint256",
          "indexed": false,
          "internalType": "uint256"
        },
        {
          "name": "to",
          "type": "address",
          "indexed": true,
          "internalType": "address"
        }
      ],
      "anonymous": false
    },
    {
      "type": "event",
      "name": "OracleAdapterUpdated",
      "inputs": [
        {
          "name": "oldOracleAdapter",
          "type": "address",
          "indexed": true,
          "internalType": "address"
        },
        {
          "name": "newOracleAdapter",
          "type": "address",
          "indexed": true,
          "internalType": "address"
        }
      ],
      "anonymous": false
    },
    {
      "type": "event",
      "name": "OwnershipTransferred",
      "inputs": [
        {
          "name": "previousOwner",
          "type": "address",
          "indexed": true,
          "internalType": "address"
        },
        {
          "name": "newOwner",
          "type": "address",
          "indexed": true,
          "internalType": "address"
        }
      ],
      "anonymous": false
    },
    {
      "type": "event",
      "name": "ProtocolFeeRecipientUpdated",
      "inputs": [
        {
          "name": "oldRecipient",
          "type": "address",
          "indexed": true,
          "internalType": "address"
        },
        {
          "name": "newRecipient",
          "type": "address",
          "indexed": true,
          "internalType": "address"
        }
      ],
      "anonymous": false
    },
    {
      "type": "event",
      "name": "ProtocolFeeUpdated",
      "inputs": [
        {
          "name": "oldFee",
          "type": "uint256",
          "indexed": false,
          "internalType": "uint256"
        },
        {
          "name": "newFee",
          "type": "uint256",
          "indexed": false,
          "internalType": "uint256"
        }
      ],
      "anonymous": false
    },
    {
      "type": "event",
      "name": "RebalanceIncentiveUpdated",
      "inputs": [
        {
          "name": "oldIncentive",
          "type": "uint256",
          "indexed": false,
          "internalType": "uint256"
        },
        {
          "name": "newIncentive",
          "type": "uint256",
          "indexed": false,
          "internalType": "uint256"
        }
      ],
      "anonymous": false
    },
    {
      "type": "event",
      "name": "RebalanceThresholdUpdated",
      "inputs": [
        {
          "name": "oldThresholdAbove",
          "type": "uint256",
          "indexed": false,
          "internalType": "uint256"
        },
        {
          "name": "oldThresholdBelow",
          "type": "uint256",
          "indexed": false,
          "internalType": "uint256"
        },
        {
          "name": "newThresholdAbove",
          "type": "uint256",
          "indexed": false,
          "internalType": "uint256"
        },
        {
          "name": "newThresholdBelow",
          "type": "uint256",
          "indexed": false,
          "internalType": "uint256"
        }
      ],
      "anonymous": false
    },
    {
      "type": "event",
      "name": "Rebalanced",
      "inputs": [
        {
          "name": "sender",
          "type": "address",
          "indexed": true,
          "internalType": "address"
        },
        {
          "name": "priceDifferenceBefore",
          "type": "uint256",
          "indexed": false,
          "internalType": "uint256"
        },
        {
          "name": "priceDifferenceAfter",
          "type": "uint256",
          "indexed": false,
          "internalType": "uint256"
        }
      ],
      "anonymous": false
    },
    {
      "type": "event",
      "name": "ReferenceRateFeedIDUpdated",
      "inputs": [
        {
          "name": "oldRateFeedID",
          "type": "address",
          "indexed": true,
          "internalType": "address"
        },
        {
          "name": "newRateFeedID",
          "type": "address",
          "indexed": true,
          "internalType": "address"
        }
      ],
      "anonymous": false
    },
    {
      "type": "event",
      "name": "Swap",
      "inputs": [
        {
          "name": "sender",
          "type": "address",
          "indexed": true,
          "internalType": "address"
        },
        {
          "name": "amount0In",
          "type": "uint256",
          "indexed": false,
          "internalType": "uint256"
        },
        {
          "name": "amount1In",
          "type": "uint256",
          "indexed": false,
          "internalType": "uint256"
        },
        {
          "name": "amount0Out",
          "type": "uint256",
          "indexed": false,
          "internalType": "uint256"
        },
        {
          "name": "amount1Out",
          "type": "uint256",
          "indexed": false,
          "internalType": "uint256"
        },
        {
          "name": "to",
          "type": "address",
          "indexed": true,
          "internalType": "address"
        }
      ],
      "anonymous": false
    },
    {
      "type": "event",
      "name": "TradingLimitConfigured",
      "inputs": [
        {
          "name": "token",
          "type": "address",
          "indexed": true,
          "internalType": "address"
        },
        {
          "name": "config",
          "type": "tuple",
          "indexed": false,
          "internalType": "struct ITradingLimitsV2.Config",
          "components": [
            {
              "name": "limit0",
              "type": "int120",
              "internalType": "int120"
            },
            {
              "name": "limit1",
              "type": "int120",
              "internalType": "int120"
            },
            {
              "name": "decimals",
              "type": "uint8",
              "internalType": "uint8"
            }
          ]
        }
      ],
      "anonymous": false
    },
    {
      "type": "event",
      "name": "Transfer",
      "inputs": [
        {
          "name": "from",
          "type": "address",
          "indexed": true,
          "internalType": "address"
        },
        {
          "name": "to",
          "type": "address",
          "indexed": true,
          "internalType": "address"
        },
        {
          "name": "value",
          "type": "uint256",
          "indexed": false,
          "internalType": "uint256"
        }
      ],
      "anonymous": false
    },
    {
      "type": "event",
      "name": "UpdateReserves",
      "inputs": [
        {
          "name": "reserve0",
          "type": "uint256",
          "indexed": false,
          "internalType": "uint256"
        },
        {
          "name": "reserve1",
          "type": "uint256",
          "indexed": false,
          "internalType": "uint256"
        },
        {
          "name": "blockTimestamp",
          "type": "uint256",
          "indexed": false,
          "internalType": "uint256"
        }
      ],
      "anonymous": false
    },
    {
      "type": "error",
      "name": "FeeTooHigh",
      "inputs": []
    },
    {
      "type": "error",
      "name": "InsufficientAmount0In",
      "inputs": []
    },
    {
      "type": "error",
      "name": "InsufficientAmount1In",
      "inputs": []
    },
    {
      "type": "error",
      "name": "InsufficientInputAmount",
      "inputs": []
    },
    {
      "type": "error",
      "name": "InsufficientLiquidity",
      "inputs": []
    },
    {
      "type": "error",
      "name": "InsufficientLiquidityBurned",
      "inputs": []
    },
    {
      "type": "error",
      "name": "InsufficientLiquidityMinted",
      "inputs": []
    },
    {
      "type": "error",
      "name": "InsufficientOutputAmount",
      "inputs": []
    },
    {
      "type": "error",
      "name": "Int96AdditionOverflow",
      "inputs": []
    },
    {
      "type": "error",
      "name": "InvalidDecimals",
      "inputs": []
    },
    {
      "type": "error",
      "name": "InvalidToAddress",
      "inputs": []
    },
    {
      "type": "error",
      "name": "InvalidToken",
      "inputs": []
    },
    {
      "type": "error",
      "name": "InvalidTokenDecimals",
      "inputs": []
    },
    {
      "type": "error",
      "name": "L0LimitExceeded",
      "inputs": []
    },
    {
      "type": "error",
      "name": "L1LimitExceeded",
      "inputs": []
    },
    {
      "type": "error",
      "name": "Limit1MustBeGreaterThanLimit0",
      "inputs": []
    },
    {
      "type": "error",
      "name": "LimitDoesNotFitInInt120",
      "inputs": []
    },
    {
      "type": "error",
      "name": "NotFeeSetter",
      "inputs": []
    },
    {
      "type": "error",
      "name": "NotLiquidityStrategy",
      "inputs": []
    },
    {
      "type": "error",
      "name": "OneOutputAmountRequired",
      "inputs": []
    },
    {
      "type": "error",
      "name": "PriceDifferenceMovedInWrongDirection",
      "inputs": []
    },
    {
      "type": "error",
      "name": "PriceDifferenceMovedTooFarFromThresholds",
      "inputs": []
    },
    {
      "type": "error",
      "name": "PriceDifferenceNotImproved",
      "inputs": []
    },
    {
      "type": "error",
      "name": "PriceDifferenceTooSmall",
      "inputs": []
    },
    {
      "type": "error",
      "name": "ProtocolFeeRecipientRequired",
      "inputs": []
    },
    {
      "type": "error",
      "name": "RebalanceDirectionInvalid",
      "inputs": []
    },
    {
      "type": "error",
      "name": "RebalanceIncentiveTooHigh",
      "inputs": []
    },
    {
      "type": "error",
      "name": "RebalanceThresholdTooHigh",
      "inputs": []
    },
    {
      "type": "error",
      "name": "ReferenceRateNotSet",
      "inputs": []
    },
    {
      "type": "error",
      "name": "ReserveValueDecreased",
      "inputs": []
    },
    {
      "type": "error",
      "name": "ReservesEmpty",
      "inputs": []
    },
    {
      "type": "error",
      "name": "ValueExceedsInt96Bounds",
      "inputs": []
    },
    {
      "type": "error",
      "name": "ZeroAddress",
      "inputs": []
    }
  ],
  "bytecode": {
    "object": "0x608060405234801562000010575f80fd5b50604051620084cb380380620084cb833981810160405281019062000036919062000157565b80156200004e576200004d6200005560201b60201c565b5b5062000263565b5f60019054906101000a900460ff1615620000a7576040517f08c379a00000000000000000000000000000000000000000000000000000000081526004016200009e906200020b565b60405180910390fd5b60ff80165f8054906101000a900460ff1660ff161015620001175760ff5f806101000a81548160ff021916908360ff1602179055507f7f26b83ff96e1f2b6a682f133852f6798a09c465da95921460cefb384740249860ff6040516200010e919062000248565b60405180910390a15b565b5f80fd5b5f8115159050919050565b62000133816200011d565b81146200013e575f80fd5b50565b5f81519050620001518162000128565b92915050565b5f602082840312156200016f576200016e62000119565b5b5f6200017e8482850162000141565b91505092915050565b5f82825260208201905092915050565b7f496e697469616c697a61626c653a20636f6e747261637420697320696e6974695f8201527f616c697a696e6700000000000000000000000000000000000000000000000000602082015250565b5f620001f360278362000187565b9150620002008262000197565b604082019050919050565b5f6020820190508181035f8301526200022481620001e5565b9050919050565b5f60ff82169050919050565b62000242816200022b565b82525050565b5f6020820190506200025d5f83018462000237565b92915050565b61825a80620002715f395ff3fe608060405234801561000f575f80fd5b5060043610610381575f3560e01c80638da5cb5b116101dc578063c6bf34201161010d578063dd62ed3e116100ab578063edb6d0751161007a578063edb6d07514610a63578063f140a35a14610a7f578063f2fde38b14610aaf578063fb1a637514610acb57610381565b8063dd62ed3e146109dd578063e4da518a14610a0d578063e521cb9214610a29578063ea9274b814610a4557610381565b8063cfa498a3116100e7578063cfa498a314610967578063d21220a714610985578063d4ac7353146109a3578063da7ddb8f146109c157610381565b8063c6bf3420146108ff578063cce441a31461091b578063ce746e661461093757610381565b8063a9059cbb1161017a578063ba9a7a5611610154578063ba9a7a561461088b578063c20a9ca5146108a9578063c5700a02146108c5578063c60801b7146108e357610381565b8063a9059cbb14610821578063b0e21e8a14610851578063b19805af1461086f57610381565b806396cd3bce116101b657806396cd3bce146107985780639d63848a146107b4578063a28af8a4146107d3578063a457c2d7146107f157610381565b80638da5cb5b1461073857806393965ec91461075657806395d89b411461077a57610381565b806356bd16ab116102b6578063704ce43e11610254578063787dce3d1161022e578063787dce3d146106af5780637bdd6b44146106cb57806387cf3ef4146106e957806389afcb441461070757610381565b8063704ce43e1461065757806370a0823114610675578063715018a6146106a557610381565b80636391f7db116102905780636391f7db146105bc57806363e979c1146105ed57806364df049e146106095780636a6278421461062757610381565b806356bd16ab146105625780635a76f25e146105805780635ca0c5781461059e57610381565b806323b872dd1161032357806339509351116102fd57806339509351146104da5780633d9f31631461050a578063443cb4bc1461052857806353cb6a5e1461054657610381565b806323b872dd14610469578063313ce56714610499578063392f37e9146104b757610381565b8063095ea7b31161035f578063095ea7b3146103df5780630c99c0841461040f5780630dfe16811461042d57806318160ddd1461044b57610381565b8063022c0d9f1461038557806306fdde03146103a15780630902f1ac146103bf575b5f80fd5b61039f600480360381019061039a9190616423565b610ae9565b005b6103a961112e565b6040516103b69190616531565b60405180910390f35b6103c76111be565b6040516103d693929190616560565b60405180910390f35b6103f960048036038101906103f49190616595565b6111e7565b60405161040691906165ed565b60405180910390f35b610417611209565b6040516104249190616606565b60405180910390f35b610435611220565b604051610442919061662e565b60405180910390f35b610453611255565b6040516104609190616606565b60405180910390f35b610483600480360381019061047e9190616647565b61125e565b60405161049091906165ed565b60405180910390f35b6104a161128c565b6040516104ae91906166b2565b60405180910390f35b6104bf611294565b6040516104d1969594939291906166cb565b60405180910390f35b6104f460048036038101906104ef9190616595565b611315565b60405161050191906165ed565b60405180910390f35b61051261134b565b60405161051f9190616785565b60405180910390f35b610530611381565b60405161053d9190616606565b60405180910390f35b610560600480360381019061055b919061679e565b611398565b005b61056a611511565b6040516105779190616606565b60405180910390f35b610588611528565b6040516105959190616606565b60405180910390f35b6105a661153f565b6040516105b39190616606565b60405180910390f35b6105d660048036038101906105d191906167c9565b611543565b6040516105e49291906168ea565b60405180910390f35b6106076004803603810190610602919061679e565b6117b9565b005b610611611923565b60405161061e919061662e565b60405180910390f35b610641600480360381019061063c91906167c9565b611959565b60405161064e9190616606565b60405180910390f35b61065f611c1f565b60405161066c9190616606565b60405180910390f35b61068f600480360381019061068a91906167c9565b611c36565b60405161069c9190616606565b60405180910390f35b6106ad611c7c565b005b6106c960048036038101906106c4919061679e565b611c8f565b005b6106d3611e9c565b6040516106e09190616606565b60405180910390f35b6106f1611eb3565b6040516106fe919061662e565b60405180910390f35b610721600480360381019061071c91906167c9565b611ee9565b60405161072f929190616911565b60405180910390f35b6107406121ef565b60405161074d919061662e565b60405180910390f35b61075e612217565b6040516107719796959493929190616954565b60405180910390f35b61078261224b565b60405161078f9190616531565b60405180910390f35b6107b260048036038101906107ad91906169eb565b6122db565b005b6107bc61235c565b6040516107ca929190616a16565b60405180910390f35b6107db6123b9565b6040516107e89190616606565b60405180910390f35b61080b60048036038101906108069190616595565b6123d0565b60405161081891906165ed565b60405180910390f35b61083b60048036038101906108369190616595565b612445565b60405161084891906165ed565b60405180910390f35b610859612467565b6040516108669190616606565b60405180910390f35b610889600480360381019061088491906167c9565b61247e565b005b610893612559565b6040516108a09190616606565b60405180910390f35b6108c360048036038101906108be9190616a5f565b61255f565b005b6108cd612a8e565b6040516108da9190616606565b60405180910390f35b6108fd60048036038101906108f89190616afd565b612aa5565b005b61091960048036038101906109149190616b6e565b613049565b005b61093560048036038101906109309190616bac565b61313a565b005b610951600480360381019061094c91906167c9565b61325b565b60405161095e91906165ed565b60405180910390f35b61096f6132bb565b60405161097c9190616606565b60405180910390f35b61098d6132c1565b60405161099a919061662e565b60405180910390f35b6109ab6132f7565b6040516109b89190616606565b60405180910390f35b6109db60048036038101906109d69190616bea565b61330e565b005b6109f760048036038101906109f29190616c3a565b6138b1565b604051610a049190616606565b60405180910390f35b610a276004803603810190610a2291906167c9565b613933565b005b610a436004803603810190610a3e91906167c9565b613a73565b005b610a4d613bb3565b604051610a5a91906165ed565b60405180910390f35b610a7d6004803603810190610a7891906167c9565b613bd7565b005b610a996004803603810190610a949190616c78565b613d17565b604051610aa69190616606565b60405180910390f35b610ac96004803603810190610ac491906167c9565b613f02565b005b610ad3613f84565b604051610ae0919061662e565b60405180910390f35b610af1613fba565b5f610afa614009565b90505f86148015610b0a57505f85145b15610b41576040517f42301c2300000000000000000000000000000000000000000000000000000000815260040160405180910390fd5b806004015486101580610b58575080600501548510155b15610b8f576040517fbb55fd2700000000000000000000000000000000000000000000000000000000815260040160405180910390fd5b805f015f9054906101000a900473ffffffffffffffffffffffffffffffffffffffff1673ffffffffffffffffffffffffffffffffffffffff168473ffffffffffffffffffffffffffffffffffffffff161480610c395750806001015f9054906101000a900473ffffffffffffffffffffffffffffffffffffffff1673ffffffffffffffffffffffffffffffffffffffff168473ffffffffffffffffffffffffffffffffffffffff16145b15610c70576040517f8aa3a72f00000000000000000000000000000000000000000000000000000000815260040160405180910390fd5b610c78616276565b868160c0018181525050858160e0018181525050610c94614030565b825f018360200182815250828152505050610cc082600401548360050154835f01518460200151614129565b8160400181815250505f871115610d1f57610d1e8588845f015f9054906101000a900473ffffffffffffffffffffffffffffffffffffffff1673ffffffffffffffffffffffffffffffffffffffff1661418e9092919063ffffffff16565b5b5f861115610d7657610d758587846001015f9054906101000a900473ffffffffffffffffffffffffffffffffffffffff1673ffffffffffffffffffffffffffffffffffffffff1661418e9092919063ffffffff16565b5b5f848490501115610df0578473ffffffffffffffffffffffffffffffffffffffff16639a7bff7933898988886040518663ffffffff1660e01b8152600401610dc2959493929190616d00565b5f604051808303815f87803b158015610dd9575f80fd5b505af1158015610deb573d5f803e3d5ffd5b505050505b815f015f9054906101000a900473ffffffffffffffffffffffffffffffffffffffff1673ffffffffffffffffffffffffffffffffffffffff166370a08231306040518263ffffffff1660e01b8152600401610e4b919061662e565b602060405180830381865afa158015610e66573d5f803e3d5ffd5b505050506040513d601f19601f82011682018060405250810190610e8a9190616d60565b81610100018181525050816001015f9054906101000a900473ffffffffffffffffffffffffffffffffffffffff1673ffffffffffffffffffffffffffffffffffffffff166370a08231306040518263ffffffff1660e01b8152600401610ef0919061662e565b602060405180830381865afa158015610f0b573d5f803e3d5ffd5b505050506040513d601f19601f82011682018060405250810190610f2f9190616d60565b81610120018181525050868260040154610f499190616db8565b81610100015111610f5a575f610f7b565b868260040154610f6a9190616db8565b816101000151610f7a9190616db8565b5b816080018181525050858260050154610f949190616db8565b81610120015111610fa5575f610fc6565b858260050154610fb59190616db8565b816101200151610fc59190616db8565b5b8160a00181815250505f8160800151148015610fe557505f8160a00151145b1561101c576040517f098fb56100000000000000000000000000000000000000000000000000000000815260040160405180910390fd5b61102581614214565b61103781608001518260a0015161434f565b61103f6144a4565b611074825f015f9054906101000a900473ffffffffffffffffffffffffffffffffffffffff1682608001518360c00151614647565b6110aa826001015f9054906101000a900473ffffffffffffffffffffffffffffffffffffffff168260a001518360e00151614647565b8473ffffffffffffffffffffffffffffffffffffffff163373ffffffffffffffffffffffffffffffffffffffff167fd78ad95fa46c994b6551d0da85fc275fe613ce37657fb8d5e3d130840159d82283608001518460a001518b8b6040516111159493929190616deb565b60405180910390a350506111276148cb565b5050505050565b60606068805461113d90616e5b565b80601f016020809104026020016040519081016040528092919081815260200182805461116990616e5b565b80156111b45780601f1061118b576101008083540402835291602001916111b4565b820191905f5260205f20905b81548152906001019060200180831161119757829003601f168201915b5050505050905090565b5f805f806111ca614009565b905080600401549350806005015492508060060154915050909192565b5f806111f16148d4565b90506111fe8185856148db565b600191505092915050565b5f80611213614009565b905080600f015491505090565b5f8061122a614009565b9050805f015f9054906101000a900473ffffffffffffffffffffffffffffffffffffffff1691505090565b5f606754905090565b5f806112686148d4565b9050611275858285614a9e565b611280858585614b29565b60019150509392505050565b5f6012905090565b5f805f805f805f6112a3614009565b90508060020154816003015482600401548360050154845f015f9054906101000a900473ffffffffffffffffffffffffffffffffffffffff16856001015f9054906101000a900473ffffffffffffffffffffffffffffffffffffffff1696509650965096509650965050909192939495565b5f8061131f6148d4565b905061134081858561133185896138b1565b61133b9190616e8b565b6148db565b600191505092915050565b5f80611355614009565b9050806007015f9054906101000a900473ffffffffffffffffffffffffffffffffffffffff1691505090565b5f8061138b614009565b9050806004015491505090565b5f6113a1614009565b90506113ab6121ef565b73ffffffffffffffffffffffffffffffffffffffff163373ffffffffffffffffffffffffffffffffffffffff1614158015611435575080600c015f9054906101000a900473ffffffffffffffffffffffffffffffffffffffff1673ffffffffffffffffffffffffffffffffffffffff163373ffffffffffffffffffffffffffffffffffffffff1614155b1561146c576040517fe4ed485700000000000000000000000000000000000000000000000000000000815260040160405180910390fd5b5f611475614009565b905060c881600a0154846114899190616e8b565b11156114c1576040517fcd4e616700000000000000000000000000000000000000000000000000000000815260040160405180910390fd5b5f816009015490508382600901819055507fb5d5dda8af4f1e40a5cc4aa66c39ca5aac7f90947261313b07527eb3bdd98bc78185604051611503929190616911565b60405180910390a150505050565b5f8061151b614009565b905080600e015491505090565b5f80611532614009565b9050806005015491505090565b5f81565b61154b6162c7565b6115536162ee565b5f61155c614009565b9050805f015f9054906101000a900473ffffffffffffffffffffffffffffffffffffffff1673ffffffffffffffffffffffffffffffffffffffff168473ffffffffffffffffffffffffffffffffffffffff161415801561160b5750806001015f9054906101000a900473ffffffffffffffffffffffffffffffffffffffff1673ffffffffffffffffffffffffffffffffffffffff168473ffffffffffffffffffffffffffffffffffffffff1614155b15611642576040517fc1ab6dc100000000000000000000000000000000000000000000000000000000815260040160405180910390fd5b806011015f8573ffffffffffffffffffffffffffffffffffffffff1673ffffffffffffffffffffffffffffffffffffffff1681526020019081526020015f206001016040518060600160405290815f82015f9054906101000a9004600e0b600e0b600e0b81526020015f8201600f9054906101000a9004600e0b600e0b600e0b81526020015f8201601e9054906101000a900460ff1660ff1660ff16815250509250806011015f8573ffffffffffffffffffffffffffffffffffffffff1673ffffffffffffffffffffffffffffffffffffffff1681526020019081526020015f205f016040518060800160405290815f82015f9054906101000a900463ffffffff1663ffffffff1663ffffffff1681526020015f820160049054906101000a900463ffffffff1663ffffffff1663ffffffff1681526020015f820160089054906101000a9004600b0b600b0b600b0b81526020015f820160149054906101000a9004600b0b600b0b600b0b81525050915050915091565b5f6117c2614009565b90506117cc6121ef565b73ffffffffffffffffffffffffffffffffffffffff163373ffffffffffffffffffffffffffffffffffffffff1614158015611856575080600c015f9054906101000a900473ffffffffffffffffffffffffffffffffffffffff1673ffffffffffffffffffffffffffffffffffffffff163373ffffffffffffffffffffffffffffffffffffffff1614155b1561188d576040517fe4ed485700000000000000000000000000000000000000000000000000000000815260040160405180910390fd5b5f611896614009565b905060648311156118d3576040517f712202ab00000000000000000000000000000000000000000000000000000000815260040160405180910390fd5b5f81600d015490508382600d01819055507fb273226859e3e49fd86c9ac8f721eaa74e677de0877db704918e0f43ec8d23bc8185604051611915929190616911565b60405180910390a150505050565b5f8061192d614009565b905080600b015f9054906101000a900473ffffffffffffffffffffffffffffffffffffffff1691505090565b5f611962613fba565b5f61196b614009565b90505f815f015f9054906101000a900473ffffffffffffffffffffffffffffffffffffffff1673ffffffffffffffffffffffffffffffffffffffff166370a08231306040518263ffffffff1660e01b81526004016119c9919061662e565b602060405180830381865afa1580156119e4573d5f803e3d5ffd5b505050506040513d601f19601f82011682018060405250810190611a089190616d60565b90505f826001015f9054906101000a900473ffffffffffffffffffffffffffffffffffffffff1673ffffffffffffffffffffffffffffffffffffffff166370a08231306040518263ffffffff1660e01b8152600401611a67919061662e565b602060405180830381865afa158015611a82573d5f803e3d5ffd5b505050506040513d601f19601f82011682018060405250810190611aa69190616d60565b90505f836004015483611ab99190616db8565b90505f846005015483611acc9190616db8565b90505f611ad7611255565b90505f8103611b15576103e8611af78385611af29190616ebe565b614d98565b611b019190616db8565b9650611b1060016103e8614e8e565b611b56565b611b5386600401548285611b299190616ebe565b611b339190616f2c565b87600501548385611b449190616ebe565b611b4e9190616f2c565b614fdd565b96505b6103e88711611b91576040517fd226f9d400000000000000000000000000000000000000000000000000000000815260040160405180910390fd5b611b9b8888614e8e565b611ba36144a4565b8773ffffffffffffffffffffffffffffffffffffffff163373ffffffffffffffffffffffffffffffffffffffff167fa8137fff86647d8a402117b9c5dbda627f721d3773338fb9678c83e54ed3908085858b604051611c0493929190616560565b60405180910390a3505050505050611c1a6148cb565b919050565b5f80611c29614009565b9050806009015491505090565b5f60655f8373ffffffffffffffffffffffffffffffffffffffff1673ffffffffffffffffffffffffffffffffffffffff1681526020019081526020015f20549050919050565b611c84614ff5565b611c8d5f615073565b565b5f611c98614009565b9050611ca26121ef565b73ffffffffffffffffffffffffffffffffffffffff163373ffffffffffffffffffffffffffffffffffffffff1614158015611d2c575080600c015f9054906101000a900473ffffffffffffffffffffffffffffffffffffffff1673ffffffffffffffffffffffffffffffffffffffff163373ffffffffffffffffffffffffffffffffffffffff1614155b15611d63576040517fe4ed485700000000000000000000000000000000000000000000000000000000815260040160405180910390fd5b5f611d6c614009565b90505f83118015611dcb57505f73ffffffffffffffffffffffffffffffffffffffff1681600b015f9054906101000a900473ffffffffffffffffffffffffffffffffffffffff1673ffffffffffffffffffffffffffffffffffffffff16145b15611e02576040517f84247ce200000000000000000000000000000000000000000000000000000000815260040160405180910390fd5b60c8816009015484611e149190616e8b565b1115611e4c576040517fcd4e616700000000000000000000000000000000000000000000000000000000815260040160405180910390fd5b5f81600a015490508382600a01819055507fb404cac19fb1cbeff98d325795b08886e3cd8fe8cb1a2f193aac66f13fb239c38185604051611e8e929190616911565b60405180910390a150505050565b5f80611ea6614009565b9050806002015491505090565b5f80611ebd614009565b905080600c015f9054906101000a900473ffffffffffffffffffffffffffffffffffffffff1691505090565b5f80611ef3613fba565b5f611efc614009565b90505f815f015f9054906101000a900473ffffffffffffffffffffffffffffffffffffffff1673ffffffffffffffffffffffffffffffffffffffff166370a08231306040518263ffffffff1660e01b8152600401611f5a919061662e565b602060405180830381865afa158015611f75573d5f803e3d5ffd5b505050506040513d601f19601f82011682018060405250810190611f999190616d60565b90505f826001015f9054906101000a900473ffffffffffffffffffffffffffffffffffffffff1673ffffffffffffffffffffffffffffffffffffffff166370a08231306040518263ffffffff1660e01b8152600401611ff8919061662e565b602060405180830381865afa158015612013573d5f803e3d5ffd5b505050506040513d601f19601f820116820180604052508101906120379190616d60565b90505f61204330611c36565b90505f61204e611255565b905080848361205d9190616ebe565b6120679190616f2c565b96508083836120769190616ebe565b6120809190616f2c565b95505f8714801561209057505f86145b156120c7576040517f749383ad00000000000000000000000000000000000000000000000000000000815260040160405180910390fd5b6120d13083615136565b61211e8888875f015f9054906101000a900473ffffffffffffffffffffffffffffffffffffffff1673ffffffffffffffffffffffffffffffffffffffff1661418e9092919063ffffffff16565b61216c8887876001015f9054906101000a900473ffffffffffffffffffffffffffffffffffffffff1673ffffffffffffffffffffffffffffffffffffffff1661418e9092919063ffffffff16565b6121746144a4565b8773ffffffffffffffffffffffffffffffffffffffff163373ffffffffffffffffffffffffffffffffffffffff167fd175a80c109434bb89948928ab2475a6647c94244cb70002197896423c8833638989866040516121d593929190616560565b60405180910390a350505050506121ea6148cb565b915091565b5f60975f9054906101000a900473ffffffffffffffffffffffffffffffffffffffff16905090565b5f805f805f805f6122266152fb565b809750819850829950839a50849b50859c50869d505050505050505090919293949596565b60606069805461225a90616e5b565b80601f016020809104026020016040519081016040528092919081815260200182805461228690616e5b565b80156122d15780601f106122a8576101008083540402835291602001916122d1565b820191905f5260205f20905b8154815290600101906020018083116122b457829003601f168201915b5050505050905090565b6122e3614ff5565b5f6122ec614009565b90505f8160070160149054906101000a900460ff169050828260070160146101000a81548160ff0219169083151502179055507eaf8726a3679feb41b28b0996e403259aceb28ec6f3c6c3dc7a4c4fe6c8fce1818460405161234f929190616f5c565b60405180910390a1505050565b5f805f612367614009565b9050805f015f9054906101000a900473ffffffffffffffffffffffffffffffffffffffff16816001015f9054906101000a900473ffffffffffffffffffffffffffffffffffffffff1692509250509091565b5f806123c3614009565b9050806003015491505090565b5f806123da6148d4565b90505f6123e782866138b1565b90508381101561242c576040517f08c379a000000000000000000000000000000000000000000000000000000000815260040161242390616ff3565b60405180910390fd5b61243982868684036148db565b60019250505092915050565b5f8061244f6148d4565b905061245c818585614b29565b600191505092915050565b5f80612471614009565b905080600a015491505090565b612486614ff5565b5f61248f614009565b90505f81600c015f9054906101000a900473ffffffffffffffffffffffffffffffffffffffff1690508282600c015f6101000a81548173ffffffffffffffffffffffffffffffffffffffff021916908373ffffffffffffffffffffffffffffffffffffffff1602179055508273ffffffffffffffffffffffffffffffffffffffff168173ffffffffffffffffffffffffffffffffffffffff167f83b887657b0e2cbbed6d7b9468d78fe27ce257d950e1c7e36572b3a24f82e41c60405160405180910390a3505050565b6103e881565b5f8060019054906101000a900460ff1615905080801561258e575060015f8054906101000a900460ff1660ff16105b806125ba575061259d30615478565b1580156125b9575060015f8054906101000a900460ff1660ff16145b5b6125f9576040517f08c379a00000000000000000000000000000000000000000000000000000000081526004016125f090617081565b60405180910390fd5b60015f806101000a81548160ff021916908360ff16021790555080156126345760015f60016101000a81548160ff0219169083151502179055505b5f61263d614009565b905088815f015f6101000a81548173ffffffffffffffffffffffffffffffffffffffff021916908373ffffffffffffffffffffffffffffffffffffffff16021790555087816001015f6101000a81548173ffffffffffffffffffffffffffffffffffffffff021916908373ffffffffffffffffffffffffffffffffffffffff1602179055505f8973ffffffffffffffffffffffffffffffffffffffff166395d89b416040518163ffffffff1660e01b81526004015f60405180830381865afa15801561270b573d5f803e3d5ffd5b505050506040513d5f823e3d601f19601f8201168201806040525081019061273391906171b9565b90505f8973ffffffffffffffffffffffffffffffffffffffff166395d89b416040518163ffffffff1660e01b81526004015f60405180830381865afa15801561277e573d5f803e3d5ffd5b505050506040513d5f823e3d601f19601f820116820180604052508101906127a691906171b9565b90505f82826040516020016127bc9291906172ce565b60405160208183030381529060405290505f83836040516020016127e1929190617351565b60405160208183030381529060405290506127fc828261549a565b6128046154f6565b5f8d73ffffffffffffffffffffffffffffffffffffffff1663313ce5676040518163ffffffff1660e01b8152600401602060405180830381865afa15801561284e573d5f803e3d5ffd5b505050506040513d601f19601f8201168201806040525081019061287291906173b4565b90505f8d73ffffffffffffffffffffffffffffffffffffffff1663313ce5676040518163ffffffff1660e01b8152600401602060405180830381865afa1580156128be573d5f803e3d5ffd5b505050506040513d601f19601f820116820180604052508101906128e291906173b4565b905060128260ff1611806128f9575060128160ff16115b15612930576040517f686d360700000000000000000000000000000000000000000000000000000000815260040160405180910390fd5b81600a61293d919061750e565b876002018190555080600a612952919061750e565b876003018190555088606001602081019061296d91906167c9565b87600c015f6101000a81548173ffffffffffffffffffffffffffffffffffffffff021916908373ffffffffffffffffffffffffffffffffffffffff1602179055506129ba895f0135611398565b6129d58960400160208101906129d091906167c9565b613a73565b6129e28960200135611c8f565b6129ef89608001356117b9565b612a018960a001358a60c00135613049565b612a0a8d613bd7565b612a138c613933565b612a1c8b6122db565b612a258a613f02565b505050505050508015612a84575f8060016101000a81548160ff0219169083151502179055507f7f26b83ff96e1f2b6a682f133852f6798a09c465da95921460cefb38474024986001604051612a7b9190617591565b60405180910390a15b5050505050505050565b5f80612a98614009565b9050806006015491505090565b612aad613fba565b612ab56144a4565b5f612abe614009565b9050806010015f3373ffffffffffffffffffffffffffffffffffffffff1673ffffffffffffffffffffffffffffffffffffffff1681526020019081526020015f205f9054906101000a900460ff16612b42576040517fec102cfc00000000000000000000000000000000000000000000000000000000815260040160405180910390fd5b5f841115155f8611151503612b83576040517f5747f31500000000000000000000000000000000000000000000000000000000815260040160405180910390fd5b806004015485101580612b9a575080600501548410155b15612bd1576040517fbb55fd2700000000000000000000000000000000000000000000000000000000815260040160405180910390fd5b612bd9616276565b858160c0018181525050848160e00181815250505f612bf66152fb565b9091929350909192508161ffff169150865f0187602001886101400189606001848152508498508515151515815250858152508581525050505050508082606001511015612c70576040517f59658c6b00000000000000000000000000000000000000000000000000000000815260040160405180910390fd5b5f871115612cc657612cc53388855f015f9054906101000a900473ffffffffffffffffffffffffffffffffffffffff1673ffffffffffffffffffffffffffffffffffffffff1661418e9092919063ffffffff16565b5b5f861115612d1d57612d1c3387856001015f9054906101000a900473ffffffffffffffffffffffffffffffffffffffff1673ffffffffffffffffffffffffffffffffffffffff1661418e9092919063ffffffff16565b5b5f858590501115612d97573373ffffffffffffffffffffffffffffffffffffffff16638ae9126233898989896040518663ffffffff1660e01b8152600401612d69959493929190616d00565b5f604051808303815f87803b158015612d80575f80fd5b505af1158015612d92573d5f803e3d5ffd5b505050505b5f835f015f9054906101000a900473ffffffffffffffffffffffffffffffffffffffff1673ffffffffffffffffffffffffffffffffffffffff166370a08231306040518263ffffffff1660e01b8152600401612df3919061662e565b602060405180830381865afa158015612e0e573d5f803e3d5ffd5b505050506040513d601f19601f82011682018060405250810190612e329190616d60565b90505f846001015f9054906101000a900473ffffffffffffffffffffffffffffffffffffffff1673ffffffffffffffffffffffffffffffffffffffff166370a08231306040518263ffffffff1660e01b8152600401612e91919061662e565b602060405180830381865afa158015612eac573d5f803e3d5ffd5b505050506040513d601f19601f82011682018060405250810190612ed09190616d60565b90505f898660040154612ee39190616db8565b8311612eef575f612f0b565b898660040154612eff9190616db8565b83612f0a9190616db8565b5b90505f898760050154612f1e9190616db8565b8311612f2a575f612f46565b898760050154612f3a9190616db8565b83612f459190616db8565b5b90505f8b118015612f5657505f81115b8015612f6157505f82145b80612f8157505f8a118015612f7557505f82115b8015612f8057505f81145b5b612fb7576040517fe6fbd8e200000000000000000000000000000000000000000000000000000000815260040160405180910390fd5b81866080018181525050808660a0018181525050612fd36144a4565b5f612fdd8761554e565b90503373ffffffffffffffffffffffffffffffffffffffff167f3645b7cfbb41ac8e6dcc3c4877ede2c60b467a0374b7a7fc7563f0a09580999e88606001518360405161302b929190616911565b60405180910390a250505050505050506130436148cb565b50505050565b613051614ff5565b5f61305a614009565b9050612710831115613098576040517fdc8372e000000000000000000000000000000000000000000000000000000000815260040160405180910390fd5b6113888211156130d4576040517fdc8372e000000000000000000000000000000000000000000000000000000000815260040160405180910390fd5b5f81600e015490505f82600f015490508483600e01819055508383600f01819055507f77c5ddba87b3d3f970242eda9bb1263ade9e4aed3eca233d5fa1af00a574b0258282878760405161312b9493929190616deb565b60405180910390a15050505050565b613142614ff5565b5f73ffffffffffffffffffffffffffffffffffffffff168273ffffffffffffffffffffffffffffffffffffffff16036131a7576040517fd92e233d00000000000000000000000000000000000000000000000000000000815260040160405180910390fd5b5f6131b0614009565b905081816010015f8573ffffffffffffffffffffffffffffffffffffffff1673ffffffffffffffffffffffffffffffffffffffff1681526020019081526020015f205f6101000a81548160ff0219169083151502179055508273ffffffffffffffffffffffffffffffffffffffff167f133037347700fe9a7e5fffb139c832853fc52536035550fc6bc3b3f6207fd8758360405161324e91906165ed565b60405180910390a2505050565b5f80613265614009565b9050806010015f8473ffffffffffffffffffffffffffffffffffffffff1673ffffffffffffffffffffffffffffffffffffffff1681526020019081526020015f205f9054906101000a900460ff16915050919050565b61271081565b5f806132cb614009565b9050806001015f9054906101000a900473ffffffffffffffffffffffffffffffffffffffff1691505090565b5f80613301614009565b905080600d015491505090565b613316614ff5565b5f61331f614009565b9050805f015f9054906101000a900473ffffffffffffffffffffffffffffffffffffffff1673ffffffffffffffffffffffffffffffffffffffff168473ffffffffffffffffffffffffffffffffffffffff16141580156133ce5750806001015f9054906101000a900473ffffffffffffffffffffffffffffffffffffffff1673ffffffffffffffffffffffffffffffffffffffff168473ffffffffffffffffffffffffffffffffffffffff1614155b15613405576040517fc1ab6dc100000000000000000000000000000000000000000000000000000000815260040160405180910390fd5b61340d6162c7565b8473ffffffffffffffffffffffffffffffffffffffff1663313ce5676040518163ffffffff1660e01b8152600401602060405180830381865afa158015613456573d5f803e3d5ffd5b505050506040513d601f19601f8201168201806040525081019061347a91906173b4565b816040019060ff16908160ff16815250508060400151600a61349c919061750e565b66038d7ea4c68000856134af9190616ebe565b6134b99190616f2c565b93508060400151600a6134cc919061750e565b66038d7ea4c68000846134df9190616ebe565b6134e99190616f2c565b92506e7fffffffffffffffffffffffffffff6effffffffffffffffffffffffffffff1684118061353857506e7fffffffffffffffffffffffffffff6effffffffffffffffffffffffffffff1683115b1561356f576040517f85a45a4e00000000000000000000000000000000000000000000000000000000815260040160405180910390fd5b83815f0190600e0b9081600e0b81525050828160200190600e0b9081600e0b8152505061359b816157e1565b80826011015f8773ffffffffffffffffffffffffffffffffffffffff1673ffffffffffffffffffffffffffffffffffffffff1681526020019081526020015f206001015f820151815f015f6101000a8154816effffffffffffffffffffffffffffff0219169083600e0b6effffffffffffffffffffffffffffff1602179055506020820151815f01600f6101000a8154816effffffffffffffffffffffffffffff0219169083600e0b6effffffffffffffffffffffffffffff1602179055506040820151815f01601e6101000a81548160ff021916908360ff16021790555090505061375c81836011015f8873ffffffffffffffffffffffffffffffffffffffff1673ffffffffffffffffffffffffffffffffffffffff1681526020019081526020015f205f016040518060800160405290815f82015f9054906101000a900463ffffffff1663ffffffff1663ffffffff1681526020015f820160049054906101000a900463ffffffff1663ffffffff1663ffffffff1681526020015f820160089054906101000a9004600b0b600b0b600b0b81526020015f820160149054906101000a9004600b0b600b0b600b0b815250506158a290919063ffffffff16565b826011015f8773ffffffffffffffffffffffffffffffffffffffff1673ffffffffffffffffffffffffffffffffffffffff1681526020019081526020015f205f015f820151815f015f6101000a81548163ffffffff021916908363ffffffff1602179055506020820151815f0160046101000a81548163ffffffff021916908363ffffffff1602179055506040820151815f0160086101000a8154816bffffffffffffffffffffffff0219169083600b0b6bffffffffffffffffffffffff1602179055506060820151815f0160146101000a8154816bffffffffffffffffffffffff0219169083600b0b6bffffffffffffffffffffffff1602179055509050508473ffffffffffffffffffffffffffffffffffffffff167f0a59d45890c37e353ebb4ff4a00b4e5002b27b21e3a308daea7646097c12533f826040516138a291906175aa565b60405180910390a25050505050565b5f60665f8473ffffffffffffffffffffffffffffffffffffffff1673ffffffffffffffffffffffffffffffffffffffff1681526020019081526020015f205f8373ffffffffffffffffffffffffffffffffffffffff1673ffffffffffffffffffffffffffffffffffffffff1681526020019081526020015f2054905092915050565b61393b614ff5565b5f73ffffffffffffffffffffffffffffffffffffffff168173ffffffffffffffffffffffffffffffffffffffff16036139a0576040517fd92e233d00000000000000000000000000000000000000000000000000000000815260040160405180910390fd5b5f6139a9614009565b90505f816008015f9054906101000a900473ffffffffffffffffffffffffffffffffffffffff16905082826008015f6101000a81548173ffffffffffffffffffffffffffffffffffffffff021916908373ffffffffffffffffffffffffffffffffffffffff1602179055508273ffffffffffffffffffffffffffffffffffffffff168173ffffffffffffffffffffffffffffffffffffffff167fc1ba25a60afffd747fd25304e169131b7ae93932f7f3e508a8cec0e18fa1284260405160405180910390a3505050565b613a7b614ff5565b5f613a84614009565b90505f73ffffffffffffffffffffffffffffffffffffffff168273ffffffffffffffffffffffffffffffffffffffff1603613aeb576040517fd92e233d00000000000000000000000000000000000000000000000000000000815260040160405180910390fd5b5f81600b015f9054906101000a900473ffffffffffffffffffffffffffffffffffffffff1690508282600b015f6101000a81548173ffffffffffffffffffffffffffffffffffffffff021916908373ffffffffffffffffffffffffffffffffffffffff1602179055508273ffffffffffffffffffffffffffffffffffffffff168173ffffffffffffffffffffffffffffffffffffffff167fd3890fc76afcfc31cba1dcf2c27b50e2541e4d75039c981855b5b5e03682aea060405160405180910390a3505050565b5f80613bbd614009565b90508060070160149054906101000a900460ff1691505090565b613bdf614ff5565b5f73ffffffffffffffffffffffffffffffffffffffff168173ffffffffffffffffffffffffffffffffffffffff1603613c44576040517fd92e233d00000000000000000000000000000000000000000000000000000000815260040160405180910390fd5b5f613c4d614009565b90505f816007015f9054906101000a900473ffffffffffffffffffffffffffffffffffffffff16905082826007015f6101000a81548173ffffffffffffffffffffffffffffffffffffffff021916908373ffffffffffffffffffffffffffffffffffffffff1602179055508273ffffffffffffffffffffffffffffffffffffffff168173ffffffffffffffffffffffffffffffffffffffff167fe4630e6e66d263636ccf946c97182b0edb7bbea539a79dfa121bab7444e83b7960405160405180910390a3505050565b5f80613d21614009565b9050805f015f9054906101000a900473ffffffffffffffffffffffffffffffffffffffff1673ffffffffffffffffffffffffffffffffffffffff168373ffffffffffffffffffffffffffffffffffffffff1614158015613dd05750806001015f9054906101000a900473ffffffffffffffffffffffffffffffffffffffff1673ffffffffffffffffffffffffffffffffffffffff168373ffffffffffffffffffffffffffffffffffffffff1614155b15613e07576040517fc1ab6dc100000000000000000000000000000000000000000000000000000000815260040160405180910390fd5b5f8403613e17575f915050613efc565b5f80613e21614030565b91509150825f015f9054906101000a900473ffffffffffffffffffffffffffffffffffffffff1673ffffffffffffffffffffffffffffffffffffffff168573ffffffffffffffffffffffffffffffffffffffff1603613ebd57613eb38684600201548560030154858588600a01548960090154613e9e9190616e8b565b612710613eab9190616db8565b612710615923565b9350505050613efc565b613ef68684600301548560020154848688600a01548960090154613ee19190616e8b565b612710613eee9190616db8565b612710615923565b93505050505b92915050565b613f0a614ff5565b5f73ffffffffffffffffffffffffffffffffffffffff168173ffffffffffffffffffffffffffffffffffffffff1603613f78576040517f08c379a0000000000000000000000000000000000000000000000000000000008152600401613f6f90617633565b60405180910390fd5b613f8181615073565b50565b5f80613f8e614009565b9050806008015f9054906101000a900473ffffffffffffffffffffffffffffffffffffffff1691505090565b600260015403613fff576040517f08c379a0000000000000000000000000000000000000000000000000000000008152600401613ff69061769b565b60405180910390fd5b6002600181905550565b5f7fe40ad100017325097d9c1a3195cd4d2d97dcb316ccef4f208489777afd465d00905090565b5f805f61403b614009565b9050806007015f9054906101000a900473ffffffffffffffffffffffffffffffffffffffff1673ffffffffffffffffffffffffffffffffffffffff16631ceb4e14826008015f9054906101000a900473ffffffffffffffffffffffffffffffffffffffff166040518263ffffffff1660e01b81526004016140bc919061662e565b6040805180830381865afa1580156140d6573d5f803e3d5ffd5b505050506040513d601f19601f820116820180604052508101906140fa91906176b9565b80935081945050508060070160149054906101000a900460ff161561412457818380935081945050505b509091565b5f80614133614009565b90505f61414f878360020154670de0b6b3a76400008888615974565b90508160030154670de0b6b3a76400006141699190616f2c565b866141749190616ebe565b955085816141829190616e8b565b92505050949350505050565b61420f8363a9059cbb60e01b84846040516024016141ad9291906176f7565b604051602081830303815290604052907bffffffffffffffffffffffffffffffffffffffffffffffffffffffff19166020820180517bffffffffffffffffffffffffffffffffffffffffffffffffffffffff83818316178352505050506159ad565b505050565b5f61421d614009565b90505f61423d836101000151846101200151855f01518660200151614129565b90505f82600a015483600901546142549190616e8b565b90505f816127106142659190616db8565b828660c001516142759190616ebe565b61427f9190616f2c565b90505f826127106142909190616db8565b838760e001516142a09190616ebe565b6142aa9190616f2c565b90505f8560030154670de0b6b3a76400006142c59190616f2c565b826142e28589600201548a600301548c5f01518d60200151615974565b6142ec9190616e8b565b6142f69190616ebe565b90505f8188604001516143099190616e8b565b905080861015614345576040517f9340e53400000000000000000000000000000000000000000000000000000000815260040160405180910390fd5b5050505050505050565b5f614358614009565b90505f81600a015490505f81036143705750506144a0565b5f841115614406575f61271082866143889190616ebe565b6143929190616f2c565b905061440483600b015f9054906101000a900473ffffffffffffffffffffffffffffffffffffffff1682855f015f9054906101000a900473ffffffffffffffffffffffffffffffffffffffff1673ffffffffffffffffffffffffffffffffffffffff1661418e9092919063ffffffff16565b505b5f83111561449d575f612710828561441e9190616ebe565b6144289190616f2c565b905061449b83600b015f9054906101000a900473ffffffffffffffffffffffffffffffffffffffff1682856001015f9054906101000a900473ffffffffffffffffffffffffffffffffffffffff1673ffffffffffffffffffffffffffffffffffffffff1661418e9092919063ffffffff16565b505b50505b5050565b5f6144ad614009565b9050805f015f9054906101000a900473ffffffffffffffffffffffffffffffffffffffff1673ffffffffffffffffffffffffffffffffffffffff166370a08231306040518263ffffffff1660e01b815260040161450a919061662e565b602060405180830381865afa158015614525573d5f803e3d5ffd5b505050506040513d601f19601f820116820180604052508101906145499190616d60565b8160040181905550806001015f9054906101000a900473ffffffffffffffffffffffffffffffffffffffff1673ffffffffffffffffffffffffffffffffffffffff166370a08231306040518263ffffffff1660e01b81526004016145ad919061662e565b602060405180830381865afa1580156145c8573d5f803e3d5ffd5b505050506040513d601f19601f820116820180604052508101906145ec9190616d60565b81600501819055504281600601819055507ff71a0e183fe1c86e734de92237976be5699cb46fd28373d6ace2f8eafea2857c81600401548260050154836006015460405161463c93929190616560565b60405180910390a150565b5f614650614009565b90505f81600a015482600901546146679190616e8b565b90506147c4848483856011015f8a73ffffffffffffffffffffffffffffffffffffffff1673ffffffffffffffffffffffffffffffffffffffff1681526020019081526020015f206040518060400160405290815f82016040518060800160405290815f82015f9054906101000a900463ffffffff1663ffffffff1663ffffffff1681526020015f820160049054906101000a900463ffffffff1663ffffffff1663ffffffff1681526020015f820160089054906101000a9004600b0b600b0b600b0b81526020015f820160149054906101000a9004600b0b600b0b600b0b815250508152602001600182016040518060600160405290815f82015f9054906101000a9004600e0b600e0b600e0b81526020015f8201600f9054906101000a9004600e0b600e0b600e0b81526020015f8201601e9054906101000a900460ff1660ff1660ff168152505081525050615a72909392919063ffffffff16565b826011015f8773ffffffffffffffffffffffffffffffffffffffff1673ffffffffffffffffffffffffffffffffffffffff1681526020019081526020015f205f015f820151815f015f6101000a81548163ffffffff021916908363ffffffff1602179055506020820151815f0160046101000a81548163ffffffff021916908363ffffffff1602179055506040820151815f0160086101000a8154816bffffffffffffffffffffffff0219169083600b0b6bffffffffffffffffffffffff1602179055506060820151815f0160146101000a8154816bffffffffffffffffffffffff0219169083600b0b6bffffffffffffffffffffffff1602179055509050505050505050565b60018081905550565b5f33905090565b5f73ffffffffffffffffffffffffffffffffffffffff168373ffffffffffffffffffffffffffffffffffffffff1603614949576040517f08c379a00000000000000000000000000000000000000000000000000000000081526004016149409061778e565b60405180910390fd5b5f73ffffffffffffffffffffffffffffffffffffffff168273ffffffffffffffffffffffffffffffffffffffff16036149b7576040517f08c379a00000000000000000000000000000000000000000000000000000000081526004016149ae9061781c565b60405180910390fd5b8060665f8573ffffffffffffffffffffffffffffffffffffffff1673ffffffffffffffffffffffffffffffffffffffff1681526020019081526020015f205f8473ffffffffffffffffffffffffffffffffffffffff1673ffffffffffffffffffffffffffffffffffffffff1681526020019081526020015f20819055508173ffffffffffffffffffffffffffffffffffffffff168373ffffffffffffffffffffffffffffffffffffffff167f8c5be1e5ebec7d5bd14f71427d1e84f3dd0314c0f7b2291e5b200ac8c7c3b92583604051614a919190616606565b60405180910390a3505050565b5f614aa984846138b1565b90507fffffffffffffffffffffffffffffffffffffffffffffffffffffffffffffffff8114614b235781811015614b15576040517f08c379a0000000000000000000000000000000000000000000000000000000008152600401614b0c90617884565b60405180910390fd5b614b2284848484036148db565b5b50505050565b5f73ffffffffffffffffffffffffffffffffffffffff168373ffffffffffffffffffffffffffffffffffffffff1603614b97576040517f08c379a0000000000000000000000000000000000000000000000000000000008152600401614b8e90617912565b60405180910390fd5b5f73ffffffffffffffffffffffffffffffffffffffff168273ffffffffffffffffffffffffffffffffffffffff1603614c05576040517f08c379a0000000000000000000000000000000000000000000000000000000008152600401614bfc906179a0565b60405180910390fd5b614c10838383615bbe565b5f60655f8573ffffffffffffffffffffffffffffffffffffffff1673ffffffffffffffffffffffffffffffffffffffff1681526020019081526020015f2054905081811015614c94576040517f08c379a0000000000000000000000000000000000000000000000000000000008152600401614c8b90617a2e565b60405180910390fd5b81810360655f8673ffffffffffffffffffffffffffffffffffffffff1673ffffffffffffffffffffffffffffffffffffffff1681526020019081526020015f20819055508160655f8573ffffffffffffffffffffffffffffffffffffffff1673ffffffffffffffffffffffffffffffffffffffff1681526020019081526020015f205f82825401925050819055508273ffffffffffffffffffffffffffffffffffffffff168473ffffffffffffffffffffffffffffffffffffffff167fddf252ad1be2c89b69c2b068fc378daa952ba7f163c4a11628f55a4df523b3ef84604051614d7f9190616606565b60405180910390a3614d92848484615bc3565b50505050565b5f808203614da8575f9050614e89565b5f6001614db484615bc8565b901c6001901b90506001818481614dce57614dcd616eff565b5b048201901c90506001818481614de757614de6616eff565b5b048201901c90506001818481614e0057614dff616eff565b5b048201901c90506001818481614e1957614e18616eff565b5b048201901c90506001818481614e3257614e31616eff565b5b048201901c90506001818481614e4b57614e4a616eff565b5b048201901c90506001818481614e6457614e63616eff565b5b048201901c9050614e8581828581614e7f57614e7e616eff565b5b04614fdd565b9150505b919050565b5f73ffffffffffffffffffffffffffffffffffffffff168273ffffffffffffffffffffffffffffffffffffffff1603614efc576040517f08c379a0000000000000000000000000000000000000000000000000000000008152600401614ef390617a96565b60405180910390fd5b614f075f8383615bbe565b8060675f828254614f189190616e8b565b925050819055508060655f8473ffffffffffffffffffffffffffffffffffffffff1673ffffffffffffffffffffffffffffffffffffffff1681526020019081526020015f205f82825401925050819055508173ffffffffffffffffffffffffffffffffffffffff165f73ffffffffffffffffffffffffffffffffffffffff167fddf252ad1be2c89b69c2b068fc378daa952ba7f163c4a11628f55a4df523b3ef83604051614fc69190616606565b60405180910390a3614fd95f8383615bc3565b5050565b5f818310614feb5781614fed565b825b905092915050565b614ffd6148d4565b73ffffffffffffffffffffffffffffffffffffffff1661501b6121ef565b73ffffffffffffffffffffffffffffffffffffffff1614615071576040517f08c379a000000000000000000000000000000000000000000000000000000000815260040161506890617afe565b60405180910390fd5b565b5f60975f9054906101000a900473ffffffffffffffffffffffffffffffffffffffff1690508160975f6101000a81548173ffffffffffffffffffffffffffffffffffffffff021916908373ffffffffffffffffffffffffffffffffffffffff1602179055508173ffffffffffffffffffffffffffffffffffffffff168173ffffffffffffffffffffffffffffffffffffffff167f8be0079c531659141344cd1fd0a4f28419497f9722a3daafe3b4186f6b6457e060405160405180910390a35050565b5f73ffffffffffffffffffffffffffffffffffffffff168273ffffffffffffffffffffffffffffffffffffffff16036151a4576040517f08c379a000000000000000000000000000000000000000000000000000000000815260040161519b90617b8c565b60405180910390fd5b6151af825f83615bbe565b5f60655f8473ffffffffffffffffffffffffffffffffffffffff1673ffffffffffffffffffffffffffffffffffffffff1681526020019081526020015f2054905081811015615233576040517f08c379a000000000000000000000000000000000000000000000000000000000815260040161522a90617c1a565b60405180910390fd5b81810360655f8573ffffffffffffffffffffffffffffffffffffffff1673ffffffffffffffffffffffffffffffffffffffff1681526020019081526020015f20819055508160675f82825403925050819055505f73ffffffffffffffffffffffffffffffffffffffff168373ffffffffffffffffffffffffffffffffffffffff167fddf252ad1be2c89b69c2b068fc378daa952ba7f163c4a11628f55a4df523b3ef846040516152e39190616606565b60405180910390a36152f6835f84615bc3565b505050565b5f805f805f805f8061530b614009565b90505f73ffffffffffffffffffffffffffffffffffffffff16816008015f9054906101000a900473ffffffffffffffffffffffffffffffffffffffff1673ffffffffffffffffffffffffffffffffffffffff1603615395576040517fc311374300000000000000000000000000000000000000000000000000000000815260040160405180910390fd5b5f816004015414806153aa57505f8160050154145b156153e1576040517f94cae89c00000000000000000000000000000000000000000000000000000000815260040160405180910390fd5b6153e9614030565b80985081995050508060030154670de0b6b3a76400006154099190616f2c565b81600501546154189190616ebe565b95508060020154670de0b6b3a76400006154329190616f2c565b81600401546154419190616ebe565b945061544f88888888615c9f565b8095508193505050836154665780600f015461546c565b80600e01545b92505090919293949596565b5f808273ffffffffffffffffffffffffffffffffffffffff163b119050919050565b5f60019054906101000a900460ff166154e8576040517f08c379a00000000000000000000000000000000000000000000000000000000081526004016154df90617ca8565b60405180910390fd5b6154f28282615d11565b5050565b5f60019054906101000a900460ff16615544576040517f08c379a000000000000000000000000000000000000000000000000000000000815260040161553b90617ca8565b60405180910390fd5b61554c615d83565b565b5f80615558614009565b90505f8160030154670de0b6b3a76400006155739190616f2c565b82600501546155829190616ebe565b90505f8260020154670de0b6b3a764000061559d9190616f2c565b83600401546155ac9190616ebe565b90505f6155c2865f015187602001518585615c9f565b809250819650505085606001518510615607576040517f11cc508c00000000000000000000000000000000000000000000000000000000815260040160405180910390fd5b856101400151151581151514615649576040517f4a236c4200000000000000000000000000000000000000000000000000000000815260040160405180910390fd5b808015615659575083600e015485105b15615690576040517fee269e6f00000000000000000000000000000000000000000000000000000000815260040160405180910390fd5b801580156156a1575083600f015485105b156156d8576040517fee269e6f00000000000000000000000000000000000000000000000000000000815260040160405180910390fd5b5f86608001511115615760575f61571a8760e00151866003015487600201548a602001518b5f01518a600d01546127106157129190616db8565b612710615923565b9050808760800151101561575a576040517f5b0d893300000000000000000000000000000000000000000000000000000000815260040160405180910390fd5b506157d8565b5f6157968760c00151866002015487600301548a5f01518b602001518a600d015461271061578e9190616db8565b612710615923565b9050808760a0015110156157d6576040517f17e6f97800000000000000000000000000000000000000000000000000000000815260040160405180910390fd5b505b50505050919050565b5f815f0151600e0b1380156157fc57505f8160200151600e0b135b80156158155750805f0151600e0b8160200151600e0b13155b1561584c576040517fb11e57a200000000000000000000000000000000000000000000000000000000815260040160405180910390fd5b806040015160ff165f14806158685750806040015160ff166012105b1561589f576040517fd25598a000000000000000000000000000000000000000000000000000000000815260040160405180910390fd5b50565b6158aa6162ee565b5f835f019063ffffffff16908163ffffffff16815250505f836020019063ffffffff16908163ffffffff16815250505f825f0151600e0b036158f9575f8360400190600b0b9081600b0b815250505b5f8260200151600e0b0361591a575f8360600190600b0b9081600b0b815250505b82905092915050565b5f8187856159319190616ebe565b61593b9190616ebe565b8387878b6159499190616ebe565b6159539190616ebe565b61595d9190616ebe565b6159679190616f2c565b9050979650505050505050565b5f84826159819190616ebe565b84848861598e9190616ebe565b6159989190616ebe565b6159a29190616f2c565b905095945050505050565b5f615a0e826040518060400160405280602081526020017f5361666545524332303a206c6f772d6c6576656c2063616c6c206661696c65648152508573ffffffffffffffffffffffffffffffffffffffff16615de39092919063ffffffff16565b90505f81511115615a6d5780806020019051810190615a2d9190617cda565b615a6c576040517f08c379a0000000000000000000000000000000000000000000000000000000008152600401615a6390617d75565b60405180910390fd5b5b505050565b615a7a6162ee565b5f85602001515f0151600e0b148015615a9d57505f856020015160200151600e0b145b15615aad57845f01519050615bb6565b5f615ac085876020015160400151615dfa565b90505f615ad585886020015160400151615dfa565b90506127108483615ae69190616ebe565b615af09190616f2c565b82615afb9190616db8565b91505f8183615b0a9190617d9c565b90506b7fffffffffffffffffffffff600b0b811380615b4b57507fffffffffffffffffffffffffffffffffffffffff800000000000000000000000600b0b81125b15615b82576040517faf2ae3e900000000000000000000000000000000000000000000000000000000815260040160405180910390fd5b615b94885f0151896020015183615e48565b885f0181905250615bac885f01518960200151615f5d565b875f015193505050505b949350505050565b505050565b505050565b5f805f90505f608084901c1115615be757608083901c92506080810190505b5f604084901c1115615c0157604083901c92506040810190505b5f602084901c1115615c1b57602083901c92506020810190505b5f601084901c1115615c3557601083901c92506010810190505b5f600884901c1115615c4f57600883901c92506008810190505b5f600484901c1115615c6957600483901c92506004810190505b5f600284901c1115615c8357600283901c92506002810190505b5f600184901c1115615c96576001810190505b80915050919050565b5f805f8387615cae9190616ebe565b90505f8686615cbd9190616ebe565b905081811192505f83615cdb578183615cd69190616db8565b615ce8565b8282615ce79190616db8565b5b90508261271082615cf99190616ebe565b615d039190616f2c565b945050505094509492505050565b5f60019054906101000a900460ff16615d5f576040517f08c379a0000000000000000000000000000000000000000000000000000000008152600401615d5690617ca8565b60405180910390fd5b8160689081615d6e9190617f70565b508060699081615d7e9190617f70565b505050565b5f60019054906101000a900460ff16615dd1576040517f08c379a0000000000000000000000000000000000000000000000000000000008152600401615dc890617ca8565b60405180910390fd5b615de1615ddc6148d4565b615073565b565b6060615df184845f85616054565b90509392505050565b5f808303615e0a575f9050615e42565b5f82600a615e18919061750e565b600f600a615e26919061750e565b85615e319190616ebe565b615e3b9190616f2c565b9050809150505b92915050565b615e506162ee565b5f82600b0b03615e6257839050615f56565b5f835f0151600e0b1315615ed85761012c845f0151615e81919061803f565b63ffffffff16421115615eb8575f8460400190600b0b9081600b0b8152505042845f019063ffffffff16908163ffffffff16815250505b615ec684604001518361611d565b8460400190600b0b9081600b0b815250505b5f8360200151600e0b1315615f5257620151808460200151615efa919061803f565b63ffffffff16421115615f32575f8460600190600b0b9081600b0b8152505042846020019063ffffffff16908163ffffffff16815250505b615f4084606001518361611d565b8460600190600b0b9081600b0b815250505b8390505b9392505050565b5f815f0151600e0b138015615f9e5750805f0151615f7a90618076565b600e0b8260400151600b0b1280615f9d5750805f0151600e0b8260400151600b0b135b5b15615fd5576040517f493e48f000000000000000000000000000000000000000000000000000000000815260040160405180910390fd5b5f8160200151600e0b13801561601957508060200151615ff490618076565b600e0b8260600151600b0b128061601857508060200151600e0b8260600151600b0b135b5b15616050576040517f91336c6900000000000000000000000000000000000000000000000000000000815260040160405180910390fd5b5050565b606082471015616099576040517f08c379a00000000000000000000000000000000000000000000000000000000081526004016160909061812c565b60405180910390fd5b5f808673ffffffffffffffffffffffffffffffffffffffff1685876040516160c1919061818e565b5f6040518083038185875af1925050503d805f81146160fb576040519150601f19603f3d011682016040523d82523d5f602084013e616100565b606091505b5091509150616111878383876161b3565b92505050949350505050565b5f8082600b0b84600b0b61613191906181a4565b90507fffffffffffffffffffffffffffffffffffffffff800000000000000000000000600b0b81128061617257506b7fffffffffffffffffffffff600b0b81135b156161a9576040517f37ad583200000000000000000000000000000000000000000000000000000000815260040160405180910390fd5b8091505092915050565b60608315616214575f83510361620c576161cc85615478565b61620b576040517f08c379a00000000000000000000000000000000000000000000000000000000081526004016162029061822f565b60405180910390fd5b5b82905061621f565b61621e8383616227565b5b949350505050565b5f825111156162395781518083602001fd5b806040517f08c379a000000000000000000000000000000000000000000000000000000000815260040161626d9190616531565b60405180910390fd5b6040518061016001604052805f81526020015f81526020015f81526020015f81526020015f81526020015f81526020015f81526020015f81526020015f81526020015f81526020015f151581525090565b60405180606001604052805f600e0b81526020015f600e0b81526020015f60ff1681525090565b60405180608001604052805f63ffffffff1681526020015f63ffffffff1681526020015f600b0b81526020015f600b0b81525090565b5f604051905090565b5f80fd5b5f80fd5b5f819050919050565b61634781616335565b8114616351575f80fd5b50565b5f813590506163628161633e565b92915050565b5f73ffffffffffffffffffffffffffffffffffffffff82169050919050565b5f61639182616368565b9050919050565b6163a181616387565b81146163ab575f80fd5b50565b5f813590506163bc81616398565b92915050565b5f80fd5b5f80fd5b5f80fd5b5f8083601f8401126163e3576163e26163c2565b5b8235905067ffffffffffffffff811115616400576163ff6163c6565b5b60208301915083600182028301111561641c5761641b6163ca565b5b9250929050565b5f805f805f6080868803121561643c5761643b61632d565b5b5f61644988828901616354565b955050602061645a88828901616354565b945050604061646b888289016163ae565b935050606086013567ffffffffffffffff81111561648c5761648b616331565b5b616498888289016163ce565b92509250509295509295909350565b5f81519050919050565b5f82825260208201905092915050565b5f5b838110156164de5780820151818401526020810190506164c3565b5f8484015250505050565b5f601f19601f8301169050919050565b5f616503826164a7565b61650d81856164b1565b935061651d8185602086016164c1565b616526816164e9565b840191505092915050565b5f6020820190508181035f83015261654981846164f9565b905092915050565b61655a81616335565b82525050565b5f6060820190506165735f830186616551565b6165806020830185616551565b61658d6040830184616551565b949350505050565b5f80604083850312156165ab576165aa61632d565b5b5f6165b8858286016163ae565b92505060206165c985828601616354565b9150509250929050565b5f8115159050919050565b6165e7816165d3565b82525050565b5f6020820190506166005f8301846165de565b92915050565b5f6020820190506166195f830184616551565b92915050565b61662881616387565b82525050565b5f6020820190506166415f83018461661f565b92915050565b5f805f6060848603121561665e5761665d61632d565b5b5f61666b868287016163ae565b935050602061667c868287016163ae565b925050604061668d86828701616354565b9150509250925092565b5f60ff82169050919050565b6166ac81616697565b82525050565b5f6020820190506166c55f8301846166a3565b92915050565b5f60c0820190506166de5f830189616551565b6166eb6020830188616551565b6166f86040830187616551565b6167056060830186616551565b616712608083018561661f565b61671f60a083018461661f565b979650505050505050565b5f819050919050565b5f61674d61674861674384616368565b61672a565b616368565b9050919050565b5f61675e82616733565b9050919050565b5f61676f82616754565b9050919050565b61677f81616765565b82525050565b5f6020820190506167985f830184616776565b92915050565b5f602082840312156167b3576167b261632d565b5b5f6167c084828501616354565b91505092915050565b5f602082840312156167de576167dd61632d565b5b5f6167eb848285016163ae565b91505092915050565b5f81600e0b9050919050565b616809816167f4565b82525050565b61681881616697565b82525050565b606082015f8201516168325f850182616800565b5060208201516168456020850182616800565b506040820151616858604085018261680f565b50505050565b5f63ffffffff82169050919050565b6168768161685e565b82525050565b5f81600b0b9050919050565b6168918161687c565b82525050565b608082015f8201516168ab5f85018261686d565b5060208201516168be602085018261686d565b5060408201516168d16040850182616888565b5060608201516168e46060850182616888565b50505050565b5f60e0820190506168fd5f83018561681e565b61690a6060830184616897565b9392505050565b5f6040820190506169245f830185616551565b6169316020830184616551565b9392505050565b5f61ffff82169050919050565b61694e81616938565b82525050565b5f60e0820190506169675f83018a616551565b6169746020830189616551565b6169816040830188616551565b61698e6060830187616551565b61699b60808301866165de565b6169a860a0830185616945565b6169b560c0830184616551565b98975050505050505050565b6169ca816165d3565b81146169d4575f80fd5b50565b5f813590506169e5816169c1565b92915050565b5f60208284031215616a00576169ff61632d565b5b5f616a0d848285016169d7565b91505092915050565b5f604082019050616a295f83018561661f565b616a36602083018461661f565b9392505050565b5f80fd5b5f60e08284031215616a5657616a55616a3d565b5b81905092915050565b5f805f805f805f6101a0888a031215616a7b57616a7a61632d565b5b5f616a888a828b016163ae565b9750506020616a998a828b016163ae565b9650506040616aaa8a828b016163ae565b9550506060616abb8a828b016163ae565b9450506080616acc8a828b016169d7565b93505060a0616add8a828b016163ae565b92505060c0616aee8a828b01616a41565b91505092959891949750929550565b5f805f8060608587031215616b1557616b1461632d565b5b5f616b2287828801616354565b9450506020616b3387828801616354565b935050604085013567ffffffffffffffff811115616b5457616b53616331565b5b616b60878288016163ce565b925092505092959194509250565b5f8060408385031215616b8457616b8361632d565b5b5f616b9185828601616354565b9250506020616ba285828601616354565b9150509250929050565b5f8060408385031215616bc257616bc161632d565b5b5f616bcf858286016163ae565b9250506020616be0858286016169d7565b9150509250929050565b5f805f60608486031215616c0157616c0061632d565b5b5f616c0e868287016163ae565b9350506020616c1f86828701616354565b9250506040616c3086828701616354565b9150509250925092565b5f8060408385031215616c5057616c4f61632d565b5b5f616c5d858286016163ae565b9250506020616c6e858286016163ae565b9150509250929050565b5f8060408385031215616c8e57616c8d61632d565b5b5f616c9b85828601616354565b9250506020616cac858286016163ae565b9150509250929050565b5f82825260208201905092915050565b828183375f83830152505050565b5f616cdf8385616cb6565b9350616cec838584616cc6565b616cf5836164e9565b840190509392505050565b5f608082019050616d135f83018861661f565b616d206020830187616551565b616d2d6040830186616551565b8181036060830152616d40818486616cd4565b90509695505050505050565b5f81519050616d5a8161633e565b92915050565b5f60208284031215616d7557616d7461632d565b5b5f616d8284828501616d4c565b91505092915050565b7f4e487b71000000000000000000000000000000000000000000000000000000005f52601160045260245ffd5b5f616dc282616335565b9150616dcd83616335565b9250828203905081811115616de557616de4616d8b565b5b92915050565b5f608082019050616dfe5f830187616551565b616e0b6020830186616551565b616e186040830185616551565b616e256060830184616551565b95945050505050565b7f4e487b71000000000000000000000000000000000000000000000000000000005f52602260045260245ffd5b5f6002820490506001821680616e7257607f821691505b602082108103616e8557616e84616e2e565b5b50919050565b5f616e9582616335565b9150616ea083616335565b9250828201905080821115616eb857616eb7616d8b565b5b92915050565b5f616ec882616335565b9150616ed383616335565b9250828202616ee181616335565b91508282048414831517616ef857616ef7616d8b565b5b5092915050565b7f4e487b71000000000000000000000000000000000000000000000000000000005f52601260045260245ffd5b5f616f3682616335565b9150616f4183616335565b925082616f5157616f50616eff565b5b828204905092915050565b5f604082019050616f6f5f8301856165de565b616f7c60208301846165de565b9392505050565b7f45524332303a2064656372656173656420616c6c6f77616e63652062656c6f775f8201527f207a65726f000000000000000000000000000000000000000000000000000000602082015250565b5f616fdd6025836164b1565b9150616fe882616f83565b604082019050919050565b5f6020820190508181035f83015261700a81616fd1565b9050919050565b7f496e697469616c697a61626c653a20636f6e747261637420697320616c7265615f8201527f647920696e697469616c697a6564000000000000000000000000000000000000602082015250565b5f61706b602e836164b1565b915061707682617011565b604082019050919050565b5f6020820190508181035f8301526170988161705f565b9050919050565b5f80fd5b7f4e487b71000000000000000000000000000000000000000000000000000000005f52604160045260245ffd5b6170d9826164e9565b810181811067ffffffffffffffff821117156170f8576170f76170a3565b5b80604052505050565b5f61710a616324565b905061711682826170d0565b919050565b5f67ffffffffffffffff821115617135576171346170a3565b5b61713e826164e9565b9050602081019050919050565b5f61715d6171588461711b565b617101565b9050828152602081018484840111156171795761717861709f565b5b6171848482856164c1565b509392505050565b5f82601f8301126171a05761719f6163c2565b5b81516171b084826020860161714b565b91505092915050565b5f602082840312156171ce576171cd61632d565b5b5f82015167ffffffffffffffff8111156171eb576171ea616331565b5b6171f78482850161718c565b91505092915050565b5f81905092915050565b7f4d656e746f204669786564205072696365204d4d202d200000000000000000005f82015250565b5f61723e601783617200565b91506172498261720a565b601782019050919050565b5f61725e826164a7565b6172688185617200565b93506172788185602086016164c1565b80840191505092915050565b7f2f000000000000000000000000000000000000000000000000000000000000005f82015250565b5f6172b8600183617200565b91506172c382617284565b600182019050919050565b5f6172d882617232565b91506172e48285617254565b91506172ef826172ac565b91506172fb8284617254565b91508190509392505050565b7f46504d4d2d0000000000000000000000000000000000000000000000000000005f82015250565b5f61733b600583617200565b915061734682617307565b600582019050919050565b5f61735b8261732f565b91506173678285617254565b9150617372826172ac565b915061737e8284617254565b91508190509392505050565b61739381616697565b811461739d575f80fd5b50565b5f815190506173ae8161738a565b92915050565b5f602082840312156173c9576173c861632d565b5b5f6173d6848285016173a0565b91505092915050565b5f8160011c9050919050565b5f808291508390505b6001851115617434578086048111156174105761740f616d8b565b5b600185161561741f5780820291505b808102905061742d856173df565b94506173f4565b94509492505050565b5f8261744c5760019050617507565b81617459575f9050617507565b816001811461746f5760028114617479576174a8565b6001915050617507565b60ff84111561748b5761748a616d8b565b5b8360020a9150848211156174a2576174a1616d8b565b5b50617507565b5060208310610133831016604e8410600b84101617156174dd5782820a9050838111156174d8576174d7616d8b565b5b617507565b6174ea84848460016173eb565b9250905081840481111561750157617500616d8b565b5b81810290505b9392505050565b5f61751882616335565b915061752383616697565b92506175507fffffffffffffffffffffffffffffffffffffffffffffffffffffffffffffffff848461743d565b905092915050565b5f819050919050565b5f61757b61757661757184617558565b61672a565b616697565b9050919050565b61758b81617561565b82525050565b5f6020820190506175a45f830184617582565b92915050565b5f6060820190506175bd5f83018461681e565b92915050565b7f4f776e61626c653a206e6577206f776e657220697320746865207a65726f20615f8201527f6464726573730000000000000000000000000000000000000000000000000000602082015250565b5f61761d6026836164b1565b9150617628826175c3565b604082019050919050565b5f6020820190508181035f83015261764a81617611565b9050919050565b7f5265656e7472616e637947756172643a207265656e7472616e742063616c6c005f82015250565b5f617685601f836164b1565b915061769082617651565b602082019050919050565b5f6020820190508181035f8301526176b281617679565b9050919050565b5f80604083850312156176cf576176ce61632d565b5b5f6176dc85828601616d4c565b92505060206176ed85828601616d4c565b9150509250929050565b5f60408201905061770a5f83018561661f565b6177176020830184616551565b9392505050565b7f45524332303a20617070726f76652066726f6d20746865207a65726f206164645f8201527f7265737300000000000000000000000000000000000000000000000000000000602082015250565b5f6177786024836164b1565b91506177838261771e565b604082019050919050565b5f6020820190508181035f8301526177a58161776c565b9050919050565b7f45524332303a20617070726f766520746f20746865207a65726f2061646472655f8201527f7373000000000000000000000000000000000000000000000000000000000000602082015250565b5f6178066022836164b1565b9150617811826177ac565b604082019050919050565b5f6020820190508181035f830152617833816177fa565b9050919050565b7f45524332303a20696e73756666696369656e7420616c6c6f77616e63650000005f82015250565b5f61786e601d836164b1565b91506178798261783a565b602082019050919050565b5f6020820190508181035f83015261789b81617862565b9050919050565b7f45524332303a207472616e736665722066726f6d20746865207a65726f2061645f8201527f6472657373000000000000000000000000000000000000000000000000000000602082015250565b5f6178fc6025836164b1565b9150617907826178a2565b604082019050919050565b5f6020820190508181035f830152617929816178f0565b9050919050565b7f45524332303a207472616e7366657220746f20746865207a65726f20616464725f8201527f6573730000000000000000000000000000000000000000000000000000000000602082015250565b5f61798a6023836164b1565b915061799582617930565b604082019050919050565b5f6020820190508181035f8301526179b78161797e565b9050919050565b7f45524332303a207472616e7366657220616d6f756e74206578636565647320625f8201527f616c616e63650000000000000000000000000000000000000000000000000000602082015250565b5f617a186026836164b1565b9150617a23826179be565b604082019050919050565b5f6020820190508181035f830152617a4581617a0c565b9050919050565b7f45524332303a206d696e7420746f20746865207a65726f2061646472657373005f82015250565b5f617a80601f836164b1565b9150617a8b82617a4c565b602082019050919050565b5f6020820190508181035f830152617aad81617a74565b9050919050565b7f4f776e61626c653a2063616c6c6572206973206e6f7420746865206f776e65725f82015250565b5f617ae86020836164b1565b9150617af382617ab4565b602082019050919050565b5f6020820190508181035f830152617b1581617adc565b9050919050565b7f45524332303a206275726e2066726f6d20746865207a65726f206164647265735f8201527f7300000000000000000000000000000000000000000000000000000000000000602082015250565b5f617b766021836164b1565b9150617b8182617b1c565b604082019050919050565b5f6020820190508181035f830152617ba381617b6a565b9050919050565b7f45524332303a206275726e20616d6f756e7420657863656564732062616c616e5f8201527f6365000000000000000000000000000000000000000000000000000000000000602082015250565b5f617c046022836164b1565b9150617c0f82617baa565b604082019050919050565b5f6020820190508181035f830152617c3181617bf8565b9050919050565b7f496e697469616c697a61626c653a20636f6e7472616374206973206e6f7420695f8201527f6e697469616c697a696e67000000000000000000000000000000000000000000602082015250565b5f617c92602b836164b1565b9150617c9d82617c38565b604082019050919050565b5f6020820190508181035f830152617cbf81617c86565b9050919050565b5f81519050617cd4816169c1565b92915050565b5f60208284031215617cef57617cee61632d565b5b5f617cfc84828501617cc6565b91505092915050565b7f5361666545524332303a204552433230206f7065726174696f6e20646964206e5f8201527f6f74207375636365656400000000000000000000000000000000000000000000602082015250565b5f617d5f602a836164b1565b9150617d6a82617d05565b604082019050919050565b5f6020820190508181035f830152617d8c81617d53565b9050919050565b5f819050919050565b5f617da682617d93565b9150617db183617d93565b925082820390508181125f8412168282135f851215161715617dd657617dd5616d8b565b5b92915050565b5f819050815f5260205f209050919050565b5f6020601f8301049050919050565b5f82821b905092915050565b5f60088302617e387fffffffffffffffffffffffffffffffffffffffffffffffffffffffffffffffff82617dfd565b617e428683617dfd565b95508019841693508086168417925050509392505050565b5f617e74617e6f617e6a84616335565b61672a565b616335565b9050919050565b5f819050919050565b617e8d83617e5a565b617ea1617e9982617e7b565b848454617e09565b825550505050565b5f90565b617eb5617ea9565b617ec0818484617e84565b505050565b5b81811015617ee357617ed85f82617ead565b600181019050617ec6565b5050565b601f821115617f2857617ef981617ddc565b617f0284617dee565b81016020851015617f11578190505b617f25617f1d85617dee565b830182617ec5565b50505b505050565b5f82821c905092915050565b5f617f485f1984600802617f2d565b1980831691505092915050565b5f617f608383617f39565b9150826002028217905092915050565b617f79826164a7565b67ffffffffffffffff811115617f9257617f916170a3565b5b617f9c8254616e5b565b617fa7828285617ee7565b5f60209050601f831160018114617fd8575f8415617fc6578287015190505b617fd08582617f55565b865550618037565b601f198416617fe686617ddc565b5f5b8281101561800d57848901518255600182019150602085019450602081019050617fe8565b8683101561802a5784890151618026601f891682617f39565b8355505b6001600288020188555050505b505050505050565b5f6180498261685e565b91506180548361685e565b9250828201905063ffffffff8111156180705761806f616d8b565b5b92915050565b5f618080826167f4565b91507fffffffffffffffffffffffffffffffffff80000000000000000000000000000082036180b2576180b1616d8b565b5b815f039050919050565b7f416464726573733a20696e73756666696369656e742062616c616e636520666f5f8201527f722063616c6c0000000000000000000000000000000000000000000000000000602082015250565b5f6181166026836164b1565b9150618121826180bc565b604082019050919050565b5f6020820190508181035f8301526181438161810a565b9050919050565b5f81519050919050565b5f81905092915050565b5f6181688261814a565b6181728185618154565b93506181828185602086016164c1565b80840191505092915050565b5f618199828461815e565b915081905092915050565b5f6181ae82617d93565b91506181b983617d93565b92508282019050828112155f8312168382125f8412151617156181df576181de616d8b565b5b92915050565b7f416464726573733a2063616c6c20746f206e6f6e2d636f6e74726163740000005f82015250565b5f618219601d836164b1565b9150618224826181e5565b602082019050919050565b5f6020820190508181035f8301526182468161820d565b905091905056fea164736f6c6343000818000a",
    "linkReferences": {}
  },
  "methodIdentifiers": {
    "BASIS_POINTS_DENOMINATOR()": "cfa498a3",
    "MINIMUM_LIQUIDITY()": "ba9a7a56",
    "TRADING_MODE_BIDIRECTIONAL()": "5ca0c578",
    "allowance(address,address)": "dd62ed3e",
    "approve(address,uint256)": "095ea7b3",
    "balanceOf(address)": "70a08231",
    "blockTimestampLast()": "c5700a02",
    "burn(address)": "89afcb44",
    "configureTradingLimit(address,uint256,uint256)": "da7ddb8f",
    "decimals()": "313ce567",
    "decimals0()": "7bdd6b44",
    "decimals1()": "a28af8a4",
    "decreaseAllowance(address,uint256)": "a457c2d7",
    "feeSetter()": "87cf3ef4",
    "getAmountOut(uint256,address)": "f140a35a",
    "getRebalancingState()": "93965ec9",
    "getReserves()": "0902f1ac",
    "getTradingLimits(address)": "6391f7db",
    "increaseAllowance(address,uint256)": "39509351",
    "initialize(address,address,address,address,bool,address,(uint256,uint256,address,address,uint256,uint256,uint256))": "c20a9ca5",
    "invertRateFeed()": "ea9274b8",
    "liquidityStrategy(address)": "ce746e66",
    "lpFee()": "704ce43e",
    "metadata()": "392f37e9",
    "mint(address)": "6a627842",
    "name()": "06fdde03",
    "oracleAdapter()": "3d9f3163",
    "owner()": "8da5cb5b",
    "protocolFee()": "b0e21e8a",
    "protocolFeeRecipient()": "64df049e",
    "rebalance(uint256,uint256,bytes)": "c60801b7",
    "rebalanceIncentive()": "d4ac7353",
    "rebalanceThresholdAbove()": "56bd16ab",
    "rebalanceThresholdBelow()": "0c99c084",
    "referenceRateFeedID()": "fb1a6375",
    "renounceOwnership()": "715018a6",
    "reserve0()": "443cb4bc",
    "reserve1()": "5a76f25e",
    "setFeeSetter(address)": "b19805af",
    "setInvertRateFeed(bool)": "96cd3bce",
    "setLPFee(uint256)": "53cb6a5e",
    "setLiquidityStrategy(address,bool)": "cce441a3",
    "setOracleAdapter(address)": "edb6d075",
    "setProtocolFee(uint256)": "787dce3d",
    "setProtocolFeeRecipient(address)": "e521cb92",
    "setRebalanceIncentive(uint256)": "63e979c1",
    "setRebalanceThresholds(uint256,uint256)": "c6bf3420",
    "setReferenceRateFeedID(address)": "e4da518a",
    "swap(uint256,uint256,address,bytes)": "022c0d9f",
    "symbol()": "95d89b41",
    "token0()": "0dfe1681",
    "token1()": "d21220a7",
    "tokens()": "9d63848a",
    "totalSupply()": "18160ddd",
    "transfer(address,uint256)": "a9059cbb",
    "transferFrom(address,address,uint256)": "23b872dd",
    "transferOwnership(address)": "f2fde38b"
  },
  "id": 40
}