{
  "abi": [
    {
      "type": "constructor",
      "inputs": [
        {
          "name": "disable",
          "type": "bool",
          "internalType": "bool"
        }
      ],
      "stateMutability": "nonpayable"
    },
    {
      "type": "function",
      "name": "CREATEX",
      "inputs": [],
      "outputs": [
        {
          "name": "",
          "type": "address",
          "internalType": "address"
        }
      ],
      "stateMutability": "view"
    },
    {
      "type": "function",
      "name": "CREATEX_BYTECODE_HASH",
      "inputs": [],
      "outputs": [
        {
          "name": "",
          "type": "bytes32",
          "internalType": "bytes32"
        }
      ],
      "stateMutability": "view"
    },
    {
      "type": "function",
      "name": "defaultParams",
      "inputs": [],
      "outputs": [
        {
          "name": "",
          "type": "tuple",
          "internalType": "struct IFPMM.FPMMParams",
          "components": [
            {
              "name": "lpFee",
              "type": "uint256",
              "internalType": "uint256"
            },
            {
              "name": "protocolFee",
              "type": "uint256",
              "internalType": "uint256"
            },
            {
              "name": "protocolFeeRecipient",
              "type": "address",
              "internalType": "address"
            },
            {
              "name": "feeSetter",
              "type": "address",
              "internalType": "address"
            },
            {
              "name": "rebalanceIncentive",
              "type": "uint256",
              "internalType": "uint256"
            },
            {
              "name": "rebalanceThresholdAbove",
              "type": "uint256",
              "internalType": "uint256"
            },
            {
              "name": "rebalanceThresholdBelow",
              "type": "uint256",
              "internalType": "uint256"
            }
          ]
        }
      ],
      "stateMutability": "view"
    },
    {
      "type": "function",
      "name": "deployFPMM",
      "inputs": [
        {
          "name": "fpmmImplementation",
          "type": "address",
          "internalType": "address"
        },
        {
          "name": "customOracleAdapter",
          "type": "address",
          "internalType": "address"
        },
        {
          "name": "customProxyAdmin",
          "type": "address",
          "internalType": "address"
        },
        {
          "name": "customOwner",
          "type": "address",
          "internalType": "address"
        },
        {
          "name": "token0",
          "type": "address",
          "internalType": "address"
        },
        {
          "name": "token1",
          "type": "address",
          "internalType": "address"
        },
        {
          "name": "referenceRateFeedID",
          "type": "address",
          "internalType": "address"
        },
        {
          "name": "invertRateFeed",
          "type": "bool",
          "internalType": "bool"
        },
        {
          "name": "customParams",
          "type": "tuple",
          "internalType": "struct IFPMM.FPMMParams",
          "components": [
            {
              "name": "lpFee",
              "type": "uint256",
              "internalType": "uint256"
            },
            {
              "name": "protocolFee",
              "type": "uint256",
              "internalType": "uint256"
            },
            {
              "name": "protocolFeeRecipient",
              "type": "address",
              "internalType": "address"
            },
            {
              "name": "feeSetter",
              "type": "address",
              "internalType": "address"
            },
            {
              "name": "rebalanceIncentive",
              "type": "uint256",
              "internalType": "uint256"
            },
            {
              "name": "rebalanceThresholdAbove",
              "type": "uint256",
              "internalType": "uint256"
            },
            {
              "name": "rebalanceThresholdBelow",
              "type": "uint256",
              "internalType": "uint256"
            }
          ]
        }
      ],
      "outputs": [
        {
          "name": "",
          "type": "address",
          "internalType": "address"
        }
      ],
      "stateMutability": "nonpayable"
    },
    {
      "type": "function",
      "name": "deployFPMM",
      "inputs": [
        {
          "name": "fpmmImplementation",
          "type": "address",
          "internalType": "address"
        },
        {
          "name": "token0",
          "type": "address",
          "internalType": "address"
        },
        {
          "name": "token1",
          "type": "address",
          "internalType": "address"
        },
        {
          "name": "referenceRateFeedID",
          "type": "address",
          "internalType": "address"
        },
        {
          "name": "invertRateFeed",
          "type": "bool",
          "internalType": "bool"
        }
      ],
      "outputs": [
        {
          "name": "",
          "type": "address",
          "internalType": "address"
        }
      ],
      "stateMutability": "nonpayable"
    },
    {
      "type": "function",
      "name": "deployedFPMMAddresses",
      "inputs": [],
      "outputs": [
        {
          "name": "",
          "type": "address[]",
          "internalType": "address[]"
        }
      ],
      "stateMutability": "view"
    },
    {
      "type": "function",
      "name": "getOrPrecomputeProxyAddress",
      "inputs": [
        {
          "name": "token0",
          "type": "address",
          "internalType": "address"
        },
        {
          "name": "token1",
          "type": "address",
          "internalType": "address"
        }
      ],
      "outputs": [
        {
          "name": "",
          "type": "address",
          "internalType": "address"
        }
      ],
      "stateMutability": "view"
    },
    {
      "type": "function",
      "name": "getPool",
      "inputs": [
        {
          "name": "token0",
          "type": "address",
          "internalType": "address"
        },
        {
          "name": "token1",
          "type": "address",
          "internalType": "address"
        }
      ],
      "outputs": [
        {
          "name": "",
          "type": "address",
          "internalType": "address"
        }
      ],
      "stateMutability": "view"
    },
    {
      "type": "function",
      "name": "initialize",
      "inputs": [
        {
          "name": "_oracleAdapter",
          "type": "address",
          "internalType": "address"
        },
        {
          "name": "_proxyAdmin",
          "type": "address",
          "internalType": "address"
        },
        {
          "name": "_initialOwner",
          "type": "address",
          "internalType": "address"
        },
        {
          "name": "_fpmmImplementation",
          "type": "address",
          "internalType": "address"
        },
        {
          "name": "_defaultParams",
          "type": "tuple",
          "internalType": "struct IFPMM.FPMMParams",
          "components": [
            {
              "name": "lpFee",
              "type": "uint256",
              "internalType": "uint256"
            },
            {
              "name": "protocolFee",
              "type": "uint256",
              "internalType": "uint256"
            },
            {
              "name": "protocolFeeRecipient",
              "type": "address",
              "internalType": "address"
            },
            {
              "name": "feeSetter",
              "type": "address",
              "internalType": "address"
            },
            {
              "name": "rebalanceIncentive",
              "type": "uint256",
              "internalType": "uint256"
            },
            {
              "name": "rebalanceThresholdAbove",
              "type": "uint256",
              "internalType": "uint256"
            },
            {
              "name": "rebalanceThresholdBelow",
              "type": "uint256",
              "internalType": "uint256"
            }
          ]
        }
      ],
      "outputs": [],
      "stateMutability": "nonpayable"
    },
    {
      "type": "function",
      "name": "isPool",
      "inputs": [
        {
          "name": "pool",
          "type": "address",
          "internalType": "address"
        }
      ],
      "outputs": [
        {
          "name": "",
          "type": "bool",
          "internalType": "bool"
        }
      ],
      "stateMutability": "view"
    },
    {
      "type": "function",
      "name": "isRegisteredImplementation",
      "inputs": [
        {
          "name": "fpmmImplementation",
          "type": "address",
          "internalType": "address"
        }
      ],
      "outputs": [
        {
          "name": "",
          "type": "bool",
          "internalType": "bool"
        }
      ],
      "stateMutability": "view"
    },
    {
      "type": "function",
      "name": "oracleAdapter",
      "inputs": [],
      "outputs": [
        {
          "name": "",
          "type": "address",
          "internalType": "address"
        }
      ],
      "stateMutability": "view"
    },
    {
      "type": "function",
      "name": "owner",
      "inputs": [],
      "outputs": [
        {
          "name": "",
          "type": "address",
          "internalType": "address"
        }
      ],
      "stateMutability": "view"
    },
    {
      "type": "function",
      "name": "proxyAdmin",
      "inputs": [],
      "outputs": [
        {
          "name": "",
          "type": "address",
          "internalType": "address"
        }
      ],
      "stateMutability": "view"
    },
    {
      "type": "function",
      "name": "registerFPMMImplementation",
      "inputs": [
        {
          "name": "fpmmImplementation",
          "type": "address",
          "internalType": "address"
        }
      ],
      "outputs": [],
      "stateMutability": "nonpayable"
    },
    {
      "type": "function",
      "name": "registeredImplementations",
      "inputs": [],
      "outputs": [
        {
          "name": "",
          "type": "address[]",
          "internalType": "address[]"
        }
      ],
      "stateMutability": "view"
    },
    {
      "type": "function",
      "name": "renounceOwnership",
      "inputs": [],
      "outputs": [],
      "stateMutability": "nonpayable"
    },
    {
      "type": "function",
      "name": "setDefaultParams",
      "inputs": [
        {
          "name": "_defaultParams",
          "type": "tuple",
          "internalType": "struct IFPMM.FPMMParams",
          "components": [
            {
              "name": "lpFee",
              "type": "uint256",
              "internalType": "uint256"
            },
            {
              "name": "protocolFee",
              "type": "uint256",
              "internalType": "uint256"
            },
            {
              "name": "protocolFeeRecipient",
              "type": "address",
              "internalType": "address"
            },
            {
              "name": "feeSetter",
              "type": "address",
              "internalType": "address"
            },
            {
              "name": "rebalanceIncentive",
              "type": "uint256",
              "internalType": "uint256"
            },
            {
              "name": "rebalanceThresholdAbove",
              "type": "uint256",
              "internalType": "uint256"
            },
            {
              "name": "rebalanceThresholdBelow",
              "type": "uint256",
              "internalType": "uint256"
            }
          ]
        }
      ],
      "outputs": [],
      "stateMutability": "nonpayable"
    },
    {
      "type": "function",
      "name": "setOracleAdapter",
      "inputs": [
        {
          "name": "_oracleAdapter",
          "type": "address",
          "internalType": "address"
        }
      ],
      "outputs": [],
      "stateMutability": "nonpayable"
    },
    {
      "type": "function",
      "name": "setProxyAdmin",
      "inputs": [
        {
          "name": "_proxyAdmin",
          "type": "address",
          "internalType": "address"
        }
      ],
      "outputs": [],
      "stateMutability": "nonpayable"
    },
    {
      "type": "function",
      "name": "sortTokens",
      "inputs": [
        {
          "name": "tokenA",
          "type": "address",
          "internalType": "address"
        },
        {
          "name": "tokenB",
          "type": "address",
          "internalType": "address"
        }
      ],
      "outputs": [
        {
          "name": "token0",
          "type": "address",
          "internalType": "address"
        },
        {
          "name": "token1",
          "type": "address",
          "internalType": "address"
        }
      ],
      "stateMutability": "pure"
    },
    {
      "type": "function",
      "name": "transferOwnership",
      "inputs": [
        {
          "name": "newOwner",
          "type": "address",
          "internalType": "address"
        }
      ],
      "outputs": [],
      "stateMutability": "nonpayable"
    },
    {
      "type": "function",
      "name": "unregisterFPMMImplementation",
      "inputs": [
        {
          "name": "fpmmImplementation",
          "type": "address",
          "internalType": "address"
        },
        {
          "name": "index",
          "type": "uint256",
          "internalType": "uint256"
        }
      ],
      "outputs": [],
      "stateMutability": "nonpayable"
    },
    {
      "type": "event",
      "name": "DefaultParamsSet",
      "inputs": [
        {
          "name": "defaultParams",
          "type": "tuple",
          "indexed": false,
          "internalType": "struct IFPMM.FPMMParams",
          "components": [
            {
              "name": "lpFee",
              "type": "uint256",
              "internalType": "uint256"
            },
            {
              "name": "protocolFee",
              "type": "uint256",
              "internalType": "uint256"
            },
            {
              "name": "protocolFeeRecipient",
              "type": "address",
              "internalType": "address"
            },
            {
              "name": "feeSetter",
              "type": "address",
              "internalType": "address"
            },
            {
              "name": "rebalanceIncentive",
              "type": "uint256",
              "internalType": "uint256"
            },
            {
              "name": "rebalanceThresholdAbove",
              "type": "uint256",
              "internalType": "uint256"
            },
            {
              "name": "rebalanceThresholdBelow",
              "type": "uint256",
              "internalType": "uint256"
            }
          ]
        }
      ],
      "anonymous": false
    },
    {
      "type": "event",
      "name": "FPMMDeployed",
      "inputs": [
        {
          "name": "token0",
          "type": "address",
          "indexed": true,
          "internalType": "address"
        },
        {
          "name": "token1",
          "type": "address",
          "indexed": true,
          "internalType": "address"
        },
        {
          "name": "fpmmProxy",
          "type": "address",
          "indexed": false,
          "internalType": "address"
        },
        {
          "name": "fpmmImplementation",
          "type": "address",
          "indexed": false,
          "internalType": "address"
        }
      ],
      "anonymous": false
    },
    {
      "type": "event",
      "name": "FPMMImplementationRegistered",
      "inputs": [
        {
          "name": "implementation",
          "type": "address",
          "indexed": true,
          "internalType": "address"
        }
      ],
      "anonymous": false
    },
    {
      "type": "event",
      "name": "FPMMImplementationUnregistered",
      "inputs": [
        {
          "name": "implementation",
          "type": "address",
          "indexed": true,
          "internalType": "address"
        }
      ],
      "anonymous": false
    },
    {
      "type": "event",
      "name": "Initialized",
      "inputs": [
        {
          "name": "version",
          "type": "uint8",
          "indexed": false,
          "internalType": "uint8"
        }
      ],
      "anonymous": false
    },
    {
      "type": "event",
      "name": "OracleAdapterSet",
      "inputs": [
        {
          "name": "oracleAdapter",
          "type": "address",
          "indexed": true,
          "internalType": "address"
        }
      ],
      "anonymous": false
    },
    {
      "type": "event",
      "name": "OwnershipTransferred",
      "inputs": [
        {
          "name": "previousOwner",
          "type": "address",
          "indexed": true,
          "internalType": "address"
        },
        {
          "name": "newOwner",
          "type": "address",
          "indexed": true,
          "internalType": "address"
        }
      ],
      "anonymous": false
    },
    {
      "type": "event",
      "name": "ProxyAdminSet",
      "inputs": [
        {
          "name": "proxyAdmin",
          "type": "address",
          "indexed": true,
          "internalType": "address"
        }
      ],
      "anonymous": false
    },
    {
      "type": "error",
      "name": "CreateXBytecodeHashMismatch",
      "inputs": []
    },
    {
      "type": "error",
      "name": "FeeTooHigh",
      "inputs": []
    },
    {
      "type": "error",
      "name": "IdenticalTokenAddresses",
      "inputs": []
    },
    {
      "type": "error",
      "name": "ImplementationAlreadyRegistered",
      "inputs": []
    },
    {
      "type": "error",
      "name": "ImplementationIndexMismatch",
      "inputs": []
    },
    {
      "type": "error",
      "name": "ImplementationNotRegistered",
      "inputs": []
    },
    {
      "type": "error",
      "name": "IndexOutOfBounds",
      "inputs": []
    },
    {
      "type": "error",
      "name": "InvalidOracleAdapter",
      "inputs": []
    },
    {
      "type": "error",
      "name": "InvalidOwner",
      "inputs": []
    },
    {
      "type": "error",
      "name": "InvalidProxyAdmin",
      "inputs": []
    },
    {
      "type": "error",
      "name": "InvalidReferenceRateFeedID",
      "inputs": []
    },
    {
      "type": "error",
      "name": "PairAlreadyExists",
      "inputs": []
    },
    {
      "type": "error",
      "name": "RebalanceIncentiveTooHigh",
      "inputs": []
    },
    {
      "type": "error",
      "name": "RebalanceThresholdTooHigh",
      "inputs": []
    },
    {
      "type": "error",
      "name": "SortTokensZeroAddress",
      "inputs": []
    },
    {
      "type": "error",
      "name": "ZeroAddress",
      "inputs": []
    }
  ],
  "bytecode": {
    "object": "0x608060405234801562000010575f80fd5b50604051620057c7380380620057c78339818101604052810190620000369190620001cd565b80156200004e576200004d620000cb60201b60201c565b5b5f73ba5ed099633d3b313e4d5f7bdc1305d3c28ba5ed3f90507fbd8a7ea8cfca7b4e5f5041d7d4b17bc317c5ce42cfbc42066a00cf26b43eb53f5f1b8114620000c3576040517f58c53cdb00000000000000000000000000000000000000000000000000000000815260040160405180910390fd5b5050620002d9565b5f60019054906101000a900460ff16156200011d576040517f08c379a0000000000000000000000000000000000000000000000000000000008152600401620001149062000281565b60405180910390fd5b60ff80165f8054906101000a900460ff1660ff1610156200018d5760ff5f806101000a81548160ff021916908360ff1602179055507f7f26b83ff96e1f2b6a682f133852f6798a09c465da95921460cefb384740249860ff604051620001849190620002be565b60405180910390a15b565b5f80fd5b5f8115159050919050565b620001a98162000193565b8114620001b4575f80fd5b50565b5f81519050620001c7816200019e565b92915050565b5f60208284031215620001e557620001e46200018f565b5b5f620001f484828501620001b7565b91505092915050565b5f82825260208201905092915050565b7f496e697469616c697a61626c653a20636f6e747261637420697320696e6974695f8201527f616c697a696e6700000000000000000000000000000000000000000000000000602082015250565b5f62000269602783620001fd565b915062000276826200020d565b604082019050919050565b5f6020820190508181035f8301526200029a816200025b565b9050919050565b5f60ff82169050919050565b620002b881620002a1565b82525050565b5f602082019050620002d35f830184620002ad565b92915050565b6154e080620002e75f395ff3fe608060405234801562000010575f80fd5b50600436106200016a575f3560e01c8063715018a611620000d3578063a6384c961162000085578063a6384c9614620003f7578063cd92c46c1462000419578063d9e3ca131462000439578063edb6d075146200046f578063f2fde38b146200048f578063fd74c2a814620004af576200016a565b8063715018a6146200034557806371cf28ef14620003515780637ad383b9146200037357806381b07edf14620003955780638da5cb5b14620003b557806394d3c9c914620003d7576200016a565b80633e47158c116200012d5780633e47158c146200023e57806347c026611462000260578063531aa03e1462000280578063544caa5614620002b65780635b16ebb714620002ed578063615dfa5c1462000323576200016a565b8063098a676e146200016e578063162cb91314620001a45780631a21de5614620001c657806338222d4e14620001e65780633d9f3163146200021c575b5f80fd5b6200018c60048036038101906200018691906200271e565b620004e5565b6040516200019b919062002808565b60405180910390f35b620001ae62000840565b604051620001bd9190620028ea565b60405180910390f35b620001e46004803603810190620001de919062002944565b620008dd565b005b620002046004803603810190620001fe919062002989565b62000c0b565b60405162000213919062002808565b60405180910390f35b6200022662000f55565b60405162000235919062002808565b60405180910390f35b6200024862000f8c565b60405162000257919062002808565b60405180910390f35b6200027e600480360381019062000278919062002a0d565b62000fc4565b005b6200029e600480360381019062000298919062002a3d565b620010ca565b604051620002ad919062002808565b60405180910390f35b620002d46004803603810190620002ce919062002a3d565b6200117b565b604051620002e492919062002a82565b60405180910390f35b6200030b600480360381019062000305919062002a0d565b62001297565b6040516200031a919062002abe565b60405180910390f35b6200032d620012f9565b6040516200033c919062002b84565b60405180910390f35b6200034f62001400565b005b6200035b62001417565b6040516200036a919062002bb9565b60405180910390f35b6200037d6200143d565b6040516200038c9190620028ea565b60405180910390f35b620003b36004803603810190620003ad919062002a0d565b620014da565b005b620003bf620016db565b604051620003ce919062002808565b60405180910390f35b620003f56004803603810190620003ef919062002bd4565b62001703565b005b62000401620018f9565b60405162000410919062002808565b60405180910390f35b62000437600480360381019062000431919062002c04565b62001911565b005b62000457600480360381019062000451919062002a3d565b62001a93565b60405162000466919062002808565b60405180910390f35b6200048d600480360381019062000487919062002a0d565b62001b11565b005b620004ad6004803603810190620004a7919062002a0d565b62001c16565b005b620004cd6004803603810190620004c7919062002a0d565b62001c9f565b604051620004dc919062002abe565b60405180910390f35b5f620004f062001d01565b620004fc86866200117b565b80965081975050505f6200050f62001d86565b9050806003015f8c73ffffffffffffffffffffffffffffffffffffffff1673ffffffffffffffffffffffffffffffffffffffff1681526020019081526020015f205f9054906101000a900460ff1662000594576040517f53593f4800000000000000000000000000000000000000000000000000000000815260040160405180910390fd5b5f73ffffffffffffffffffffffffffffffffffffffff168a73ffffffffffffffffffffffffffffffffffffffff1603620005fa576040517fb5e9347e00000000000000000000000000000000000000000000000000000000815260040160405180910390fd5b5f73ffffffffffffffffffffffffffffffffffffffff168973ffffffffffffffffffffffffffffffffffffffff160362000660576040517f4222236c00000000000000000000000000000000000000000000000000000000815260040160405180910390fd5b5f73ffffffffffffffffffffffffffffffffffffffff168873ffffffffffffffffffffffffffffffffffffffff1603620006c6576040517f49e27cff00000000000000000000000000000000000000000000000000000000815260040160405180910390fd5b5f73ffffffffffffffffffffffffffffffffffffffff168573ffffffffffffffffffffffffffffffffffffffff16036200072c576040517f40e2148e00000000000000000000000000000000000000000000000000000000815260040160405180910390fd5b5f73ffffffffffffffffffffffffffffffffffffffff166200074f8888620010ca565b73ffffffffffffffffffffffffffffffffffffffff16146200079d576040517fc9bb25eb00000000000000000000000000000000000000000000000000000000815260040160405180910390fd5b5f620007c38c8c8c8c8c8c8c8c8c803603810190620007bd919062002de2565b62001dad565b90508673ffffffffffffffffffffffffffffffffffffffff168873ffffffffffffffffffffffffffffffffffffffff167fcf8e77154e470bf74e2e443ad6193730ed2a7c72279dc06aa8c12daf20c7768e838f6040516200082692919062002a82565b60405180910390a380925050509998505050505050505050565b60605f6200084d62001d86565b905080600401805480602002602001604051908101604052809291908181526020018280548015620008d257602002820191905f5260205f20905b815f9054906101000a900473ffffffffffffffffffffffffffffffffffffffff1673ffffffffffffffffffffffffffffffffffffffff168152602001906001019080831162000888575b505050505091505090565b620008e762001d01565b5f620008f262001d86565b9050806003015f8473ffffffffffffffffffffffffffffffffffffffff1673ffffffffffffffffffffffffffffffffffffffff1681526020019081526020015f205f9054906101000a900460ff1662000977576040517f53593f4800000000000000000000000000000000000000000000000000000000815260040160405180910390fd5b80600501805490508210620009b8576040517f4e23d03500000000000000000000000000000000000000000000000000000000815260040160405180910390fd5b8273ffffffffffffffffffffffffffffffffffffffff16816005018381548110620009e857620009e762002e12565b5b905f5260205f20015f9054906101000a900473ffffffffffffffffffffffffffffffffffffffff1673ffffffffffffffffffffffffffffffffffffffff161462000a5e576040517f6ceb2ea200000000000000000000000000000000000000000000000000000000815260040160405180910390fd5b5f816003015f8573ffffffffffffffffffffffffffffffffffffffff1673ffffffffffffffffffffffffffffffffffffffff1681526020019081526020015f205f6101000a81548160ff02191690831515021790555060018160050180549050111562000b7a57806005016001826005018054905062000adf919062002e6c565b8154811062000af35762000af262002e12565b5b905f5260205f20015f9054906101000a900473ffffffffffffffffffffffffffffffffffffffff1681600501838154811062000b345762000b3362002e12565b5b905f5260205f20015f6101000a81548173ffffffffffffffffffffffffffffffffffffffff021916908373ffffffffffffffffffffffffffffffffffffffff1602179055505b8060050180548062000b915762000b9062002ea6565b5b600190038181905f5260205f20015f6101000a81549073ffffffffffffffffffffffffffffffffffffffff021916905590558273ffffffffffffffffffffffffffffffffffffffff167ffe223997f2774a32eb344f89114e705724909e55b01aa7414e3352606c15804160405160405180910390a2505050565b5f62000c1662001d01565b62000c2285856200117b565b80955081965050505f62000c3562001d86565b9050806003015f8873ffffffffffffffffffffffffffffffffffffffff1673ffffffffffffffffffffffffffffffffffffffff1681526020019081526020015f205f9054906101000a900460ff1662000cba576040517f53593f4800000000000000000000000000000000000000000000000000000000815260040160405180910390fd5b5f73ffffffffffffffffffffffffffffffffffffffff1662000cdd8787620010ca565b73ffffffffffffffffffffffffffffffffffffffff161462000d2b576040517fc9bb25eb00000000000000000000000000000000000000000000000000000000815260040160405180910390fd5b5f73ffffffffffffffffffffffffffffffffffffffff168473ffffffffffffffffffffffffffffffffffffffff160362000d91576040517f40e2148e00000000000000000000000000000000000000000000000000000000815260040160405180910390fd5b5f62000edc88835f015f9054906101000a900473ffffffffffffffffffffffffffffffffffffffff16846001015f9054906101000a900473ffffffffffffffffffffffffffffffffffffffff1662000de8620016db565b8b8b8b8b8a6007016040518060e00160405290815f820154815260200160018201548152602001600282015f9054906101000a900473ffffffffffffffffffffffffffffffffffffffff1673ffffffffffffffffffffffffffffffffffffffff1673ffffffffffffffffffffffffffffffffffffffff168152602001600382015f9054906101000a900473ffffffffffffffffffffffffffffffffffffffff1673ffffffffffffffffffffffffffffffffffffffff1673ffffffffffffffffffffffffffffffffffffffff168152602001600482015481526020016005820154815260200160068201548152505062001dad565b90508573ffffffffffffffffffffffffffffffffffffffff168773ffffffffffffffffffffffffffffffffffffffff167fcf8e77154e470bf74e2e443ad6193730ed2a7c72279dc06aa8c12daf20c7768e838b60405162000f3f92919062002a82565b60405180910390a3809250505095945050505050565b5f8062000f6162001d86565b9050805f015f9054906101000a900473ffffffffffffffffffffffffffffffffffffffff1691505090565b5f8062000f9862001d86565b9050806001015f9054906101000a900473ffffffffffffffffffffffffffffffffffffffff1691505090565b62000fce62001d01565b5f73ffffffffffffffffffffffffffffffffffffffff168173ffffffffffffffffffffffffffffffffffffffff160362001034576040517fd92e233d00000000000000000000000000000000000000000000000000000000815260040160405180910390fd5b5f6200103f62001d86565b905081816001015f6101000a81548173ffffffffffffffffffffffffffffffffffffffff021916908373ffffffffffffffffffffffffffffffffffffffff1602179055508173ffffffffffffffffffffffffffffffffffffffff167fcc533cd9afb091c6efb85c35bd681914e3005e45aa110b34c6e9fe64a27cafea60405160405180910390a25050565b5f80620010d662001d86565b9050806002015f8573ffffffffffffffffffffffffffffffffffffffff1673ffffffffffffffffffffffffffffffffffffffff1681526020019081526020015f205f8473ffffffffffffffffffffffffffffffffffffffff1673ffffffffffffffffffffffffffffffffffffffff1681526020019081526020015f205f9054906101000a900473ffffffffffffffffffffffffffffffffffffffff1691505092915050565b5f808273ffffffffffffffffffffffffffffffffffffffff168473ffffffffffffffffffffffffffffffffffffffff1603620011e3576040517fe16fb02300000000000000000000000000000000000000000000000000000000815260040160405180910390fd5b8273ffffffffffffffffffffffffffffffffffffffff168473ffffffffffffffffffffffffffffffffffffffff16106200121f57828462001222565b83835b80925081935050505f73ffffffffffffffffffffffffffffffffffffffff168273ffffffffffffffffffffffffffffffffffffffff160362001290576040517f798ecd0500000000000000000000000000000000000000000000000000000000815260040160405180910390fd5b9250929050565b5f80620012a362001d86565b9050806006015f8473ffffffffffffffffffffffffffffffffffffffff1673ffffffffffffffffffffffffffffffffffffffff1681526020019081526020015f205f9054906101000a900460ff16915050919050565b62001303620025dd565b5f6200130e62001d86565b9050806007016040518060e00160405290815f820154815260200160018201548152602001600282015f9054906101000a900473ffffffffffffffffffffffffffffffffffffffff1673ffffffffffffffffffffffffffffffffffffffff1673ffffffffffffffffffffffffffffffffffffffff168152602001600382015f9054906101000a900473ffffffffffffffffffffffffffffffffffffffff1673ffffffffffffffffffffffffffffffffffffffff1673ffffffffffffffffffffffffffffffffffffffff168152602001600482015481526020016005820154815260200160068201548152505091505090565b6200140a62001d01565b620014155f6200200c565b565b7fbd8a7ea8cfca7b4e5f5041d7d4b17bc317c5ce42cfbc42066a00cf26b43eb53f5f1b81565b60605f6200144a62001d86565b905080600501805480602002602001604051908101604052809291908181526020018280548015620014cf57602002820191905f5260205f20905b815f9054906101000a900473ffffffffffffffffffffffffffffffffffffffff1673ffffffffffffffffffffffffffffffffffffffff168152602001906001019080831162001485575b505050505091505090565b620014e462001d01565b5f620014ef62001d86565b90505f73ffffffffffffffffffffffffffffffffffffffff168273ffffffffffffffffffffffffffffffffffffffff160362001557576040517fd92e233d00000000000000000000000000000000000000000000000000000000815260040160405180910390fd5b806003015f8373ffffffffffffffffffffffffffffffffffffffff1673ffffffffffffffffffffffffffffffffffffffff1681526020019081526020015f205f9054906101000a900460ff1615620015db576040517f9c9347a600000000000000000000000000000000000000000000000000000000815260040160405180910390fd5b6001816003015f8473ffffffffffffffffffffffffffffffffffffffff1673ffffffffffffffffffffffffffffffffffffffff1681526020019081526020015f205f6101000a81548160ff0219169083151502179055508060050182908060018154018082558091505060019003905f5260205f20015f9091909190916101000a81548173ffffffffffffffffffffffffffffffffffffffff021916908373ffffffffffffffffffffffffffffffffffffffff1602179055508173ffffffffffffffffffffffffffffffffffffffff167f657b6893ea256a6cda9a6b20efbaa76de366b5cc51125406078be2d7b5c3aa8a60405160405180910390a25050565b5f60335f9054906101000a900473ffffffffffffffffffffffffffffffffffffffff16905090565b6200170d62001d01565b60c8815f0135826020013562001724919062002ed3565b11156200175d576040517fcd4e616700000000000000000000000000000000000000000000000000000000815260040160405180910390fd5b5f73ffffffffffffffffffffffffffffffffffffffff1681604001602081019062001789919062002a0d565b73ffffffffffffffffffffffffffffffffffffffff1603620017d7576040517fd92e233d00000000000000000000000000000000000000000000000000000000815260040160405180910390fd5b60648160800135111562001817576040517f712202ab00000000000000000000000000000000000000000000000000000000815260040160405180910390fd5b6127108160a00135111562001858576040517fdc8372e000000000000000000000000000000000000000000000000000000000815260040160405180910390fd5b6113888160c00135111562001899576040517fdc8372e000000000000000000000000000000000000000000000000000000000815260040160405180910390fd5b5f620018a462001d86565b905081816007018181620018b99190620031a6565b9050507f79b56cfa5485a990096cc566ac848f9d8fb60272f9bbc44f7a767bb1289196e782604051620018ed9190620032c6565b60405180910390a15050565b73ba5ed099633d3b313e4d5f7bdc1305d3c28ba5ed81565b5f8060019054906101000a900460ff1615905080801562001941575060015f8054906101000a900460ff1660ff16105b806200197157506200195330620020cf565b15801562001970575060015f8054906101000a900460ff1660ff16145b5b620019b3576040517f08c379a0000000000000000000000000000000000000000000000000000000008152600401620019aa9062003365565b60405180910390fd5b60015f806101000a81548160ff021916908360ff1602179055508015620019ef5760015f60016101000a81548160ff0219169083151502179055505b620019f9620020f1565b62001a048562000fc4565b62001a0f8662001b11565b62001a1a83620014da565b62001a258262001703565b62001a308462001c16565b801562001a8b575f8060016101000a81548160ff0219169083151502179055507f7f26b83ff96e1f2b6a682f133852f6798a09c465da95921460cefb3847402498600160405162001a829190620033d2565b60405180910390a15b505050505050565b5f8062001aa18484620010ca565b90505f73ffffffffffffffffffffffffffffffffffffffff168173ffffffffffffffffffffffffffffffffffffffff161462001ae1578091505062001b0b565b62001aed84846200117b565b80945081955050505f62001b0285856200214e565b50905080925050505b92915050565b62001b1b62001d01565b5f73ffffffffffffffffffffffffffffffffffffffff168173ffffffffffffffffffffffffffffffffffffffff160362001b81576040517fd92e233d00000000000000000000000000000000000000000000000000000000815260040160405180910390fd5b5f62001b8c62001d86565b905081815f015f6101000a81548173ffffffffffffffffffffffffffffffffffffffff021916908373ffffffffffffffffffffffffffffffffffffffff1602179055508173ffffffffffffffffffffffffffffffffffffffff167f0216fd2d147b005795495489f9a8546ecb901b7c2837fc3d486b06ff66729bb760405160405180910390a25050565b62001c2062001d01565b5f73ffffffffffffffffffffffffffffffffffffffff168173ffffffffffffffffffffffffffffffffffffffff160362001c91576040517f08c379a000000000000000000000000000000000000000000000000000000000815260040162001c889062003461565b60405180910390fd5b62001c9c816200200c565b50565b5f8062001cab62001d86565b9050806003015f8473ffffffffffffffffffffffffffffffffffffffff1673ffffffffffffffffffffffffffffffffffffffff1681526020019081526020015f205f9054906101000a900460ff16915050919050565b62001d0b62002365565b73ffffffffffffffffffffffffffffffffffffffff1662001d2b620016db565b73ffffffffffffffffffffffffffffffffffffffff161462001d84576040517f08c379a000000000000000000000000000000000000000000000000000000000815260040162001d7b90620034cf565b60405180910390fd5b565b5f7f68492e385e38c18b9b27d9179e6aab533cb32a63ce1a1d4414f8c6f6f2d53b00905090565b5f8062001db962001d86565b90505f62001dcf8c8c8c8c8c8c8c8c8c6200236c565b905080826002015f8a73ffffffffffffffffffffffffffffffffffffffff1673ffffffffffffffffffffffffffffffffffffffff1681526020019081526020015f205f8973ffffffffffffffffffffffffffffffffffffffff1673ffffffffffffffffffffffffffffffffffffffff1681526020019081526020015f205f6101000a81548173ffffffffffffffffffffffffffffffffffffffff021916908373ffffffffffffffffffffffffffffffffffffffff16021790555080826002015f8973ffffffffffffffffffffffffffffffffffffffff1673ffffffffffffffffffffffffffffffffffffffff1681526020019081526020015f205f8a73ffffffffffffffffffffffffffffffffffffffff1673ffffffffffffffffffffffffffffffffffffffff1681526020019081526020015f205f6101000a81548173ffffffffffffffffffffffffffffffffffffffff021916908373ffffffffffffffffffffffffffffffffffffffff1602179055506001826006015f8373ffffffffffffffffffffffffffffffffffffffff1673ffffffffffffffffffffffffffffffffffffffff1681526020019081526020015f205f6101000a81548160ff0219169083151502179055508160040181908060018154018082558091505060019003905f5260205f20015f9091909190916101000a81548173ffffffffffffffffffffffffffffffffffffffff021916908373ffffffffffffffffffffffffffffffffffffffff16021790555080925050509998505050505050505050565b5f60335f9054906101000a900473ffffffffffffffffffffffffffffffffffffffff1690508160335f6101000a81548173ffffffffffffffffffffffffffffffffffffffff021916908373ffffffffffffffffffffffffffffffffffffffff1602179055508173ffffffffffffffffffffffffffffffffffffffff168173ffffffffffffffffffffffffffffffffffffffff167f8be0079c531659141344cd1fd0a4f28419497f9722a3daafe3b4186f6b6457e060405160405180910390a35050565b5f808273ffffffffffffffffffffffffffffffffffffffff163b119050919050565b5f60019054906101000a900460ff1662002142576040517f08c379a0000000000000000000000000000000000000000000000000000000008152600401620021399062003563565b60405180910390fd5b6200214c62002562565b565b5f805f8473ffffffffffffffffffffffffffffffffffffffff166395d89b416040518163ffffffff1660e01b81526004015f60405180830381865afa1580156200219a573d5f803e3d5ffd5b505050506040513d5f823e3d601f19601f82011682018060405250810190620021c4919062003666565b8473ffffffffffffffffffffffffffffffffffffffff166395d89b416040518163ffffffff1660e01b81526004015f60405180830381865afa1580156200220d573d5f803e3d5ffd5b505050506040513d5f823e3d601f19601f8201168201806040525081019062002237919062003666565b6040516020016200224a9291906200374d565b604051602081830303815290604052805190602001205f1c60a81b90505f30826040516020016200227d9291906200384b565b6040516020818303038152906040526200229790620038c2565b90505f620022be3073ffffffffffffffffffffffffffffffffffffffff165f1b83620025c9565b90505f73ba5ed099633d3b313e4d5f7bdc1305d3c28ba5ed73ffffffffffffffffffffffffffffffffffffffff16636cec2536836040518263ffffffff1660e01b815260040162002310919062002bb9565b602060405180830381865afa1580156200232c573d5f803e3d5ffd5b505050506040513d601f19601f8201168201806040525081019062002352919062003947565b9050808395509550505050509250929050565b5f33905090565b5f805f6200237b88886200214e565b915091505f63c20a9ca560e01b89898e8a8a8f8b604051602401620023a7979695949392919062003977565b604051602081830303815290604052907bffffffffffffffffffffffffffffffffffffffffffffffffffffffff19166020820180517bffffffffffffffffffffffffffffffffffffffffffffffffffffffff838183161783525050505090505f6040518060200162002419906200263f565b6020820181038252601f19601f820116604052508e8d84604051602001620024449392919062003a43565b6040516020818303038152906040526040516020016200246692919062003ac5565b60405160208183030381529060405290505f73ba5ed099633d3b313e4d5f7bdc1305d3c28ba5ed73ffffffffffffffffffffffffffffffffffffffff16639c36a28685846040518363ffffffff1660e01b8152600401620024c992919062003aec565b6020604051808303815f875af1158015620024e6573d5f803e3d5ffd5b505050506040513d601f19601f820116820180604052508101906200250c919062003947565b90508473ffffffffffffffffffffffffffffffffffffffff168173ffffffffffffffffffffffffffffffffffffffff16146200254d576200254c62003b1e565b5b80955050505050509998505050505050505050565b5f60019054906101000a900460ff16620025b3576040517f08c379a0000000000000000000000000000000000000000000000000000000008152600401620025aa9062003563565b60405180910390fd5b620025c7620025c162002365565b6200200c565b565b5f825f528160205260405f20905092915050565b6040518060e001604052805f81526020015f81526020015f73ffffffffffffffffffffffffffffffffffffffff1681526020015f73ffffffffffffffffffffffffffffffffffffffff1681526020015f81526020015f81526020015f81525090565b6119888062003b4c83390190565b5f604051905090565b5f80fd5b5f80fd5b5f73ffffffffffffffffffffffffffffffffffffffff82169050919050565b5f62002689826200265e565b9050919050565b6200269b816200267d565b8114620026a6575f80fd5b50565b5f81359050620026b98162002690565b92915050565b5f8115159050919050565b620026d581620026bf565b8114620026e0575f80fd5b50565b5f81359050620026f381620026ca565b92915050565b5f80fd5b5f60e08284031215620027155762002714620026f9565b5b81905092915050565b5f805f805f805f805f6101e08a8c0312156200273f576200273e62002656565b5b5f6200274e8c828d01620026a9565b9950506020620027618c828d01620026a9565b9850506040620027748c828d01620026a9565b9750506060620027878c828d01620026a9565b96505060806200279a8c828d01620026a9565b95505060a0620027ad8c828d01620026a9565b94505060c0620027c08c828d01620026a9565b93505060e0620027d38c828d01620026e3565b925050610100620027e78c828d01620026fd565b9150509295985092959850929598565b62002802816200267d565b82525050565b5f6020820190506200281d5f830184620027f7565b92915050565b5f81519050919050565b5f82825260208201905092915050565b5f819050602082019050919050565b62002857816200267d565b82525050565b5f6200286a83836200284c565b60208301905092915050565b5f602082019050919050565b5f6200288e8262002823565b6200289a81856200282d565b9350620028a7836200283d565b805f5b83811015620028dd578151620028c188826200285d565b9750620028ce8362002876565b925050600181019050620028aa565b5085935050505092915050565b5f6020820190508181035f83015262002904818462002882565b905092915050565b5f819050919050565b62002920816200290c565b81146200292b575f80fd5b50565b5f813590506200293e8162002915565b92915050565b5f80604083850312156200295d576200295c62002656565b5b5f6200296c85828601620026a9565b92505060206200297f858286016200292e565b9150509250929050565b5f805f805f60a08688031215620029a557620029a462002656565b5b5f620029b488828901620026a9565b9550506020620029c788828901620026a9565b9450506040620029da88828901620026a9565b9350506060620029ed88828901620026a9565b925050608062002a0088828901620026e3565b9150509295509295909350565b5f6020828403121562002a255762002a2462002656565b5b5f62002a3484828501620026a9565b91505092915050565b5f806040838503121562002a565762002a5562002656565b5b5f62002a6585828601620026a9565b925050602062002a7885828601620026a9565b9150509250929050565b5f60408201905062002a975f830185620027f7565b62002aa66020830184620027f7565b9392505050565b62002ab881620026bf565b82525050565b5f60208201905062002ad35f83018462002aad565b92915050565b62002ae4816200290c565b82525050565b60e082015f82015162002b005f85018262002ad9565b50602082015162002b15602085018262002ad9565b50604082015162002b2a60408501826200284c565b50606082015162002b3f60608501826200284c565b50608082015162002b54608085018262002ad9565b5060a082015162002b6960a085018262002ad9565b5060c082015162002b7e60c085018262002ad9565b50505050565b5f60e08201905062002b995f83018462002aea565b92915050565b5f819050919050565b62002bb38162002b9f565b82525050565b5f60208201905062002bce5f83018462002ba8565b92915050565b5f60e0828403121562002bec5762002beb62002656565b5b5f62002bfb84828501620026fd565b91505092915050565b5f805f805f610160868803121562002c215762002c2062002656565b5b5f62002c3088828901620026a9565b955050602062002c4388828901620026a9565b945050604062002c5688828901620026a9565b935050606062002c6988828901620026a9565b925050608062002c7c88828901620026fd565b9150509295509295909350565b5f80fd5b5f601f19601f8301169050919050565b7f4e487b71000000000000000000000000000000000000000000000000000000005f52604160045260245ffd5b62002cd58262002c8d565b810181811067ffffffffffffffff8211171562002cf75762002cf662002c9d565b5b80604052505050565b5f62002d0b6200264d565b905062002d19828262002cca565b919050565b5f60e0828403121562002d365762002d3562002c89565b5b62002d4260e062002d00565b90505f62002d53848285016200292e565b5f83015250602062002d68848285016200292e565b602083015250604062002d7e84828501620026a9565b604083015250606062002d9484828501620026a9565b606083015250608062002daa848285016200292e565b60808301525060a062002dc0848285016200292e565b60a08301525060c062002dd6848285016200292e565b60c08301525092915050565b5f60e0828403121562002dfa5762002df962002656565b5b5f62002e098482850162002d1e565b91505092915050565b7f4e487b71000000000000000000000000000000000000000000000000000000005f52603260045260245ffd5b7f4e487b71000000000000000000000000000000000000000000000000000000005f52601160045260245ffd5b5f62002e78826200290c565b915062002e85836200290c565b925082820390508181111562002ea05762002e9f62002e3f565b5b92915050565b7f4e487b71000000000000000000000000000000000000000000000000000000005f52603160045260245ffd5b5f62002edf826200290c565b915062002eec836200290c565b925082820190508082111562002f075762002f0662002e3f565b5b92915050565b5f813562002f1b8162002915565b80915050919050565b5f815f1b9050919050565b5f7fffffffffffffffffffffffffffffffffffffffffffffffffffffffffffffffff62002f5c8462002f24565b9350801983169250808416831791505092915050565b5f819050919050565b5f62002f9b62002f9562002f8f846200290c565b62002f72565b6200290c565b9050919050565b5f819050919050565b62002fb68262002f7b565b62002fcd62002fc58262002fa2565b835462002f2f565b8255505050565b5f813562002fe28162002690565b80915050919050565b5f73ffffffffffffffffffffffffffffffffffffffff6200300c8462002f24565b9350801983169250808416831791505092915050565b5f620030426200303c62003036846200265e565b62002f72565b6200265e565b9050919050565b5f620030558262003022565b9050919050565b5f620030688262003049565b9050919050565b5f819050919050565b62003083826200305c565b6200309a62003092826200306f565b835462002feb565b8255505050565b5f81015f830180620030b38162002f0d565b9050620030c1818462002fab565b505050600181016020830180620030d88162002f0d565b9050620030e6818462002fab565b505050600281016040830180620030fd8162002fd4565b90506200310b818462003078565b505050600381016060830180620031228162002fd4565b905062003130818462003078565b505050600481016080830180620031478162002f0d565b905062003155818462002fab565b5050506005810160a08301806200316c8162002f0d565b90506200317a818462002fab565b5050506006810160c0830180620031918162002f0d565b90506200319f818462002fab565b5050505050565b620031b28282620030a1565b5050565b5f620031c660208401846200292e565b905092915050565b5f620031de6020840184620026a9565b905092915050565b60e08201620031f85f830183620031b6565b620032065f85018262002ad9565b50620032166020830183620031b6565b62003225602085018262002ad9565b50620032356040830183620031ce565b6200324460408501826200284c565b50620032546060830183620031ce565b6200326360608501826200284c565b50620032736080830183620031b6565b62003282608085018262002ad9565b506200329260a0830183620031b6565b620032a160a085018262002ad9565b50620032b160c0830183620031b6565b620032c060c085018262002ad9565b50505050565b5f60e082019050620032db5f830184620031e6565b92915050565b5f82825260208201905092915050565b7f496e697469616c697a61626c653a20636f6e747261637420697320616c7265615f8201527f647920696e697469616c697a6564000000000000000000000000000000000000602082015250565b5f6200334d602e83620032e1565b91506200335a82620032f1565b604082019050919050565b5f6020820190508181035f8301526200337e816200333f565b9050919050565b5f819050919050565b5f60ff82169050919050565b5f620033ba620033b4620033ae8462003385565b62002f72565b6200338e565b9050919050565b620033cc816200339a565b82525050565b5f602082019050620033e75f830184620033c1565b92915050565b7f4f776e61626c653a206e6577206f776e657220697320746865207a65726f20615f8201527f6464726573730000000000000000000000000000000000000000000000000000602082015250565b5f62003449602683620032e1565b91506200345682620033ed565b604082019050919050565b5f6020820190508181035f8301526200347a816200343b565b9050919050565b7f4f776e61626c653a2063616c6c6572206973206e6f7420746865206f776e65725f82015250565b5f620034b7602083620032e1565b9150620034c48262003481565b602082019050919050565b5f6020820190508181035f830152620034e881620034a9565b9050919050565b7f496e697469616c697a61626c653a20636f6e7472616374206973206e6f7420695f8201527f6e697469616c697a696e67000000000000000000000000000000000000000000602082015250565b5f6200354b602b83620032e1565b91506200355882620034ef565b604082019050919050565b5f6020820190508181035f8301526200357c816200353d565b9050919050565b5f80fd5b5f80fd5b5f67ffffffffffffffff821115620035a857620035a762002c9d565b5b620035b38262002c8d565b9050602081019050919050565b5f5b83811015620035df578082015181840152602081019050620035c2565b5f8484015250505050565b5f62003600620035fa846200358b565b62002d00565b9050828152602081018484840111156200361f576200361e62003587565b5b6200362c848285620035c0565b509392505050565b5f82601f8301126200364b576200364a62003583565b5b81516200365d848260208601620035ea565b91505092915050565b5f602082840312156200367e576200367d62002656565b5b5f82015167ffffffffffffffff8111156200369e576200369d6200265a565b5b620036ac8482850162003634565b91505092915050565b5f81519050919050565b5f81905092915050565b5f620036d582620036b5565b620036e18185620036bf565b9350620036f3818560208601620035c0565b80840191505092915050565b7f2f000000000000000000000000000000000000000000000000000000000000005f82015250565b5f62003735600183620036bf565b91506200374282620036ff565b600182019050919050565b5f6200375a8285620036c9565b9150620037678262003727565b9150620037758284620036c9565b91508190509392505050565b5f8160601b9050919050565b5f620037998262003781565b9050919050565b5f620037ac826200378d565b9050919050565b620037c8620037c2826200267d565b620037a0565b82525050565b5f8082015250565b5f620037e4600183620036bf565b9150620037f182620037ce565b600182019050919050565b5f7fffffffffffffffffffffff00000000000000000000000000000000000000000082169050919050565b5f819050919050565b620038456200383f82620037fc565b62003827565b82525050565b5f620038588285620037b3565b6014820191506200386982620037d6565b915062003877828462003830565b600b820191508190509392505050565b5f81519050919050565b5f819050602082019050919050565b5f620038ad825162002b9f565b80915050919050565b5f82821b905092915050565b5f620038ce8262003887565b82620038da8462003891565b9050620038e781620038a0565b925060208210156200392a57620039257fffffffffffffffffffffffffffffffffffffffffffffffffffffffffffffffff83602003600802620038b6565b831692505b5050919050565b5f81519050620039418162002690565b92915050565b5f602082840312156200395f576200395e62002656565b5b5f6200396e8482850162003931565b91505092915050565b5f6101a0820190506200398d5f83018a620027f7565b6200399c6020830189620027f7565b620039ab6040830188620027f7565b620039ba6060830187620027f7565b620039c9608083018662002aad565b620039d860a0830185620027f7565b620039e760c083018462002aea565b98975050505050505050565b5f82825260208201905092915050565b5f62003a0f8262003887565b62003a1b8185620039f3565b935062003a2d818560208601620035c0565b62003a388162002c8d565b840191505092915050565b5f60608201905062003a585f830186620027f7565b62003a676020830185620027f7565b818103604083015262003a7b818462003a03565b9050949350505050565b5f81905092915050565b5f62003a9b8262003887565b62003aa7818562003a85565b935062003ab9818560208601620035c0565b80840191505092915050565b5f62003ad2828562003a8f565b915062003ae0828462003a8f565b91508190509392505050565b5f60408201905062003b015f83018562002ba8565b818103602083015262003b15818462003a03565b90509392505050565b7f4e487b71000000000000000000000000000000000000000000000000000000005f52600160045260245ffdfe6080604052604051620019883803806200198883398181016040528101906200002991906200070e565b82828282816200004182825f6200006060201b60201c565b505062000054826200009d60201b60201c565b50505050505062000a36565b6200007183620000fb60201b60201c565b5f825111806200007e5750805b1562000098576200009683836200015260201b60201c565b505b505050565b7f7e644d79422f17c01e4894b5f4f588d331ebfa28653d42ae832dc59e38c9798f620000ce6200018860201b60201c565b82604051620000df92919062000797565b60405180910390a1620000f881620001e360201b60201c565b50565b6200010c81620002ca60201b60201c565b8073ffffffffffffffffffffffffffffffffffffffff167fbc7cd75a20ee27fd9adebab32041f755214dbc6bffa90cc0225b39da2e5c2d3b60405160405180910390a250565b606062000180838360405180606001604052806027815260200162001961602791396200039360201b60201c565b905092915050565b5f620001bc7fb53127684a568b3173ae13b9f8a6016e243e63b6e8ee1178d6a717850b5d61035f1b6200042160201b60201c565b5f015f9054906101000a900473ffffffffffffffffffffffffffffffffffffffff16905090565b5f73ffffffffffffffffffffffffffffffffffffffff168173ffffffffffffffffffffffffffffffffffffffff160362000254576040517f08c379a00000000000000000000000000000000000000000000000000000000081526004016200024b9062000846565b60405180910390fd5b80620002887fb53127684a568b3173ae13b9f8a6016e243e63b6e8ee1178d6a717850b5d61035f1b6200042160201b60201c565b5f015f6101000a81548173ffffffffffffffffffffffffffffffffffffffff021916908373ffffffffffffffffffffffffffffffffffffffff16021790555050565b620002db816200042a60201b60201c565b6200031d576040517f08c379a00000000000000000000000000000000000000000000000000000000081526004016200031490620008da565b60405180910390fd5b80620003517f360894a13ba1a3210667c828492db98dca3e2076cc3735a920a3ca505d382bbc5f1b6200042160201b60201c565b5f015f6101000a81548173ffffffffffffffffffffffffffffffffffffffff021916908373ffffffffffffffffffffffffffffffffffffffff16021790555050565b60605f808573ffffffffffffffffffffffffffffffffffffffff1685604051620003be919062000944565b5f60405180830381855af49150503d805f8114620003f8576040519150601f19603f3d011682016040523d82523d5f602084013e620003fd565b606091505b509150915062000416868383876200044c60201b60201c565b925050509392505050565b5f819050919050565b5f808273ffffffffffffffffffffffffffffffffffffffff163b119050919050565b60608315620004bb575f835103620004b2576200046f856200042a60201b60201c565b620004b1576040517f08c379a0000000000000000000000000000000000000000000000000000000008152600401620004a890620009aa565b60405180910390fd5b5b829050620004ce565b620004cd8383620004d660201b60201c565b5b949350505050565b5f82511115620004e95781518083602001fd5b806040517f08c379a00000000000000000000000000000000000000000000000000000000081526004016200051f919062000a14565b60405180910390fd5b5f604051905090565b5f80fd5b5f80fd5b5f73ffffffffffffffffffffffffffffffffffffffff82169050919050565b5f620005648262000539565b9050919050565b620005768162000558565b811462000581575f80fd5b50565b5f8151905062000594816200056b565b92915050565b5f80fd5b5f80fd5b5f601f19601f8301169050919050565b7f4e487b71000000000000000000000000000000000000000000000000000000005f52604160045260245ffd5b620005ea82620005a2565b810181811067ffffffffffffffff821117156200060c576200060b620005b2565b5b80604052505050565b5f6200062062000528565b90506200062e8282620005df565b919050565b5f67ffffffffffffffff82111562000650576200064f620005b2565b5b6200065b82620005a2565b9050602081019050919050565b5f5b83811015620006875780820151818401526020810190506200066a565b5f8484015250505050565b5f620006a8620006a28462000633565b62000615565b905082815260208101848484011115620006c757620006c66200059e565b5b620006d484828562000668565b509392505050565b5f82601f830112620006f357620006f26200059a565b5b81516200070584826020860162000692565b91505092915050565b5f805f6060848603121562000728576200072762000531565b5b5f620007378682870162000584565b93505060206200074a8682870162000584565b925050604084015167ffffffffffffffff8111156200076e576200076d62000535565b5b6200077c86828701620006dc565b9150509250925092565b620007918162000558565b82525050565b5f604082019050620007ac5f83018562000786565b620007bb602083018462000786565b9392505050565b5f82825260208201905092915050565b7f455243313936373a206e65772061646d696e20697320746865207a65726f20615f8201527f6464726573730000000000000000000000000000000000000000000000000000602082015250565b5f6200082e602683620007c2565b91506200083b82620007d2565b604082019050919050565b5f6020820190508181035f8301526200085f8162000820565b9050919050565b7f455243313936373a206e657720696d706c656d656e746174696f6e206973206e5f8201527f6f74206120636f6e747261637400000000000000000000000000000000000000602082015250565b5f620008c2602d83620007c2565b9150620008cf8262000866565b604082019050919050565b5f6020820190508181035f830152620008f381620008b4565b9050919050565b5f81519050919050565b5f81905092915050565b5f6200091a82620008fa565b62000926818562000904565b93506200093881856020860162000668565b80840191505092915050565b5f6200095182846200090e565b915081905092915050565b7f416464726573733a2063616c6c20746f206e6f6e2d636f6e74726163740000005f82015250565b5f62000992601d83620007c2565b91506200099f826200095c565b602082019050919050565b5f6020820190508181035f830152620009c38162000984565b9050919050565b5f81519050919050565b5f620009e082620009ca565b620009ec8185620007c2565b9350620009fe81856020860162000668565b62000a0981620005a2565b840191505092915050565b5f6020820190508181035f83015262000a2e8184620009d4565b905092915050565b610f1d8062000a445f395ff3fe6080604052366100135761001161001d565b005b61001b61001d565b005b610025610298565b73ffffffffffffffffffffffffffffffffffffffff163373ffffffffffffffffffffffffffffffffffffffff160361028e5760605f80357fffffffff00000000000000000000000000000000000000000000000000000000169050633659cfe660e01b7bffffffffffffffffffffffffffffffffffffffffffffffffffffffff1916817bffffffffffffffffffffffffffffffffffffffffffffffffffffffff1916036100db576100d46102eb565b9150610286565b634f1ef28660e01b7bffffffffffffffffffffffffffffffffffffffffffffffffffffffff1916817bffffffffffffffffffffffffffffffffffffffffffffffffffffffff1916036101365761012f610346565b9150610285565b638f28397060e01b7bffffffffffffffffffffffffffffffffffffffffffffffffffffffff1916817bffffffffffffffffffffffffffffffffffffffffffffffffffffffff1916036101915761018a610390565b9150610284565b63f851a44060e01b7bffffffffffffffffffffffffffffffffffffffffffffffffffffffff1916817bffffffffffffffffffffffffffffffffffffffffffffffffffffffff1916036101ec576101e56103db565b9150610283565b635c60da1b60e01b7bffffffffffffffffffffffffffffffffffffffffffffffffffffffff1916817bffffffffffffffffffffffffffffffffffffffffffffffffffffffff19160361024757610240610416565b9150610282565b6040517f08c379a000000000000000000000000000000000000000000000000000000000815260040161027990610995565b60405180910390fd5b5b5b5b5b815160208301f35b610296610451565b565b5f6102c47fb53127684a568b3173ae13b9f8a6016e243e63b6e8ee1178d6a717850b5d61035f1b61046b565b5f015f9054906101000a900473ffffffffffffffffffffffffffffffffffffffff16905090565b60606102f5610474565b5f80366004908092610309939291906109c4565b8101906103169190610a60565b90506103318160405180602001604052805f8152505f610481565b60405180602001604052805f81525091505090565b60605f805f36600490809261035d939291906109c4565b81019061036a9190610bc7565b9150915061037a82826001610481565b60405180602001604052805f8152509250505090565b606061039a610474565b5f803660049080926103ae939291906109c4565b8101906103bb9190610a60565b90506103c6816104ac565b60405180602001604052805f81525091505090565b60606103e5610474565b5f6103ee610298565b9050806040516020016104019190610c41565b60405160208183030381529060405291505090565b6060610420610474565b5f6104296104f8565b90508060405160200161043c9190610c41565b60405160208183030381529060405291505090565b610459610506565b6104696104646104f8565b610508565b565b5f819050919050565b5f341461047f575f80fd5b565b61048a83610527565b5f825111806104965750805b156104a7576104a58383610576565b505b505050565b7f7e644d79422f17c01e4894b5f4f588d331ebfa28653d42ae832dc59e38c9798f6104d5610298565b826040516104e4929190610c5a565b60405180910390a16104f5816105a3565b50565b5f61050161067f565b905090565b565b365f80375f80365f845af43d5f803e805f8114610523573d5ff35b3d5ffd5b610530816106d2565b8073ffffffffffffffffffffffffffffffffffffffff167fbc7cd75a20ee27fd9adebab32041f755214dbc6bffa90cc0225b39da2e5c2d3b60405160405180910390a250565b606061059b8383604051806060016040528060278152602001610eea60279139610788565b905092915050565b5f73ffffffffffffffffffffffffffffffffffffffff168173ffffffffffffffffffffffffffffffffffffffff1603610611576040517f08c379a000000000000000000000000000000000000000000000000000000000815260040161060890610cf1565b60405180910390fd5b8061063d7fb53127684a568b3173ae13b9f8a6016e243e63b6e8ee1178d6a717850b5d61035f1b61046b565b5f015f6101000a81548173ffffffffffffffffffffffffffffffffffffffff021916908373ffffffffffffffffffffffffffffffffffffffff16021790555050565b5f6106ab7f360894a13ba1a3210667c828492db98dca3e2076cc3735a920a3ca505d382bbc5f1b61046b565b5f015f9054906101000a900473ffffffffffffffffffffffffffffffffffffffff16905090565b6106db8161080a565b61071a576040517f08c379a000000000000000000000000000000000000000000000000000000000815260040161071190610d7f565b60405180910390fd5b806107467f360894a13ba1a3210667c828492db98dca3e2076cc3735a920a3ca505d382bbc5f1b61046b565b5f015f6101000a81548173ffffffffffffffffffffffffffffffffffffffff021916908373ffffffffffffffffffffffffffffffffffffffff16021790555050565b60605f808573ffffffffffffffffffffffffffffffffffffffff16856040516107b19190610e09565b5f60405180830381855af49150503d805f81146107e9576040519150601f19603f3d011682016040523d82523d5f602084013e6107ee565b606091505b50915091506107ff8683838761082c565b925050509392505050565b5f808273ffffffffffffffffffffffffffffffffffffffff163b119050919050565b6060831561088d575f835103610885576108458561080a565b610884576040517f08c379a000000000000000000000000000000000000000000000000000000000815260040161087b90610e69565b60405180910390fd5b5b829050610898565b61089783836108a0565b5b949350505050565b5f825111156108b25781518083602001fd5b806040517f08c379a00000000000000000000000000000000000000000000000000000000081526004016108e69190610ec9565b60405180910390fd5b5f82825260208201905092915050565b7f5472616e73706172656e745570677261646561626c6550726f78793a2061646d5f8201527f696e2063616e6e6f742066616c6c6261636b20746f2070726f7879207461726760208201527f6574000000000000000000000000000000000000000000000000000000000000604082015250565b5f61097f6042836108ef565b915061098a826108ff565b606082019050919050565b5f6020820190508181035f8301526109ac81610973565b9050919050565b5f604051905090565b5f80fd5b5f80fd5b5f80858511156109d7576109d66109bc565b5b838611156109e8576109e76109c0565b5b6001850283019150848603905094509492505050565b5f80fd5b5f80fd5b5f73ffffffffffffffffffffffffffffffffffffffff82169050919050565b5f610a2f82610a06565b9050919050565b610a3f81610a25565b8114610a49575f80fd5b50565b5f81359050610a5a81610a36565b92915050565b5f60208284031215610a7557610a746109fe565b5b5f610a8284828501610a4c565b91505092915050565b5f80fd5b5f80fd5b5f601f19601f8301169050919050565b7f4e487b71000000000000000000000000000000000000000000000000000000005f52604160045260245ffd5b610ad982610a93565b810181811067ffffffffffffffff82111715610af857610af7610aa3565b5b80604052505050565b5f610b0a6109b3565b9050610b168282610ad0565b919050565b5f67ffffffffffffffff821115610b3557610b34610aa3565b5b610b3e82610a93565b9050602081019050919050565b828183375f83830152505050565b5f610b6b610b6684610b1b565b610b01565b905082815260208101848484011115610b8757610b86610a8f565b5b610b92848285610b4b565b509392505050565b5f82601f830112610bae57610bad610a8b565b5b8135610bbe848260208601610b59565b91505092915050565b5f8060408385031215610bdd57610bdc6109fe565b5b5f610bea85828601610a4c565b925050602083013567ffffffffffffffff811115610c0b57610c0a610a02565b5b610c1785828601610b9a565b9150509250929050565b5f610c2b82610a06565b9050919050565b610c3b81610c21565b82525050565b5f602082019050610c545f830184610c32565b92915050565b5f604082019050610c6d5f830185610c32565b610c7a6020830184610c32565b9392505050565b7f455243313936373a206e65772061646d696e20697320746865207a65726f20615f8201527f6464726573730000000000000000000000000000000000000000000000000000602082015250565b5f610cdb6026836108ef565b9150610ce682610c81565b604082019050919050565b5f6020820190508181035f830152610d0881610ccf565b9050919050565b7f455243313936373a206e657720696d706c656d656e746174696f6e206973206e5f8201527f6f74206120636f6e747261637400000000000000000000000000000000000000602082015250565b5f610d69602d836108ef565b9150610d7482610d0f565b604082019050919050565b5f6020820190508181035f830152610d9681610d5d565b9050919050565b5f81519050919050565b5f81905092915050565b5f5b83811015610dce578082015181840152602081019050610db3565b5f8484015250505050565b5f610de382610d9d565b610ded8185610da7565b9350610dfd818560208601610db1565b80840191505092915050565b5f610e148284610dd9565b915081905092915050565b7f416464726573733a2063616c6c20746f206e6f6e2d636f6e74726163740000005f82015250565b5f610e53601d836108ef565b9150610e5e82610e1f565b602082019050919050565b5f6020820190508181035f830152610e8081610e47565b9050919050565b5f81519050919050565b5f610e9b82610e87565b610ea581856108ef565b9350610eb5818560208601610db1565b610ebe81610a93565b840191505092915050565b5f6020820190508181035f830152610ee18184610e91565b90509291505056fe416464726573733a206c6f772d6c6576656c2064656c65676174652063616c6c206661696c6564a164736f6c6343000818000a416464726573733a206c6f772d6c6576656c2064656c65676174652063616c6c206661696c6564a164736f6c6343000818000a",
    "linkReferences": {}
  },
  "methodIdentifiers": {
    "CREATEX()": "a6384c96",
    "CREATEX_BYTECODE_HASH()": "71cf28ef",
    "defaultParams()": "615dfa5c",
    "deployFPMM(address,address,address,address,address,address,address,bool,(uint256,uint256,address,address,uint256,uint256,uint256))": "098a676e",
    "deployFPMM(address,address,address,address,bool)": "38222d4e",
    "deployedFPMMAddresses()": "162cb913",
    "getOrPrecomputeProxyAddress(address,address)": "d9e3ca13",
    "getPool(address,address)": "531aa03e",
    "initialize(address,address,address,address,(uint256,uint256,address,address,uint256,uint256,uint256))": "cd92c46c",
    "isPool(address)": "5b16ebb7",
    "isRegisteredImplementation(address)": "fd74c2a8",
    "oracleAdapter()": "3d9f3163",
    "owner()": "8da5cb5b",
    "proxyAdmin()": "3e47158c",
    "registerFPMMImplementation(address)": "81b07edf",
    "registeredImplementations()": "7ad383b9",
    "renounceOwnership()": "715018a6",
    "setDefaultParams((uint256,uint256,address,address,uint256,uint256,uint256))": "94d3c9c9",
    "setOracleAdapter(address)": "edb6d075",
    "setProxyAdmin(address)": "47c02661",
    "sortTokens(address,address)": "544caa56",
    "transferOwnership(address)": "f2fde38b",
    "unregisterFPMMImplementation(address,uint256)": "1a21de56"
  },
  "id": 41
}