{
  "abi": [
    {
      "type": "constructor",
      "inputs": [
        {
          "name": "_owner",
          "type": "address",
          "internalType": "address"
        }
      ],
      "stateMutability": "nonpayable"
    },
    {
      "type": "function",
      "name": "CREATEX",
      "inputs": [],
      "outputs": [
        {
          "name": "",
          "type": "address",
          "internalType": "address"
        }
      ],
      "stateMutability": "view"
    },
    {
      "type": "function",
      "name": "CREATEX_BYTECODE_HASH",
      "inputs": [],
      "outputs": [
        {
          "name": "",
          "type": "bytes32",
          "internalType": "bytes32"
        }
      ],
      "stateMutability": "view"
    },
    {
      "type": "function",
      "name": "deployVirtualPool",
      "inputs": [
        {
          "name": "exchangeProvider",
          "type": "address",
          "internalType": "address"
        },
        {
          "name": "exchangeId",
          "type": "bytes32",
          "internalType": "bytes32"
        }
      ],
      "outputs": [
        {
          "name": "pool",
          "type": "address",
          "internalType": "address"
        }
      ],
      "stateMutability": "nonpayable"
    },
    {
      "type": "function",
      "name": "deprecatePool",
      "inputs": [
        {
          "name": "pool",
          "type": "address",
          "internalType": "address"
        }
      ],
      "outputs": [],
      "stateMutability": "nonpayable"
    },
    {
      "type": "function",
      "name": "getAllPools",
      "inputs": [],
      "outputs": [
        {
          "name": "activePools",
          "type": "address[]",
          "internalType": "address[]"
        }
      ],
      "stateMutability": "view"
    },
    {
      "type": "function",
      "name": "getOrPrecomputeProxyAddress",
      "inputs": [
        {
          "name": "token0",
          "type": "address",
          "internalType": "address"
        },
        {
          "name": "token1",
          "type": "address",
          "internalType": "address"
        }
      ],
      "outputs": [
        {
          "name": "",
          "type": "address",
          "internalType": "address"
        }
      ],
      "stateMutability": "view"
    },
    {
      "type": "function",
      "name": "getPool",
      "inputs": [
        {
          "name": "token0",
          "type": "address",
          "internalType": "address"
        },
        {
          "name": "token1",
          "type": "address",
          "internalType": "address"
        }
      ],
      "outputs": [
        {
          "name": "",
          "type": "address",
          "internalType": "address"
        }
      ],
      "stateMutability": "view"
    },
    {
      "type": "function",
      "name": "isPool",
      "inputs": [
        {
          "name": "pool",
          "type": "address",
          "internalType": "address"
        }
      ],
      "outputs": [
        {
          "name": "",
          "type": "bool",
          "internalType": "bool"
        }
      ],
      "stateMutability": "view"
    },
    {
      "type": "function",
      "name": "isPoolDeprecated",
      "inputs": [
        {
          "name": "pool",
          "type": "address",
          "internalType": "address"
        }
      ],
      "outputs": [
        {
          "name": "",
          "type": "bool",
          "internalType": "bool"
        }
      ],
      "stateMutability": "view"
    },
    {
      "type": "function",
      "name": "owner",
      "inputs": [],
      "outputs": [
        {
          "name": "",
          "type": "address",
          "internalType": "address"
        }
      ],
      "stateMutability": "view"
    },
    {
      "type": "function",
      "name": "renounceOwnership",
      "inputs": [],
      "outputs": [],
      "stateMutability": "nonpayable"
    },
    {
      "type": "function",
      "name": "transferOwnership",
      "inputs": [
        {
          "name": "newOwner",
          "type": "address",
          "internalType": "address"
        }
      ],
      "outputs": [],
      "stateMutability": "nonpayable"
    },
    {
      "type": "event",
      "name": "OwnershipTransferred",
      "inputs": [
        {
          "name": "previousOwner",
          "type": "address",
          "indexed": true,
          "internalType": "address"
        },
        {
          "name": "newOwner",
          "type": "address",
          "indexed": true,
          "internalType": "address"
        }
      ],
      "anonymous": false
    },
    {
      "type": "event",
      "name": "PoolDeprecated",
      "inputs": [
        {
          "name": "pool",
          "type": "address",
          "indexed": true,
          "internalType": "address"
        }
      ],
      "anonymous": false
    },
    {
      "type": "event",
      "name": "VirtualPoolDeployed",
      "inputs": [
        {
          "name": "pool",
          "type": "address",
          "indexed": true,
          "internalType": "address"
        },
        {
          "name": "token0",
          "type": "address",
          "indexed": true,
          "internalType": "address"
        },
        {
          "name": "token1",
          "type": "address",
          "indexed": true,
          "internalType": "address"
        }
      ],
      "anonymous": false
    },
    {
      "type": "error",
      "name": "InvalidCreateXBytecode",
      "inputs": []
    },
    {
      "type": "error",
      "name": "InvalidExchangeId",
      "inputs": []
    },
    {
      "type": "error",
      "name": "InvalidExchangeProvider",
      "inputs": []
    },
    {
      "type": "error",
      "name": "PoolAlreadyDeprecated",
      "inputs": []
    },
    {
      "type": "error",
      "name": "PoolNotFound",
      "inputs": []
    },
    {
      "type": "error",
      "name": "VirtualPoolAlreadyExistsForThisPair",
      "inputs": []
    }
  ],
  "bytecode": {
    "object": "0x608060405234801562000010575f80fd5b50604051620051df380380620051df833981810160405281019062000036919062000211565b620000566200004a620000e460201b60201c565b620000eb60201b60201c565b5f73ba5ed099633d3b313e4d5f7bdc1305d3c28ba5ed3f90507fbd8a7ea8cfca7b4e5f5041d7d4b17bc317c5ce42cfbc42066a00cf26b43eb53f5f1b8114620000cb576040517fa02be5d400000000000000000000000000000000000000000000000000000000815260040160405180910390fd5b620000dc82620000eb60201b60201c565b505062000241565b5f33905090565b5f805f9054906101000a900473ffffffffffffffffffffffffffffffffffffffff169050815f806101000a81548173ffffffffffffffffffffffffffffffffffffffff021916908373ffffffffffffffffffffffffffffffffffffffff1602179055508173ffffffffffffffffffffffffffffffffffffffff168173ffffffffffffffffffffffffffffffffffffffff167f8be0079c531659141344cd1fd0a4f28419497f9722a3daafe3b4186f6b6457e060405160405180910390a35050565b5f80fd5b5f73ffffffffffffffffffffffffffffffffffffffff82169050919050565b5f620001db82620001b0565b9050919050565b620001ed81620001cf565b8114620001f8575f80fd5b50565b5f815190506200020b81620001e2565b92915050565b5f60208284031215620002295762000228620001ac565b5b5f6200023884828501620001fb565b91505092915050565b614f90806200024f5f395ff3fe608060405234801562000010575f80fd5b5060043610620000c2575f3560e01c8063a6384c961162000079578063a6384c9614620001a2578063b038cf1014620001c4578063d88ff1f414620001fa578063d9e3ca13146200021c578063e6e362061462000252578063f2fde38b146200028857620000c2565b806332cc9a0514620000c6578063531aa03e14620000e65780635b16ebb7146200011c578063715018a6146200015257806371cf28ef146200015e5780638da5cb5b1462000180575b5f80fd5b620000e46004803603810190620000de91906200143e565b620002a8565b005b620001046004803603810190620000fe91906200146e565b6200041c565b604051620001139190620014c4565b60405180910390f35b6200013a60048036038101906200013491906200143e565b620004bd565b604051620001499190620014fb565b60405180910390f35b6200015c6200052f565b005b6200016862000546565b60405162000177919062001530565b60405180910390f35b6200018a6200056c565b604051620001999190620014c4565b60405180910390f35b620001ac62000593565b604051620001bb9190620014c4565b60405180910390f35b620001e26004803603810190620001dc91906200157a565b620005ab565b604051620001f19190620014c4565b60405180910390f35b6200020462000a9a565b60405162000213919062001686565b60405180910390f35b6200023a60048036038101906200023491906200146e565b62000c0a565b604051620002499190620014c4565b60405180910390f35b6200027060048036038101906200026a91906200143e565b62000d14565b6040516200027f9190620014fb565b60405180910390f35b620002a66004803603810190620002a091906200143e565b62000db3565b005b620002b262000e3c565b620002c881600362000ec190919063ffffffff16565b620002ff576040517f76ecffc000000000000000000000000000000000000000000000000000000000815260040160405180910390fd5b60025f8273ffffffffffffffffffffffffffffffffffffffff1673ffffffffffffffffffffffffffffffffffffffff1681526020019081526020015f205f9054906101000a900460ff161562000381576040517f4f9c43f100000000000000000000000000000000000000000000000000000000815260040160405180910390fd5b600160025f8373ffffffffffffffffffffffffffffffffffffffff1673ffffffffffffffffffffffffffffffffffffffff1681526020019081526020015f205f6101000a81548160ff0219169083151502179055508073ffffffffffffffffffffffffffffffffffffffff167f01bddfafb594f9f8299e49bc6aaec90526c4f49ac7f3cb0fa6246152c55c914c60405160405180910390a250565b5f60015f8473ffffffffffffffffffffffffffffffffffffffff1673ffffffffffffffffffffffffffffffffffffffff1681526020019081526020015f205f8373ffffffffffffffffffffffffffffffffffffffff1673ffffffffffffffffffffffffffffffffffffffff1681526020019081526020015f205f9054906101000a900473ffffffffffffffffffffffffffffffffffffffff16905092915050565b5f620004d482600362000ec190919063ffffffff16565b801562000528575060025f8373ffffffffffffffffffffffffffffffffffffffff1673ffffffffffffffffffffffffffffffffffffffff1681526020019081526020015f205f9054906101000a900460ff16155b9050919050565b6200053962000e3c565b620005445f62000ef0565b565b7fbd8a7ea8cfca7b4e5f5041d7d4b17bc317c5ce42cfbc42066a00cf26b43eb53f5f1b81565b5f805f9054906101000a900473ffffffffffffffffffffffffffffffffffffffff16905090565b73ba5ed099633d3b313e4d5f7bdc1305d3c28ba5ed81565b5f620005b662000e3c565b5f8373ffffffffffffffffffffffffffffffffffffffff1663abff01106040518163ffffffff1660e01b8152600401602060405180830381865afa15801562000601573d5f803e3d5ffd5b505050506040513d601f19601f82011682018060405250810190620006279190620016be565b90505f805f62000638878762000fb1565b9250925092505f73ffffffffffffffffffffffffffffffffffffffff1660015f8573ffffffffffffffffffffffffffffffffffffffff1673ffffffffffffffffffffffffffffffffffffffff1681526020019081526020015f205f8473ffffffffffffffffffffffffffffffffffffffff1673ffffffffffffffffffffffffffffffffffffffff1681526020019081526020015f205f9054906101000a900473ffffffffffffffffffffffffffffffffffffffff1673ffffffffffffffffffffffffffffffffffffffff16146200073b576040517f6620820e00000000000000000000000000000000000000000000000000000000815260040160405180910390fd5b5f80620007498585620010f2565b915091505f604051806020016200076090620013c2565b6020820181038252601f19601f82011660405250878b8b8989896040516020016200079196959493929190620016ee565b604051602081830303815290604052604051602001620007b3929190620017cd565b604051602081830303815290604052905073ba5ed099633d3b313e4d5f7bdc1305d3c28ba5ed73ffffffffffffffffffffffffffffffffffffffff16639c36a28683836040518363ffffffff1660e01b81526004016200081592919062001854565b6020604051808303815f875af115801562000832573d5f803e3d5ffd5b505050506040513d601f19601f82011682018060405250810190620008589190620016be565b97508273ffffffffffffffffffffffffffffffffffffffff168873ffffffffffffffffffffffffffffffffffffffff161462000899576200089862001886565b5b8760015f8873ffffffffffffffffffffffffffffffffffffffff1673ffffffffffffffffffffffffffffffffffffffff1681526020019081526020015f205f8773ffffffffffffffffffffffffffffffffffffffff1673ffffffffffffffffffffffffffffffffffffffff1681526020019081526020015f205f6101000a81548173ffffffffffffffffffffffffffffffffffffffff021916908373ffffffffffffffffffffffffffffffffffffffff1602179055508760015f8773ffffffffffffffffffffffffffffffffffffffff1673ffffffffffffffffffffffffffffffffffffffff1681526020019081526020015f205f8873ffffffffffffffffffffffffffffffffffffffff1673ffffffffffffffffffffffffffffffffffffffff1681526020019081526020015f205f6101000a81548173ffffffffffffffffffffffffffffffffffffffff021916908373ffffffffffffffffffffffffffffffffffffffff16021790555062000a1b8860036200122590919063ffffffff16565b508473ffffffffffffffffffffffffffffffffffffffff168673ffffffffffffffffffffffffffffffffffffffff168973ffffffffffffffffffffffffffffffffffffffff167f4d2c437ef0f7199a817cbedc640db9eb383a902df4ff2ffb7c06d71c42ca2acc60405160405180910390a45050505050505092915050565b60605f62000aa9600362001254565b9050805167ffffffffffffffff81111562000ac95762000ac8620018b3565b5b60405190808252806020026020018201604052801562000af85781602001602082028036833780820191505090505b5091505f805b825181101562000c015760025f84838151811062000b215762000b20620018e0565b5b602002602001015173ffffffffffffffffffffffffffffffffffffffff1673ffffffffffffffffffffffffffffffffffffffff1681526020019081526020015f205f9054906101000a900460ff1662000bf35782818151811062000b8a5762000b89620018e0565b5b602002602001015184838151811062000ba85762000ba7620018e0565b5b602002602001019073ffffffffffffffffffffffffffffffffffffffff16908173ffffffffffffffffffffffffffffffffffffffff1681525050818062000bef9062001943565b9250505b808060010191505062000afe565b50808352505090565b5f8060015f8573ffffffffffffffffffffffffffffffffffffffff1673ffffffffffffffffffffffffffffffffffffffff1681526020019081526020015f205f8473ffffffffffffffffffffffffffffffffffffffff1673ffffffffffffffffffffffffffffffffffffffff1681526020019081526020015f205f9054906101000a900473ffffffffffffffffffffffffffffffffffffffff1690505f73ffffffffffffffffffffffffffffffffffffffff168173ffffffffffffffffffffffffffffffffffffffff161462000ce4578091505062000d0e565b62000cf0848462001275565b80945081955050505f62000d058585620010f2565b50905080925050505b92915050565b5f62000d2b82600362000ec190919063ffffffff16565b62000d62576040517f76ecffc000000000000000000000000000000000000000000000000000000000815260040160405180910390fd5b60025f8373ffffffffffffffffffffffffffffffffffffffff1673ffffffffffffffffffffffffffffffffffffffff1681526020019081526020015f205f9054906101000a900460ff169050919050565b62000dbd62000e3c565b5f73ffffffffffffffffffffffffffffffffffffffff168173ffffffffffffffffffffffffffffffffffffffff160362000e2e576040517f08c379a000000000000000000000000000000000000000000000000000000000815260040162000e259062001a13565b60405180910390fd5b62000e398162000ef0565b50565b62000e46620012c1565b73ffffffffffffffffffffffffffffffffffffffff1662000e666200056c565b73ffffffffffffffffffffffffffffffffffffffff161462000ebf576040517f08c379a000000000000000000000000000000000000000000000000000000000815260040162000eb69062001a81565b60405180910390fd5b565b5f62000ee8835f018373ffffffffffffffffffffffffffffffffffffffff165f1b620012c8565b905092915050565b5f805f9054906101000a900473ffffffffffffffffffffffffffffffffffffffff169050815f806101000a81548173ffffffffffffffffffffffffffffffffffffffff021916908373ffffffffffffffffffffffffffffffffffffffff1602179055508173ffffffffffffffffffffffffffffffffffffffff168173ffffffffffffffffffffffffffffffffffffffff167f8be0079c531659141344cd1fd0a4f28419497f9722a3daafe3b4186f6b6457e060405160405180910390a35050565b5f805f808573ffffffffffffffffffffffffffffffffffffffff1663d482dda6866040518263ffffffff1660e01b815260040162000ff0919062001530565b61016060405180830381865afa1580156200100d573d5f803e3d5ffd5b505050506040513d601f19601f8201168201806040525081019062001033919062001d07565b905062001048815f0151826020015162001275565b8094508195505050805f015173ffffffffffffffffffffffffffffffffffffffff168473ffffffffffffffffffffffffffffffffffffffff161491505f73ffffffffffffffffffffffffffffffffffffffff168473ffffffffffffffffffffffffffffffffffffffff1603620010ea576040517fc90c106300000000000000000000000000000000000000000000000000000000815260040160405180910390fd5b509250925092565b5f805f84846040516020016200110a92919062001d85565b604051602081830303815290604052805190602001205f1c60a81b90505f30826040516020016200113d92919062001e3b565b604051602081830303815290604052620011579062001ea8565b90505f6200117e3073ffffffffffffffffffffffffffffffffffffffff165f1b83620012e8565b90505f73ba5ed099633d3b313e4d5f7bdc1305d3c28ba5ed73ffffffffffffffffffffffffffffffffffffffff16636cec2536836040518263ffffffff1660e01b8152600401620011d0919062001530565b602060405180830381865afa158015620011ec573d5f803e3d5ffd5b505050506040513d601f19601f82011682018060405250810190620012129190620016be565b9050808395509550505050509250929050565b5f6200124c835f018373ffffffffffffffffffffffffffffffffffffffff165f1b620012fc565b905092915050565b60605f62001264835f0162001367565b905060608190508092505050919050565b5f808273ffffffffffffffffffffffffffffffffffffffff168473ffffffffffffffffffffffffffffffffffffffff1610620012b3578284620012b6565b83835b915091509250929050565b5f33905090565b5f80836001015f8481526020019081526020015f20541415905092915050565b5f825f528160205260405f20905092915050565b5f620013098383620012c8565b6200135d57825f0182908060018154018082558091505060019003905f5260205f20015f9091909190915055825f0180549050836001015f8481526020019081526020015f20819055506001905062001361565b5f90505b92915050565b6060815f01805480602002602001604051908101604052809291908181526020018280548015620013b657602002820191905f5260205f20905b815481526020019060010190808311620013a1575b50505050509050919050565b61306c8062001f1883390190565b5f604051905090565b5f80fd5b5f73ffffffffffffffffffffffffffffffffffffffff82169050919050565b5f6200140882620013dd565b9050919050565b6200141a81620013fc565b811462001425575f80fd5b50565b5f8135905062001438816200140f565b92915050565b5f60208284031215620014565762001455620013d9565b5b5f620014658482850162001428565b91505092915050565b5f8060408385031215620014875762001486620013d9565b5b5f620014968582860162001428565b9250506020620014a98582860162001428565b9150509250929050565b620014be81620013fc565b82525050565b5f602082019050620014d95f830184620014b3565b92915050565b5f8115159050919050565b620014f581620014df565b82525050565b5f602082019050620015105f830184620014ea565b92915050565b5f819050919050565b6200152a8162001516565b82525050565b5f602082019050620015455f8301846200151f565b92915050565b620015568162001516565b811462001561575f80fd5b50565b5f8135905062001574816200154b565b92915050565b5f8060408385031215620015935762001592620013d9565b5b5f620015a28582860162001428565b9250506020620015b58582860162001564565b9150509250929050565b5f81519050919050565b5f82825260208201905092915050565b5f819050602082019050919050565b620015f381620013fc565b82525050565b5f620016068383620015e8565b60208301905092915050565b5f602082019050919050565b5f6200162a82620015bf565b620016368185620015c9565b93506200164383620015d9565b805f5b83811015620016795781516200165d8882620015f9565b97506200166a8362001612565b92505060018101905062001646565b5085935050505092915050565b5f6020820190508181035f830152620016a081846200161e565b905092915050565b5f81519050620016b8816200140f565b92915050565b5f60208284031215620016d657620016d5620013d9565b5b5f620016e584828501620016a8565b91505092915050565b5f60c082019050620017035f830189620014b3565b620017126020830188620014b3565b6200172160408301876200151f565b620017306060830186620014b3565b6200173f6080830185620014b3565b6200174e60a0830184620014ea565b979650505050505050565b5f81519050919050565b5f81905092915050565b5f5b838110156200178c5780820151818401526020810190506200176f565b5f8484015250505050565b5f620017a38262001759565b620017af818562001763565b9350620017c18185602086016200176d565b80840191505092915050565b5f620017da828562001797565b9150620017e8828462001797565b91508190509392505050565b5f82825260208201905092915050565b5f601f19601f8301169050919050565b5f620018208262001759565b6200182c8185620017f4565b93506200183e8185602086016200176d565b620018498162001804565b840191505092915050565b5f604082019050620018695f8301856200151f565b81810360208301526200187d818462001814565b90509392505050565b7f4e487b71000000000000000000000000000000000000000000000000000000005f52600160045260245ffd5b7f4e487b71000000000000000000000000000000000000000000000000000000005f52604160045260245ffd5b7f4e487b71000000000000000000000000000000000000000000000000000000005f52603260045260245ffd5b7f4e487b71000000000000000000000000000000000000000000000000000000005f52601160045260245ffd5b5f819050919050565b5f6200194f826200193a565b91507fffffffffffffffffffffffffffffffffffffffffffffffffffffffffffffffff82036200198457620019836200190d565b5b600182019050919050565b5f82825260208201905092915050565b7f4f776e61626c653a206e6577206f776e657220697320746865207a65726f20615f8201527f6464726573730000000000000000000000000000000000000000000000000000602082015250565b5f620019fb6026836200198f565b915062001a08826200199f565b604082019050919050565b5f6020820190508181035f83015262001a2c81620019ed565b9050919050565b7f4f776e61626c653a2063616c6c6572206973206e6f7420746865206f776e65725f82015250565b5f62001a696020836200198f565b915062001a768262001a33565b602082019050919050565b5f6020820190508181035f83015262001a9a8162001a5b565b9050919050565b5f80fd5b62001ab08262001804565b810181811067ffffffffffffffff8211171562001ad25762001ad1620018b3565b5b80604052505050565b5f62001ae6620013d0565b905062001af4828262001aa5565b919050565b5f62001b0582620013fc565b9050919050565b62001b178162001af9565b811462001b22575f80fd5b50565b5f8151905062001b358162001b0c565b92915050565b62001b46816200193a565b811462001b51575f80fd5b50565b5f8151905062001b648162001b3b565b92915050565b5f6020828403121562001b825762001b8162001aa1565b5b62001b8e602062001adb565b90505f62001b9f8482850162001b54565b5f8301525092915050565b5f60a0828403121562001bc25762001bc162001aa1565b5b62001bce60a062001adb565b90505f62001bdf8482850162001b6a565b5f83015250602062001bf484828501620016a8565b602083015250604062001c0a8482850162001b54565b604083015250606062001c208482850162001b54565b606083015250608062001c368482850162001b54565b60808301525092915050565b5f610160828403121562001c5b5762001c5a62001aa1565b5b62001c6760e062001adb565b90505f62001c7884828501620016a8565b5f83015250602062001c8d84828501620016a8565b602083015250604062001ca38482850162001b25565b604083015250606062001cb98482850162001b54565b606083015250608062001ccf8482850162001b54565b60808301525060a062001ce58482850162001b54565b60a08301525060c062001cfb8482850162001baa565b60c08301525092915050565b5f610160828403121562001d205762001d1f620013d9565b5b5f62001d2f8482850162001c42565b91505092915050565b5f8160601b9050919050565b5f62001d508262001d38565b9050919050565b5f62001d638262001d44565b9050919050565b62001d7f62001d7982620013fc565b62001d57565b82525050565b5f62001d92828562001d6a565b60148201915062001da4828462001d6a565b6014820191508190509392505050565b5f81905092915050565b5f8082015250565b5f62001dd460018362001db4565b915062001de18262001dbe565b600182019050919050565b5f7fffffffffffffffffffffff00000000000000000000000000000000000000000082169050919050565b5f819050919050565b62001e3562001e2f8262001dec565b62001e17565b82525050565b5f62001e48828562001d6a565b60148201915062001e598262001dc6565b915062001e67828462001e20565b600b820191508190509392505050565b5f819050602082019050919050565b5f62001e93825162001516565b80915050919050565b5f82821b905092915050565b5f62001eb48262001759565b8262001ec08462001e77565b905062001ecd8162001e86565b9250602082101562001f105762001f0b7fffffffffffffffffffffffffffffffffffffffffffffffffffffffffffffffff8360200360080262001e9c565b831692505b505091905056fe61018060405234801562000011575f80fd5b506040516200306c3803806200306c8339818101604052810190620000379190620007d3565b60015f819055508573ffffffffffffffffffffffffffffffffffffffff1660808173ffffffffffffffffffffffffffffffffffffffff16815250508473ffffffffffffffffffffffffffffffffffffffff1660a08173ffffffffffffffffffffffffffffffffffffffff16815250508360c081815250508273ffffffffffffffffffffffffffffffffffffffff1660e08173ffffffffffffffffffffffffffffffffffffffff16815250508173ffffffffffffffffffffffffffffffffffffffff166101008173ffffffffffffffffffffffffffffffffffffffff16815250508273ffffffffffffffffffffffffffffffffffffffff1663313ce5676040518163ffffffff1660e01b8152600401602060405180830381865afa15801562000161573d5f803e3d5ffd5b505050506040513d601f19601f82011682018060405250810190620001879190620008a6565b60ff16600a62000198919062000a5c565b61012081815250508173ffffffffffffffffffffffffffffffffffffffff1663313ce5676040518163ffffffff1660e01b8152600401602060405180830381865afa158015620001ea573d5f803e3d5ffd5b505050506040513d601f19601f82011682018060405250810190620002109190620008a6565b60ff16600a62000221919062000a5c565b61014081815250508015156101608115158152505062000283867fffffffffffffffffffffffffffffffffffffffffffffffffffffffffffffffff8573ffffffffffffffffffffffffffffffffffffffff16620002dc60201b9092919060201c565b620002d0867fffffffffffffffffffffffffffffffffffffffffffffffffffffffffffffffff8473ffffffffffffffffffffffffffffffffffffffff16620002dc60201b9092919060201c565b50505050505062000ef5565b5f8114806200036857505f8373ffffffffffffffffffffffffffffffffffffffff1663dd62ed3e30856040518363ffffffff1660e01b81526004016200032492919062000abd565b602060405180830381865afa15801562000340573d5f803e3d5ffd5b505050506040513d601f19601f8201168201806040525081019062000366919062000b17565b145b620003aa576040517f08c379a0000000000000000000000000000000000000000000000000000000008152600401620003a19062000bcb565b60405180910390fd5b620004358363095ea7b360e01b8484604051602401620003cc92919062000bfc565b604051602081830303815290604052907bffffffffffffffffffffffffffffffffffffffffffffffffffffffff19166020820180517bffffffffffffffffffffffffffffffffffffffffffffffffffffffff83818316178352505050506200043a60201b60201c565b505050565b5f6200049d826040518060400160405280602081526020017f5361666545524332303a206c6f772d6c6576656c2063616c6c206661696c65648152508573ffffffffffffffffffffffffffffffffffffffff166200050760201b9092919060201c565b90505f81511115620005025780806020019051810190620004bf919062000c27565b62000501576040517f08c379a0000000000000000000000000000000000000000000000000000000008152600401620004f89062000ccb565b60405180910390fd5b5b505050565b60606200051d84845f856200052660201b60201c565b90509392505050565b6060824710156200056e576040517f08c379a0000000000000000000000000000000000000000000000000000000008152600401620005659062000d5f565b60405180910390fd5b5f808673ffffffffffffffffffffffffffffffffffffffff16858760405162000598919062000df3565b5f6040518083038185875af1925050503d805f8114620005d4576040519150601f19603f3d011682016040523d82523d5f602084013e620005d9565b606091505b5091509150620005f287838387620005fe60201b60201c565b92505050949350505050565b606083156200066d575f835103620006645762000621856200068860201b60201c565b62000663576040517f08c379a00000000000000000000000000000000000000000000000000000000081526004016200065a9062000e59565b60405180910390fd5b5b82905062000680565b6200067f8383620006aa60201b60201c565b5b949350505050565b5f808273ffffffffffffffffffffffffffffffffffffffff163b119050919050565b5f82511115620006bd5781518083602001fd5b806040517f08c379a0000000000000000000000000000000000000000000000000000000008152600401620006f3919062000ed3565b60405180910390fd5b5f80fd5b5f73ffffffffffffffffffffffffffffffffffffffff82169050919050565b5f6200072b8262000700565b9050919050565b6200073d816200071f565b811462000748575f80fd5b50565b5f815190506200075b8162000732565b92915050565b5f819050919050565b620007758162000761565b811462000780575f80fd5b50565b5f8151905062000793816200076a565b92915050565b5f8115159050919050565b620007af8162000799565b8114620007ba575f80fd5b50565b5f81519050620007cd81620007a4565b92915050565b5f805f805f8060c08789031215620007f057620007ef620006fc565b5b5f620007ff89828a016200074b565b96505060206200081289828a016200074b565b95505060406200082589828a0162000783565b94505060606200083889828a016200074b565b93505060806200084b89828a016200074b565b92505060a06200085e89828a01620007bd565b9150509295509295509295565b5f60ff82169050919050565b62000882816200086b565b81146200088d575f80fd5b50565b5f81519050620008a08162000877565b92915050565b5f60208284031215620008be57620008bd620006fc565b5b5f620008cd8482850162000890565b91505092915050565b7f4e487b71000000000000000000000000000000000000000000000000000000005f52601160045260245ffd5b5f8160011c9050919050565b5f808291508390505b60018511156200096057808604811115620009385762000937620008d6565b5b6001851615620009485780820291505b8081029050620009588562000903565b945062000918565b94509492505050565b5f826200097a576001905062000a4c565b8162000989575f905062000a4c565b8160018114620009a25760028114620009ad57620009e3565b600191505062000a4c565b60ff841115620009c257620009c1620008d6565b5b8360020a915084821115620009dc57620009db620008d6565b5b5062000a4c565b5060208310610133831016604e8410600b841016171562000a1d5782820a90508381111562000a175762000a16620008d6565b5b62000a4c565b62000a2c84848460016200090f565b9250905081840481111562000a465762000a45620008d6565b5b81810290505b9392505050565b5f819050919050565b5f62000a688262000a53565b915062000a758362000a53565b925062000aa47fffffffffffffffffffffffffffffffffffffffffffffffffffffffffffffffff848462000969565b905092915050565b62000ab7816200071f565b82525050565b5f60408201905062000ad25f83018562000aac565b62000ae1602083018462000aac565b9392505050565b62000af38162000a53565b811462000afe575f80fd5b50565b5f8151905062000b118162000ae8565b92915050565b5f6020828403121562000b2f5762000b2e620006fc565b5b5f62000b3e8482850162000b01565b91505092915050565b5f82825260208201905092915050565b7f5361666545524332303a20617070726f76652066726f6d206e6f6e2d7a65726f5f8201527f20746f206e6f6e2d7a65726f20616c6c6f77616e636500000000000000000000602082015250565b5f62000bb360368362000b47565b915062000bc08262000b57565b604082019050919050565b5f6020820190508181035f83015262000be48162000ba5565b9050919050565b62000bf68162000a53565b82525050565b5f60408201905062000c115f83018562000aac565b62000c20602083018462000beb565b9392505050565b5f6020828403121562000c3f5762000c3e620006fc565b5b5f62000c4e84828501620007bd565b91505092915050565b7f5361666545524332303a204552433230206f7065726174696f6e20646964206e5f8201527f6f74207375636365656400000000000000000000000000000000000000000000602082015250565b5f62000cb3602a8362000b47565b915062000cc08262000c57565b604082019050919050565b5f6020820190508181035f83015262000ce48162000ca5565b9050919050565b7f416464726573733a20696e73756666696369656e742062616c616e636520666f5f8201527f722063616c6c0000000000000000000000000000000000000000000000000000602082015250565b5f62000d4760268362000b47565b915062000d548262000ceb565b604082019050919050565b5f6020820190508181035f83015262000d788162000d39565b9050919050565b5f81519050919050565b5f81905092915050565b5f5b8381101562000db257808201518184015260208101905062000d95565b5f8484015250505050565b5f62000dc98262000d7f565b62000dd5818562000d89565b935062000de781856020860162000d93565b80840191505092915050565b5f62000e00828462000dbd565b915081905092915050565b7f416464726573733a2063616c6c20746f206e6f6e2d636f6e74726163740000005f82015250565b5f62000e41601d8362000b47565b915062000e4e8262000e0b565b602082019050919050565b5f6020820190508181035f83015262000e728162000e33565b9050919050565b5f81519050919050565b5f601f19601f8301169050919050565b5f62000e9f8262000e79565b62000eab818562000b47565b935062000ebd81856020860162000d93565b62000ec88162000e83565b840191505092915050565b5f6020820190508181035f83015262000eed818462000e93565b905092915050565b60805160a05160c05160e05161010051610120516101405161016051612026620010465f395f81816108240152818161096701528181610b040152610bfc01525f81816109cb0152610cab01525f81816109aa0152610c3801525f8181610335015281816104990152818161053e015281816105a801528181610a0f01528181610c8101528181610db901528181610e350152610f4d01525f81816102de015281816103fe0152818161055f015281816105870152818161087d015281816109ee01528181610c6001528181610de001528181610ed40152610f2701525f8181610631015281816107a3015281816108e601528181610a8501528181610b7d01528181610d0f0152610fce01525f818161061001528181610767015281816108aa01528181610a4901528181610b4101528181610cd30152610fad01525f81816105d40152610f7101526120265ff3fe608060405234801561000f575f80fd5b50600436106100b2575f3560e01c80637bdd6b441161006f5780637bdd6b441461016f5780639d63848a1461018d578063a28af8a4146101ac578063b0e21e8a146101ca578063d21220a7146101e8578063f140a35a14610206576100b2565b8063022c0d9f146100b65780630902f1ac146100d25780630dfe1681146100f2578063392f37e914610110578063443cb4bc146101335780635a76f25e14610151575b5f80fd5b6100d060048036038101906100cb91906114be565b610236565b005b6100da610761565b6040516100e993929190611551565b60405180910390f35b6100fa61087a565b6040516101079190611595565b60405180910390f35b6101186108a1565b60405161012a969594939291906115ae565b60405180910390f35b61013b610a45565b604051610148919061160d565b60405180910390f35b610159610b3d565b604051610166919061160d565b60405180910390f35b610177610c35565b604051610184919061160d565b60405180910390f35b610195610c5c565b6040516101a3929190611626565b60405180910390f35b6101b4610ca8565b6040516101c1919061160d565b60405180910390f35b6101d2610ccf565b6040516101df919061160d565b60405180910390f35b6101f0610db6565b6040516101fd9190611595565b60405180910390f35b610220600480360381019061021b919061164d565b610ddd565b60405161022d919061160d565b60405180910390f35b61023e611059565b5f84861703610282576040517f08c379a00000000000000000000000000000000000000000000000000000000081526004016102799061170b565b60405180910390fd5b5f8282905014801561029d57505f85148061029c57505f84145b5b6102dc576040517f08c379a00000000000000000000000000000000000000000000000000000000081526004016102d390611799565b60405180910390fd5b7f000000000000000000000000000000000000000000000000000000000000000073ffffffffffffffffffffffffffffffffffffffff168373ffffffffffffffffffffffffffffffffffffffff161415801561038457507f000000000000000000000000000000000000000000000000000000000000000073ffffffffffffffffffffffffffffffffffffffff168373ffffffffffffffffffffffffffffffffffffffff1614155b80156103bc57503073ffffffffffffffffffffffffffffffffffffffff168373ffffffffffffffffffffffffffffffffffffffff1614155b6103fb576040517f08c379a00000000000000000000000000000000000000000000000000000000081526004016103f290611801565b60405180910390fd5b5f7f000000000000000000000000000000000000000000000000000000000000000073ffffffffffffffffffffffffffffffffffffffff166370a08231306040518263ffffffff1660e01b81526004016104559190611595565b602060405180830381865afa158015610470573d5f803e3d5ffd5b505050506040513d601f19601f820116820180604052508101906104949190611833565b90505f7f000000000000000000000000000000000000000000000000000000000000000073ffffffffffffffffffffffffffffffffffffffff166370a08231306040518263ffffffff1660e01b81526004016104f09190611595565b602060405180830381865afa15801561050b573d5f803e3d5ffd5b505050506040513d601f19601f8201168201806040525081019061052f9190611833565b90505f805f805f8b14610585577f00000000000000000000000000000000000000000000000000000000000000007f0000000000000000000000000000000000000000000000000000000000000000868d6105ca565b7f00000000000000000000000000000000000000000000000000000000000000007f0000000000000000000000000000000000000000000000000000000000000000878c5b93509350935093507f000000000000000000000000000000000000000000000000000000000000000073ffffffffffffffffffffffffffffffffffffffff1663d163b1357f00000000000000000000000000000000000000000000000000000000000000007f0000000000000000000000000000000000000000000000000000000000000000878786886040518763ffffffff1660e01b815260040161067596959493929190611876565b6020604051808303815f875af1158015610691573d5f803e3d5ffd5b505050506040513d601f19601f820116820180604052508101906106b59190611833565b506106e189828573ffffffffffffffffffffffffffffffffffffffff166110a69092919063ffffffff16565b8873ffffffffffffffffffffffffffffffffffffffff163373ffffffffffffffffffffffffffffffffffffffff167fd78ad95fa46c994b6551d0da85fc275fe613ce37657fb8d5e3d130840159d82288888f8f60405161074494939291906118d5565b60405180910390a350505050505061075a61112c565b5050505050565b5f805f807f000000000000000000000000000000000000000000000000000000000000000073ffffffffffffffffffffffffffffffffffffffff1663d482dda67f00000000000000000000000000000000000000000000000000000000000000006040518263ffffffff1660e01b81526004016107de9190611918565b61016060405180830381865afa1580156107fa573d5f803e3d5ffd5b505050506040513d601f19601f8201168201806040525081019061081e9190611b80565b90505f807f00000000000000000000000000000000000000000000000000000000000000006108565782608001518360600151610861565b826060015183608001515b9150915081818460a00151955095509550505050909192565b5f7f0000000000000000000000000000000000000000000000000000000000000000905090565b5f805f805f805f7f000000000000000000000000000000000000000000000000000000000000000073ffffffffffffffffffffffffffffffffffffffff1663d482dda67f00000000000000000000000000000000000000000000000000000000000000006040518263ffffffff1660e01b81526004016109219190611918565b61016060405180830381865afa15801561093d573d5f803e3d5ffd5b505050506040513d601f19601f820116820180604052508101906109619190611b80565b90505f807f000000000000000000000000000000000000000000000000000000000000000061099957826080015183606001516109a4565b826060015183608001515b915091507f00000000000000000000000000000000000000000000000000000000000000007f000000000000000000000000000000000000000000000000000000000000000083837f00000000000000000000000000000000000000000000000000000000000000007f0000000000000000000000000000000000000000000000000000000000000000985098509850985098509850505050909192939495565b5f807f000000000000000000000000000000000000000000000000000000000000000073ffffffffffffffffffffffffffffffffffffffff1663d482dda67f00000000000000000000000000000000000000000000000000000000000000006040518263ffffffff1660e01b8152600401610ac09190611918565b61016060405180830381865afa158015610adc573d5f803e3d5ffd5b505050506040513d601f19601f82011682018060405250810190610b009190611b80565b90507f0000000000000000000000000000000000000000000000000000000000000000610b31578060800151610b37565b80606001515b91505090565b5f807f000000000000000000000000000000000000000000000000000000000000000073ffffffffffffffffffffffffffffffffffffffff1663d482dda67f00000000000000000000000000000000000000000000000000000000000000006040518263ffffffff1660e01b8152600401610bb89190611918565b61016060405180830381865afa158015610bd4573d5f803e3d5ffd5b505050506040513d601f19601f82011682018060405250810190610bf89190611b80565b90507f0000000000000000000000000000000000000000000000000000000000000000610c29578060600151610c2f565b80608001515b91505090565b5f7f0000000000000000000000000000000000000000000000000000000000000000905090565b5f807f00000000000000000000000000000000000000000000000000000000000000007f0000000000000000000000000000000000000000000000000000000000000000915091509091565b5f7f0000000000000000000000000000000000000000000000000000000000000000905090565b5f807f000000000000000000000000000000000000000000000000000000000000000073ffffffffffffffffffffffffffffffffffffffff1663d482dda67f00000000000000000000000000000000000000000000000000000000000000006040518263ffffffff1660e01b8152600401610d4a9190611918565b61016060405180830381865afa158015610d66573d5f803e3d5ffd5b505050506040513d601f19601f82011682018060405250810190610d8a9190611b80565b90505f8160c001515f0151905068056bc75e2d63100000815f0151610daf9190611bd9565b9250505090565b5f7f0000000000000000000000000000000000000000000000000000000000000000905090565b5f7f000000000000000000000000000000000000000000000000000000000000000073ffffffffffffffffffffffffffffffffffffffff168273ffffffffffffffffffffffffffffffffffffffff161480610e8357507f000000000000000000000000000000000000000000000000000000000000000073ffffffffffffffffffffffffffffffffffffffff168273ffffffffffffffffffffffffffffffffffffffff16145b610ec2576040517f08c379a0000000000000000000000000000000000000000000000000000000008152600401610eb990611c53565b60405180910390fd5b5f8303610ed1575f9050611053565b5f7f000000000000000000000000000000000000000000000000000000000000000073ffffffffffffffffffffffffffffffffffffffff168373ffffffffffffffffffffffffffffffffffffffff1614610f4b577f0000000000000000000000000000000000000000000000000000000000000000610f6d565b7f00000000000000000000000000000000000000000000000000000000000000005b90507f000000000000000000000000000000000000000000000000000000000000000073ffffffffffffffffffffffffffffffffffffffff1663a20f23057f00000000000000000000000000000000000000000000000000000000000000007f00000000000000000000000000000000000000000000000000000000000000008685896040518663ffffffff1660e01b8152600401611010959493929190611c71565b602060405180830381865afa15801561102b573d5f803e3d5ffd5b505050506040513d601f19601f8201168201806040525081019061104f9190611833565b9150505b92915050565b60025f540361109d576040517f08c379a000000000000000000000000000000000000000000000000000000000815260040161109490611d0c565b60405180910390fd5b60025f81905550565b6111278363a9059cbb60e01b84846040516024016110c5929190611d2a565b604051602081830303815290604052907bffffffffffffffffffffffffffffffffffffffffffffffffffffffff19166020820180517bffffffffffffffffffffffffffffffffffffffffffffffffffffffff8381831617835250505050611135565b505050565b60015f81905550565b5f611196826040518060400160405280602081526020017f5361666545524332303a206c6f772d6c6576656c2063616c6c206661696c65648152508573ffffffffffffffffffffffffffffffffffffffff166111fa9092919063ffffffff16565b90505f815111156111f557808060200190518101906111b59190611d86565b6111f4576040517f08c379a00000000000000000000000000000000000000000000000000000000081526004016111eb90611e21565b60405180910390fd5b5b505050565b606061120884845f85611211565b90509392505050565b606082471015611256576040517f08c379a000000000000000000000000000000000000000000000000000000000815260040161124d90611eaf565b60405180910390fd5b5f808673ffffffffffffffffffffffffffffffffffffffff16858760405161127e9190611f39565b5f6040518083038185875af1925050503d805f81146112b8576040519150601f19603f3d011682016040523d82523d5f602084013e6112bd565b606091505b50915091506112ce878383876112da565b92505050949350505050565b6060831561133b575f835103611333576112f38561134e565b611332576040517f08c379a000000000000000000000000000000000000000000000000000000000815260040161132990611f99565b60405180910390fd5b5b829050611346565b6113458383611370565b5b949350505050565b5f808273ffffffffffffffffffffffffffffffffffffffff163b119050919050565b5f825111156113825781518083602001fd5b806040517f08c379a00000000000000000000000000000000000000000000000000000000081526004016113b69190611ff9565b60405180910390fd5b5f604051905090565b5f80fd5b5f80fd5b5f819050919050565b6113e2816113d0565b81146113ec575f80fd5b50565b5f813590506113fd816113d9565b92915050565b5f73ffffffffffffffffffffffffffffffffffffffff82169050919050565b5f61142c82611403565b9050919050565b61143c81611422565b8114611446575f80fd5b50565b5f8135905061145781611433565b92915050565b5f80fd5b5f80fd5b5f80fd5b5f8083601f84011261147e5761147d61145d565b5b8235905067ffffffffffffffff81111561149b5761149a611461565b5b6020830191508360018202830111156114b7576114b6611465565b5b9250929050565b5f805f805f608086880312156114d7576114d66113c8565b5b5f6114e4888289016113ef565b95505060206114f5888289016113ef565b945050604061150688828901611449565b935050606086013567ffffffffffffffff811115611527576115266113cc565b5b61153388828901611469565b92509250509295509295909350565b61154b816113d0565b82525050565b5f6060820190506115645f830186611542565b6115716020830185611542565b61157e6040830184611542565b949350505050565b61158f81611422565b82525050565b5f6020820190506115a85f830184611586565b92915050565b5f60c0820190506115c15f830189611542565b6115ce6020830188611542565b6115db6040830187611542565b6115e86060830186611542565b6115f56080830185611586565b61160260a0830184611586565b979650505050505050565b5f6020820190506116205f830184611542565b92915050565b5f6040820190506116395f830185611586565b6116466020830184611586565b9392505050565b5f8060408385031215611663576116626113c8565b5b5f611670858286016113ef565b925050602061168185828601611449565b9150509250929050565b5f82825260208201905092915050565b7f5669727475616c506f6f6c3a20494e53554646494349454e545f4f55545055545f8201527f5f414d4f554e5400000000000000000000000000000000000000000000000000602082015250565b5f6116f560278361168b565b91506117008261169b565b604082019050919050565b5f6020820190508181035f830152611722816116e9565b9050919050565b7f5669727475616c506f6f6c3a204f4e455f414d4f554e545f4d5553545f42455f5f8201527f5a45524f00000000000000000000000000000000000000000000000000000000602082015250565b5f61178360248361168b565b915061178e82611729565b604082019050919050565b5f6020820190508181035f8301526117b081611777565b9050919050565b7f5669727475616c506f6f6c3a20494e56414c49445f544f5f41444452455353005f82015250565b5f6117eb601f8361168b565b91506117f6826117b7565b602082019050919050565b5f6020820190508181035f830152611818816117df565b9050919050565b5f8151905061182d816113d9565b92915050565b5f60208284031215611848576118476113c8565b5b5f6118558482850161181f565b91505092915050565b5f819050919050565b6118708161185e565b82525050565b5f60c0820190506118895f830189611586565b6118966020830188611867565b6118a36040830187611586565b6118b06060830186611586565b6118bd6080830185611542565b6118ca60a0830184611542565b979650505050505050565b5f6080820190506118e85f830187611542565b6118f56020830186611542565b6119026040830185611542565b61190f6060830184611542565b95945050505050565b5f60208201905061192b5f830184611867565b92915050565b5f80fd5b5f601f19601f8301169050919050565b7f4e487b71000000000000000000000000000000000000000000000000000000005f52604160045260245ffd5b61197b82611935565b810181811067ffffffffffffffff8211171561199a57611999611945565b5b80604052505050565b5f6119ac6113bf565b90506119b88282611972565b919050565b5f815190506119cb81611433565b92915050565b5f6119db82611422565b9050919050565b6119eb816119d1565b81146119f5575f80fd5b50565b5f81519050611a06816119e2565b92915050565b5f60208284031215611a2157611a20611931565b5b611a2b60206119a3565b90505f611a3a8482850161181f565b5f8301525092915050565b5f60a08284031215611a5a57611a59611931565b5b611a6460a06119a3565b90505f611a7384828501611a0c565b5f830152506020611a86848285016119bd565b6020830152506040611a9a8482850161181f565b6040830152506060611aae8482850161181f565b6060830152506080611ac28482850161181f565b60808301525092915050565b5f6101608284031215611ae457611ae3611931565b5b611aee60e06119a3565b90505f611afd848285016119bd565b5f830152506020611b10848285016119bd565b6020830152506040611b24848285016119f8565b6040830152506060611b388482850161181f565b6060830152506080611b4c8482850161181f565b60808301525060a0611b608482850161181f565b60a08301525060c0611b7484828501611a45565b60c08301525092915050565b5f6101608284031215611b9657611b956113c8565b5b5f611ba384828501611ace565b91505092915050565b7f4e487b71000000000000000000000000000000000000000000000000000000005f52601260045260245ffd5b5f611be3826113d0565b9150611bee836113d0565b925082611bfe57611bfd611bac565b5b828204905092915050565b7f5669727475616c506f6f6c3a20494e56414c49445f544f4b454e0000000000005f82015250565b5f611c3d601a8361168b565b9150611c4882611c09565b602082019050919050565b5f6020820190508181035f830152611c6a81611c31565b9050919050565b5f60a082019050611c845f830188611586565b611c916020830187611867565b611c9e6040830186611586565b611cab6060830185611586565b611cb86080830184611542565b9695505050505050565b7f5265656e7472616e637947756172643a207265656e7472616e742063616c6c005f82015250565b5f611cf6601f8361168b565b9150611d0182611cc2565b602082019050919050565b5f6020820190508181035f830152611d2381611cea565b9050919050565b5f604082019050611d3d5f830185611586565b611d4a6020830184611542565b9392505050565b5f8115159050919050565b611d6581611d51565b8114611d6f575f80fd5b50565b5f81519050611d8081611d5c565b92915050565b5f60208284031215611d9b57611d9a6113c8565b5b5f611da884828501611d72565b91505092915050565b7f5361666545524332303a204552433230206f7065726174696f6e20646964206e5f8201527f6f74207375636365656400000000000000000000000000000000000000000000602082015250565b5f611e0b602a8361168b565b9150611e1682611db1565b604082019050919050565b5f6020820190508181035f830152611e3881611dff565b9050919050565b7f416464726573733a20696e73756666696369656e742062616c616e636520666f5f8201527f722063616c6c0000000000000000000000000000000000000000000000000000602082015250565b5f611e9960268361168b565b9150611ea482611e3f565b604082019050919050565b5f6020820190508181035f830152611ec681611e8d565b9050919050565b5f81519050919050565b5f81905092915050565b5f5b83811015611efe578082015181840152602081019050611ee3565b5f8484015250505050565b5f611f1382611ecd565b611f1d8185611ed7565b9350611f2d818560208601611ee1565b80840191505092915050565b5f611f448284611f09565b915081905092915050565b7f416464726573733a2063616c6c20746f206e6f6e2d636f6e74726163740000005f82015250565b5f611f83601d8361168b565b9150611f8e82611f4f565b602082019050919050565b5f6020820190508181035f830152611fb081611f77565b9050919050565b5f81519050919050565b5f611fcb82611fb7565b611fd5818561168b565b9350611fe5818560208601611ee1565b611fee81611935565b840191505092915050565b5f6020820190508181035f8301526120118184611fc1565b90509291505056fea164736f6c6343000818000aa164736f6c6343000818000a",
    "linkReferences": {}
  },
  "methodIdentifiers": {
    "CREATEX()": "a6384c96",
    "CREATEX_BYTECODE_HASH()": "71cf28ef",
    "deployVirtualPool(address,bytes32)": "b038cf10",
    "deprecatePool(address)": "32cc9a05",
    "getAllPools()": "d88ff1f4",
    "getOrPrecomputeProxyAddress(address,address)": "d9e3ca13",
    "getPool(address,address)": "531aa03e",
    "isPool(address)": "5b16ebb7",
    "isPoolDeprecated(address)": "e6e36206",
    "owner()": "8da5cb5b",
    "renounceOwnership()": "715018a6",
    "transferOwnership(address)": "f2fde38b"
  },
  "id": 58
}